{
  "contracts/staking/Staking.sol": {
    "Staking": {
      "abi": [
        {
          "inputs": [
            {
              "internalType": "address",
              "name": "tokenAddr_",
              "type": "address"
            },
            {
              "internalType": "address",
              "name": "reserveAddress_",
              "type": "address"
            }
          ],
          "stateMutability": "nonpayable",
          "type": "constructor"
        },
        {
          "anonymous": false,
          "inputs": [
            {
              "indexed": true,
              "internalType": "address",
              "name": "previousOwner",
              "type": "address"
            },
            {
              "indexed": true,
              "internalType": "address",
              "name": "newOwner",
              "type": "address"
            }
          ],
          "name": "OwnershipTransferred",
          "type": "event"
        },
        {
          "anonymous": false,
          "inputs": [
            {
              "indexed": false,
              "internalType": "address",
              "name": "account",
              "type": "address"
            },
            {
              "indexed": false,
              "internalType": "uint256",
              "name": "packageId",
              "type": "uint256"
            },
            {
              "indexed": false,
              "internalType": "uint256",
              "name": "amount",
              "type": "uint256"
            },
            {
              "indexed": false,
              "internalType": "uint256",
              "name": "totalProfit",
              "type": "uint256"
            }
          ],
          "name": "StakeReleased",
          "type": "event"
        },
        {
          "anonymous": false,
          "inputs": [
            {
              "indexed": false,
              "internalType": "address",
              "name": "account",
              "type": "address"
            },
            {
              "indexed": false,
              "internalType": "uint256",
              "name": "packageId",
              "type": "uint256"
            },
            {
              "indexed": false,
              "internalType": "uint256",
              "name": "amount",
              "type": "uint256"
            },
            {
              "indexed": false,
              "internalType": "uint256",
              "name": "totalProfit",
              "type": "uint256"
            }
          ],
          "name": "StakeUpdate",
          "type": "event"
        },
        {
          "inputs": [
            {
              "internalType": "uint256",
              "name": "rate_",
              "type": "uint256"
            },
            {
              "internalType": "uint256",
              "name": "decimal_",
              "type": "uint256"
            },
            {
              "internalType": "uint256",
              "name": "minStaking_",
              "type": "uint256"
            },
            {
              "internalType": "uint256",
              "name": "lockTime_",
              "type": "uint256"
            }
          ],
          "name": "addStakePackage",
          "outputs": [],
          "stateMutability": "nonpayable",
          "type": "function"
        },
        {
          "inputs": [
            {
              "internalType": "uint256",
              "name": "packageId_",
              "type": "uint256"
            }
          ],
          "name": "calculateProfit",
          "outputs": [
            {
              "internalType": "uint256",
              "name": "",
              "type": "uint256"
            }
          ],
          "stateMutability": "view",
          "type": "function"
        },
        {
          "inputs": [
            {
              "internalType": "uint256",
              "name": "packageId_",
              "type": "uint256"
            }
          ],
          "name": "getAprOfPackage",
          "outputs": [
            {
              "internalType": "uint256",
              "name": "",
              "type": "uint256"
            }
          ],
          "stateMutability": "view",
          "type": "function"
        },
        {
          "inputs": [],
          "name": "gold",
          "outputs": [
            {
              "internalType": "contract IERC20",
              "name": "",
              "type": "address"
            }
          ],
          "stateMutability": "view",
          "type": "function"
        },
        {
          "inputs": [],
          "name": "owner",
          "outputs": [
            {
              "internalType": "address",
              "name": "",
              "type": "address"
            }
          ],
          "stateMutability": "view",
          "type": "function"
        },
        {
          "inputs": [
            {
              "internalType": "uint256",
              "name": "packageId_",
              "type": "uint256"
            }
          ],
          "name": "removeStakePackage",
          "outputs": [],
          "stateMutability": "nonpayable",
          "type": "function"
        },
        {
          "inputs": [],
          "name": "renounceOwnership",
          "outputs": [],
          "stateMutability": "nonpayable",
          "type": "function"
        },
        {
          "inputs": [],
          "name": "reserve",
          "outputs": [
            {
              "internalType": "contract StakingReserve",
              "name": "",
              "type": "address"
            }
          ],
          "stateMutability": "view",
          "type": "function"
        },
        {
          "inputs": [
            {
              "internalType": "uint256",
              "name": "amount_",
              "type": "uint256"
            },
            {
              "internalType": "uint256",
              "name": "packageId_",
              "type": "uint256"
            }
          ],
          "name": "stake",
          "outputs": [],
          "stateMutability": "nonpayable",
          "type": "function"
        },
        {
          "inputs": [
            {
              "internalType": "uint256",
              "name": "",
              "type": "uint256"
            }
          ],
          "name": "stakePackages",
          "outputs": [
            {
              "internalType": "uint256",
              "name": "rate",
              "type": "uint256"
            },
            {
              "internalType": "uint256",
              "name": "decimal",
              "type": "uint256"
            },
            {
              "internalType": "uint256",
              "name": "minStaking",
              "type": "uint256"
            },
            {
              "internalType": "uint256",
              "name": "lockTime",
              "type": "uint256"
            },
            {
              "internalType": "bool",
              "name": "isOffline",
              "type": "bool"
            }
          ],
          "stateMutability": "view",
          "type": "function"
        },
        {
          "inputs": [
            {
              "internalType": "address",
              "name": "",
              "type": "address"
            },
            {
              "internalType": "uint256",
              "name": "",
              "type": "uint256"
            }
          ],
          "name": "stakes",
          "outputs": [
            {
              "internalType": "uint256",
              "name": "startTime",
              "type": "uint256"
            },
            {
              "internalType": "uint256",
              "name": "timePoint",
              "type": "uint256"
            },
            {
              "internalType": "uint256",
              "name": "amount",
              "type": "uint256"
            },
            {
              "internalType": "uint256",
              "name": "totalProfit",
              "type": "uint256"
            }
          ],
          "stateMutability": "view",
          "type": "function"
        },
        {
          "inputs": [
            {
              "internalType": "address",
              "name": "newOwner",
              "type": "address"
            }
          ],
          "name": "transferOwnership",
          "outputs": [],
          "stateMutability": "nonpayable",
          "type": "function"
        },
        {
          "inputs": [
            {
              "internalType": "uint256",
              "name": "packageId_",
              "type": "uint256"
            }
          ],
          "name": "unStake",
          "outputs": [],
          "stateMutability": "nonpayable",
          "type": "function"
        }
      ],
      "evm": {
        "bytecode": {
          "linkReferences": {},
          "object": "60c06040523480156200001157600080fd5b5060405162002228380380620022288339818101604052810190620000379190620001b0565b620000576200004b620000cd60201b60201c565b620000d560201b60201c565b8173ffffffffffffffffffffffffffffffffffffffff1660a08173ffffffffffffffffffffffffffffffffffffffff1660601b815250508073ffffffffffffffffffffffffffffffffffffffff1660808173ffffffffffffffffffffffffffffffffffffffff1660601b8152505050506200023f565b600033905090565b60008060009054906101000a900473ffffffffffffffffffffffffffffffffffffffff169050816000806101000a81548173ffffffffffffffffffffffffffffffffffffffff021916908373ffffffffffffffffffffffffffffffffffffffff1602179055508173ffffffffffffffffffffffffffffffffffffffff168173ffffffffffffffffffffffffffffffffffffffff167f8be0079c531659141344cd1fd0a4f28419497f9722a3daafe3b4186f6b6457e060405160405180910390a35050565b600081519050620001aa8162000225565b92915050565b60008060408385031215620001c457600080fd5b6000620001d48582860162000199565b9250506020620001e78582860162000199565b9150509250929050565b6000620001fe8262000205565b9050919050565b600073ffffffffffffffffffffffffffffffffffffffff82169050919050565b6200023081620001f1565b81146200023c57600080fd5b50565b60805160601c60a05160601c611fa86200028060003960008181610a8f0152610f9c0152600081816105b701528181610ad30152610e450152611fa86000f3fe608060405234801561001057600080fd5b50600436106100cf5760003560e01c80637b0472f01161008c578063cd3293de11610066578063cd3293de14610203578063ea2cb11214610221578063f2fde38b14610251578063fbec6f211461026d576100cf565b80637b0472f0146101ad5780638da5cb5b146101c9578063b4632b2f146101e7576100cf565b806309e1f796146100d4578063584b62a1146101085780635b21ba6f1461013b5780635d3eea911461016b5780636861d53014610187578063715018a6146101a3575b600080fd5b6100ee60048036038101906100e9919061117b565b61028b565b6040516100ff95949392919061178e565b60405180910390f35b610122600480360381019061011d9190611116565b6102ce565b6040516101329493929190611749565b60405180910390f35b6101556004803603810190610150919061117b565b61030b565b604051610162919061172e565b60405180910390f35b6101856004803603810190610180919061117b565b61042a565b005b6101a1600480360381019061019c91906111e0565b610697565b005b6101ab610883565b005b6101c760048036038101906101c291906111a4565b61090b565b005b6101d1610c84565b6040516101de9190611478565b60405180910390f35b61020160048036038101906101fc919061117b565b610cad565b005b61020b610e43565b6040516102189190611553565b60405180910390f35b61023b6004803603810190610236919061117b565b610e67565b604051610248919061172e565b60405180910390f35b61026b600480360381019061026691906110ed565b610ea2565b005b610275610f9a565b6040516102829190611538565b60405180910390f35b60026020528060005260406000206000915090508060000154908060010154908060020154908060030154908060040160009054906101000a900460ff16905085565b6003602052816000526040600020602052806000526040600020600091509150508060000154908060010154908060020154908060030154905084565b6000806003600061031a610fbe565b73ffffffffffffffffffffffffffffffffffffffff1673ffffffffffffffffffffffffffffffffffffffff1681526020019081526020016000206000848152602001908152602001600020604051806080016040529081600082015481526020016001820154815260200160028201548152602001600382015481525050905060008160200151426103ac9190611a44565b905060006002600086815260200190815260200160002060010154600a6103d391906118cc565b60026000878152602001908152602001600020600001548460400151846103fa91906119ea565b61040491906119ea565b61040e9190611848565b905080836060015161042091906117f2565b9350505050919050565b6000811161046d576040517f08c379a0000000000000000000000000000000000000000000000000000000008152600401610464906116ee565b60405180910390fd5b60006003600061047b610fbe565b73ffffffffffffffffffffffffffffffffffffffff1673ffffffffffffffffffffffffffffffffffffffff16815260200190815260200160002060008381526020019081526020016000209050600081600201541161050f576040517f08c379a0000000000000000000000000000000000000000000000000000000008152600401610506906115ce565b60405180910390fd5b60026000838152602001908152602001600020600301548160010154426105369190611a44565b1015610577576040517f08c379a000000000000000000000000000000000000000000000000000000000815260040161056e9061162e565b60405180910390fd5b60006105828361030b565b9050600082600201549050600083600201819055506000836000018190555060008360010181905550600083600301819055507f000000000000000000000000000000000000000000000000000000000000000073ffffffffffffffffffffffffffffffffffffffff1663b5e6f0276105f9610fbe565b838561060591906117f2565b6040518363ffffffff1660e01b81526004016106229291906114ca565b600060405180830381600087803b15801561063c57600080fd5b505af1158015610650573d6000803e3d6000fd5b505050507fb44b08bc75983ed4393c66769ca15e60280c5d2c5e828dd1f282a3f0dd7e834b3385838560405161068994939291906114f3565b60405180910390a150505050565b61069f610fbe565b73ffffffffffffffffffffffffffffffffffffffff166106bd610c84565b73ffffffffffffffffffffffffffffffffffffffff1614610713576040517f08c379a000000000000000000000000000000000000000000000000000000000815260040161070a9061164e565b60405180910390fd5b60008411610756576040517f08c379a000000000000000000000000000000000000000000000000000000000815260040161074d9061168e565b60405180910390fd5b60008211610799576040517f08c379a0000000000000000000000000000000000000000000000000000000008152600401610790906116ae565b60405180910390fd5b600081116107dc576040517f08c379a00000000000000000000000000000000000000000000000000000000081526004016107d3906116ce565b60405180910390fd5b6107e66001610fc6565b60006107f26001610fdc565b90506040518060a0016040528086815260200185815260200184815260200183815260200160001515815250600260008381526020019081526020016000206000820151816000015560208201518160010155604082015181600201556060820151816003015560808201518160040160006101000a81548160ff0219169083151502179055509050505050505050565b61088b610fbe565b73ffffffffffffffffffffffffffffffffffffffff166108a9610c84565b73ffffffffffffffffffffffffffffffffffffffff16146108ff576040517f08c379a00000000000000000000000000000000000000000000000000000000081526004016108f69061164e565b60405180910390fd5b6109096000610fea565b565b6000821161094e576040517f08c379a0000000000000000000000000000000000000000000000000000000008152600401610945906115ae565b60405180910390fd5b60008111610991576040517f08c379a0000000000000000000000000000000000000000000000000000000008152600401610988906116ee565b60405180910390fd5b600060026000838152602001908152602001600020905060008160000154116109ef576040517f08c379a00000000000000000000000000000000000000000000000000000000081526004016109e69061170e565b60405180910390fd5b600015158160040160009054906101000a900460ff16151514610a47576040517f08c379a0000000000000000000000000000000000000000000000000000000008152600401610a3e906115ee565b60405180910390fd5b80600201548311610a8d576040517f08c379a0000000000000000000000000000000000000000000000000000000008152600401610a849061156e565b60405180910390fd5b7f000000000000000000000000000000000000000000000000000000000000000073ffffffffffffffffffffffffffffffffffffffff166323b872dd610ad1610fbe565b7f0000000000000000000000000000000000000000000000000000000000000000866040518463ffffffff1660e01b8152600401610b1193929190611493565b602060405180830381600087803b158015610b2b57600080fd5b505af1158015610b3f573d6000803e3d6000fd5b505050506040513d601f19601f82011682018060405250810190610b639190611152565b50600060036000610b72610fbe565b73ffffffffffffffffffffffffffffffffffffffff1673ffffffffffffffffffffffffffffffffffffffff16815260200190815260200160002060008481526020019081526020016000209050600081600201541115610c0c576000610bd78461030b565b905084826002016000828254610bed91906117f2565b9250508190555042826001018190555080826003018190555050610c32565b838160020181905550428160000181905550428160010181905550600081600301819055505b7f6bd50b2adbfd6455ea19dde2d7225e43f70fab44edfbac7ed0748d7d9c3f9059610c5b610fbe565b8483600201548460030154604051610c7694939291906114f3565b60405180910390a150505050565b60008060009054906101000a900473ffffffffffffffffffffffffffffffffffffffff16905090565b610cb5610fbe565b73ffffffffffffffffffffffffffffffffffffffff16610cd3610c84565b73ffffffffffffffffffffffffffffffffffffffff1614610d29576040517f08c379a0000000000000000000000000000000000000000000000000000000008152600401610d209061164e565b60405180910390fd5b60008111610d6c576040517f08c379a0000000000000000000000000000000000000000000000000000000008152600401610d63906116ee565b60405180910390fd5b60006002600083815260200190815260200160002090506000816000015411610dca576040517f08c379a0000000000000000000000000000000000000000000000000000000008152600401610dc19061160e565b60405180910390fd5b600015158160040160009054906101000a900460ff16151514610e22576040517f08c379a0000000000000000000000000000000000000000000000000000000008152600401610e199061166e565b60405180910390fd5b60018160040160006101000a81548160ff0219169083151502179055505050565b7f000000000000000000000000000000000000000000000000000000000000000081565b60006201518061016d6002600085815260200190815260200160002060000154610e9191906119ea565b610e9b91906119ea565b9050919050565b610eaa610fbe565b73ffffffffffffffffffffffffffffffffffffffff16610ec8610c84565b73ffffffffffffffffffffffffffffffffffffffff1614610f1e576040517f08c379a0000000000000000000000000000000000000000000000000000000008152600401610f159061164e565b60405180910390fd5b600073ffffffffffffffffffffffffffffffffffffffff168173ffffffffffffffffffffffffffffffffffffffff161415610f8e576040517f08c379a0000000000000000000000000000000000000000000000000000000008152600401610f859061158e565b60405180910390fd5b610f9781610fea565b50565b7f000000000000000000000000000000000000000000000000000000000000000081565b600033905090565b6001816000016000828254019250508190555050565b600081600001549050919050565b60008060009054906101000a900473ffffffffffffffffffffffffffffffffffffffff169050816000806101000a81548173ffffffffffffffffffffffffffffffffffffffff021916908373ffffffffffffffffffffffffffffffffffffffff1602179055508173ffffffffffffffffffffffffffffffffffffffff168173ffffffffffffffffffffffffffffffffffffffff167f8be0079c531659141344cd1fd0a4f28419497f9722a3daafe3b4186f6b6457e060405160405180910390a35050565b6000813590506110bd81611f2d565b92915050565b6000815190506110d281611f44565b92915050565b6000813590506110e781611f5b565b92915050565b6000602082840312156110ff57600080fd5b600061110d848285016110ae565b91505092915050565b6000806040838503121561112957600080fd5b6000611137858286016110ae565b9250506020611148858286016110d8565b9150509250929050565b60006020828403121561116457600080fd5b6000611172848285016110c3565b91505092915050565b60006020828403121561118d57600080fd5b600061119b848285016110d8565b91505092915050565b600080604083850312156111b757600080fd5b60006111c5858286016110d8565b92505060206111d6858286016110d8565b9150509250929050565b600080600080608085870312156111f657600080fd5b6000611204878288016110d8565b9450506020611215878288016110d8565b9350506040611226878288016110d8565b9250506060611237878288016110d8565b91505092959194509250565b61124c81611a78565b82525050565b61125b81611a8a565b82525050565b61126a81611ac0565b82525050565b61127981611ae4565b82525050565b600061128c602f836117e1565b915061129782611b73565b604082019050919050565b60006112af6026836117e1565b91506112ba82611bc2565b604082019050919050565b60006112d26026836117e1565b91506112dd82611c11565b604082019050919050565b60006112f5601a836117e1565b915061130082611c60565b602082019050919050565b60006113186024836117e1565b915061132382611c89565b604082019050919050565b600061133b6022836117e1565b915061134682611cd8565b604082019050919050565b600061135e601c836117e1565b915061136982611d27565b602082019050919050565b60006113816020836117e1565b915061138c82611d50565b602082019050919050565b60006113a46026836117e1565b91506113af82611d79565b604082019050919050565b60006113c76024836117e1565b91506113d282611dc8565b604082019050919050565b60006113ea602a836117e1565b91506113f582611e17565b604082019050919050565b600061140d6028836117e1565b915061141882611e66565b604082019050919050565b60006114306029836117e1565b915061143b82611eb5565b604082019050919050565b60006114536020836117e1565b915061145e82611f04565b602082019050919050565b61147281611ab6565b82525050565b600060208201905061148d6000830184611243565b92915050565b60006060820190506114a86000830186611243565b6114b56020830185611243565b6114c26040830184611469565b949350505050565b60006040820190506114df6000830185611243565b6114ec6020830184611469565b9392505050565b60006080820190506115086000830187611243565b6115156020830186611469565b6115226040830185611469565b61152f6060830184611469565b95945050505050565b600060208201905061154d6000830184611261565b92915050565b60006020820190506115686000830184611270565b92915050565b600060208201905081810360008301526115878161127f565b9050919050565b600060208201905081810360008301526115a7816112a2565b9050919050565b600060208201905081810360008301526115c7816112c5565b9050919050565b600060208201905081810360008301526115e7816112e8565b9050919050565b600060208201905081810360008301526116078161130b565b9050919050565b600060208201905081810360008301526116278161132e565b9050919050565b6000602082019050818103600083015261164781611351565b9050919050565b6000602082019050818103600083015261166781611374565b9050919050565b6000602082019050818103600083015261168781611397565b9050919050565b600060208201905081810360008301526116a7816113ba565b9050919050565b600060208201905081810360008301526116c7816113dd565b9050919050565b600060208201905081810360008301526116e781611400565b9050919050565b6000602082019050818103600083015261170781611423565b9050919050565b6000602082019050818103600083015261172781611446565b9050919050565b60006020820190506117436000830184611469565b92915050565b600060808201905061175e6000830187611469565b61176b6020830186611469565b6117786040830185611469565b6117856060830184611469565b95945050505050565b600060a0820190506117a36000830188611469565b6117b06020830187611469565b6117bd6040830186611469565b6117ca6060830185611469565b6117d76080830184611252565b9695505050505050565b600082825260208201905092915050565b60006117fd82611ab6565b915061180883611ab6565b9250827fffffffffffffffffffffffffffffffffffffffffffffffffffffffffffffffff0382111561183d5761183c611b08565b5b828201905092915050565b600061185382611ab6565b915061185e83611ab6565b92508261186e5761186d611b37565b5b828204905092915050565b6000808291508390505b60018511156118c35780860481111561189f5761189e611b08565b5b60018516156118ae5780820291505b80810290506118bc85611b66565b9450611883565b94509492505050565b60006118d782611ab6565b91506118e283611ab6565b925061190f7fffffffffffffffffffffffffffffffffffffffffffffffffffffffffffffffff8484611917565b905092915050565b60008261192757600190506119e3565b8161193557600090506119e3565b816001811461194b576002811461195557611984565b60019150506119e3565b60ff84111561196757611966611b08565b5b8360020a91508482111561197e5761197d611b08565b5b506119e3565b5060208310610133831016604e8410600b84101617156119b95782820a9050838111156119b4576119b3611b08565b5b6119e3565b6119c68484846001611879565b925090508184048111156119dd576119dc611b08565b5b81810290505b9392505050565b60006119f582611ab6565b9150611a0083611ab6565b9250817fffffffffffffffffffffffffffffffffffffffffffffffffffffffffffffffff0483118215151615611a3957611a38611b08565b5b828202905092915050565b6000611a4f82611ab6565b9150611a5a83611ab6565b925082821015611a6d57611a6c611b08565b5b828203905092915050565b6000611a8382611a96565b9050919050565b60008115159050919050565b600073ffffffffffffffffffffffffffffffffffffffff82169050919050565b6000819050919050565b6000611acb82611ad2565b9050919050565b6000611add82611a96565b9050919050565b6000611aef82611af6565b9050919050565b6000611b0182611a96565b9050919050565b7f4e487b7100000000000000000000000000000000000000000000000000000000600052601160045260246000fd5b7f4e487b7100000000000000000000000000000000000000000000000000000000600052601260045260246000fd5b60008160011c9050919050565b7f5374616b696e673a20616d6f756e745f206d757374206265206c61676765722060008201527f7468616e206d696e5374616b696e670000000000000000000000000000000000602082015250565b7f4f776e61626c653a206e6577206f776e657220697320746865207a65726f206160008201527f6464726573730000000000000000000000000000000000000000000000000000602082015250565b7f5374616b696e673a20616d6f756e745f206d757374206265206c61676765722060008201527f7468616e20300000000000000000000000000000000000000000000000000000602082015250565b7f5374616b696e673a205374616b696e67206e6f7420666f756e64000000000000600082015250565b7f5374616b696e673a207061636b61676549645f20686164206265656e2072656d60008201527f6f76656400000000000000000000000000000000000000000000000000000000602082015250565b7f5374616b696e673a205374616b652070616b616765206973206e6f742065786960008201527f7473000000000000000000000000000000000000000000000000000000000000602082015250565b7f5374616b696e673a204e6f74207265616368206c6f636b2074696d6500000000600082015250565b7f4f776e61626c653a2063616c6c6572206973206e6f7420746865206f776e6572600082015250565b7f5374616b696e673a205374616b652070616b61676520686164206265656e207260008201527f656d6f7665640000000000000000000000000000000000000000000000000000602082015250565b7f5374616b696e673a20726174655f206d757374206265206c616767657220746860008201527f616e203000000000000000000000000000000000000000000000000000000000602082015250565b7f5374616b696e673a206d696e5374616b696e675f206d757374206265206c616760008201527f676572207468616e203000000000000000000000000000000000000000000000602082015250565b7f5374616b696e673a206c6f636b54696d655f206d757374206265206c6167676560008201527f72207468616e2030000000000000000000000000000000000000000000000000602082015250565b7f5374616b696e673a207061636b61676549645f206d757374206265206c61676760008201527f6572207468616e20300000000000000000000000000000000000000000000000602082015250565b7f5374616b696e673a207061636b61676549645f206973206e6f74206578697473600082015250565b611f3681611a78565b8114611f4157600080fd5b50565b611f4d81611a8a565b8114611f5857600080fd5b50565b611f6481611ab6565b8114611f6f57600080fd5b5056fea2646970667358221220058ffb2e66c6f8d05e1b17a1003c7eb3af442e9d9cf58d374924411945afb84164736f6c63430008040033",
          "opcodes": "PUSH1 0xC0 PUSH1 0x40 MSTORE CALLVALUE DUP1 ISZERO PUSH3 0x11 JUMPI PUSH1 0x0 DUP1 REVERT JUMPDEST POP PUSH1 0x40 MLOAD PUSH3 0x2228 CODESIZE SUB DUP1 PUSH3 0x2228 DUP4 CODECOPY DUP2 DUP2 ADD PUSH1 0x40 MSTORE DUP2 ADD SWAP1 PUSH3 0x37 SWAP2 SWAP1 PUSH3 0x1B0 JUMP JUMPDEST PUSH3 0x57 PUSH3 0x4B PUSH3 0xCD PUSH1 0x20 SHL PUSH1 0x20 SHR JUMP JUMPDEST PUSH3 0xD5 PUSH1 0x20 SHL PUSH1 0x20 SHR JUMP JUMPDEST DUP2 PUSH20 0xFFFFFFFFFFFFFFFFFFFFFFFFFFFFFFFFFFFFFFFF AND PUSH1 0xA0 DUP2 PUSH20 0xFFFFFFFFFFFFFFFFFFFFFFFFFFFFFFFFFFFFFFFF AND PUSH1 0x60 SHL DUP2 MSTORE POP POP DUP1 PUSH20 0xFFFFFFFFFFFFFFFFFFFFFFFFFFFFFFFFFFFFFFFF AND PUSH1 0x80 DUP2 PUSH20 0xFFFFFFFFFFFFFFFFFFFFFFFFFFFFFFFFFFFFFFFF AND PUSH1 0x60 SHL DUP2 MSTORE POP POP POP POP PUSH3 0x23F JUMP JUMPDEST PUSH1 0x0 CALLER SWAP1 POP SWAP1 JUMP JUMPDEST PUSH1 0x0 DUP1 PUSH1 0x0 SWAP1 SLOAD SWAP1 PUSH2 0x100 EXP SWAP1 DIV PUSH20 0xFFFFFFFFFFFFFFFFFFFFFFFFFFFFFFFFFFFFFFFF AND SWAP1 POP DUP2 PUSH1 0x0 DUP1 PUSH2 0x100 EXP DUP2 SLOAD DUP2 PUSH20 0xFFFFFFFFFFFFFFFFFFFFFFFFFFFFFFFFFFFFFFFF MUL NOT AND SWAP1 DUP4 PUSH20 0xFFFFFFFFFFFFFFFFFFFFFFFFFFFFFFFFFFFFFFFF AND MUL OR SWAP1 SSTORE POP DUP2 PUSH20 0xFFFFFFFFFFFFFFFFFFFFFFFFFFFFFFFFFFFFFFFF AND DUP2 PUSH20 0xFFFFFFFFFFFFFFFFFFFFFFFFFFFFFFFFFFFFFFFF AND PUSH32 0x8BE0079C531659141344CD1FD0A4F28419497F9722A3DAAFE3B4186F6B6457E0 PUSH1 0x40 MLOAD PUSH1 0x40 MLOAD DUP1 SWAP2 SUB SWAP1 LOG3 POP POP JUMP JUMPDEST PUSH1 0x0 DUP2 MLOAD SWAP1 POP PUSH3 0x1AA DUP2 PUSH3 0x225 JUMP JUMPDEST SWAP3 SWAP2 POP POP JUMP JUMPDEST PUSH1 0x0 DUP1 PUSH1 0x40 DUP4 DUP6 SUB SLT ISZERO PUSH3 0x1C4 JUMPI PUSH1 0x0 DUP1 REVERT JUMPDEST PUSH1 0x0 PUSH3 0x1D4 DUP6 DUP3 DUP7 ADD PUSH3 0x199 JUMP JUMPDEST SWAP3 POP POP PUSH1 0x20 PUSH3 0x1E7 DUP6 DUP3 DUP7 ADD PUSH3 0x199 JUMP JUMPDEST SWAP2 POP POP SWAP3 POP SWAP3 SWAP1 POP JUMP JUMPDEST PUSH1 0x0 PUSH3 0x1FE DUP3 PUSH3 0x205 JUMP JUMPDEST SWAP1 POP SWAP2 SWAP1 POP JUMP JUMPDEST PUSH1 0x0 PUSH20 0xFFFFFFFFFFFFFFFFFFFFFFFFFFFFFFFFFFFFFFFF DUP3 AND SWAP1 POP SWAP2 SWAP1 POP JUMP JUMPDEST PUSH3 0x230 DUP2 PUSH3 0x1F1 JUMP JUMPDEST DUP2 EQ PUSH3 0x23C JUMPI PUSH1 0x0 DUP1 REVERT JUMPDEST POP JUMP JUMPDEST PUSH1 0x80 MLOAD PUSH1 0x60 SHR PUSH1 0xA0 MLOAD PUSH1 0x60 SHR PUSH2 0x1FA8 PUSH3 0x280 PUSH1 0x0 CODECOPY PUSH1 0x0 DUP2 DUP2 PUSH2 0xA8F ADD MSTORE PUSH2 0xF9C ADD MSTORE PUSH1 0x0 DUP2 DUP2 PUSH2 0x5B7 ADD MSTORE DUP2 DUP2 PUSH2 0xAD3 ADD MSTORE PUSH2 0xE45 ADD MSTORE PUSH2 0x1FA8 PUSH1 0x0 RETURN INVALID PUSH1 0x80 PUSH1 0x40 MSTORE CALLVALUE DUP1 ISZERO PUSH2 0x10 JUMPI PUSH1 0x0 DUP1 REVERT JUMPDEST POP PUSH1 0x4 CALLDATASIZE LT PUSH2 0xCF JUMPI PUSH1 0x0 CALLDATALOAD PUSH1 0xE0 SHR DUP1 PUSH4 0x7B0472F0 GT PUSH2 0x8C JUMPI DUP1 PUSH4 0xCD3293DE GT PUSH2 0x66 JUMPI DUP1 PUSH4 0xCD3293DE EQ PUSH2 0x203 JUMPI DUP1 PUSH4 0xEA2CB112 EQ PUSH2 0x221 JUMPI DUP1 PUSH4 0xF2FDE38B EQ PUSH2 0x251 JUMPI DUP1 PUSH4 0xFBEC6F21 EQ PUSH2 0x26D JUMPI PUSH2 0xCF JUMP JUMPDEST DUP1 PUSH4 0x7B0472F0 EQ PUSH2 0x1AD JUMPI DUP1 PUSH4 0x8DA5CB5B EQ PUSH2 0x1C9 JUMPI DUP1 PUSH4 0xB4632B2F EQ PUSH2 0x1E7 JUMPI PUSH2 0xCF JUMP JUMPDEST DUP1 PUSH4 0x9E1F796 EQ PUSH2 0xD4 JUMPI DUP1 PUSH4 0x584B62A1 EQ PUSH2 0x108 JUMPI DUP1 PUSH4 0x5B21BA6F EQ PUSH2 0x13B JUMPI DUP1 PUSH4 0x5D3EEA91 EQ PUSH2 0x16B JUMPI DUP1 PUSH4 0x6861D530 EQ PUSH2 0x187 JUMPI DUP1 PUSH4 0x715018A6 EQ PUSH2 0x1A3 JUMPI JUMPDEST PUSH1 0x0 DUP1 REVERT JUMPDEST PUSH2 0xEE PUSH1 0x4 DUP1 CALLDATASIZE SUB DUP2 ADD SWAP1 PUSH2 0xE9 SWAP2 SWAP1 PUSH2 0x117B JUMP JUMPDEST PUSH2 0x28B JUMP JUMPDEST PUSH1 0x40 MLOAD PUSH2 0xFF SWAP6 SWAP5 SWAP4 SWAP3 SWAP2 SWAP1 PUSH2 0x178E JUMP JUMPDEST PUSH1 0x40 MLOAD DUP1 SWAP2 SUB SWAP1 RETURN JUMPDEST PUSH2 0x122 PUSH1 0x4 DUP1 CALLDATASIZE SUB DUP2 ADD SWAP1 PUSH2 0x11D SWAP2 SWAP1 PUSH2 0x1116 JUMP JUMPDEST PUSH2 0x2CE JUMP JUMPDEST PUSH1 0x40 MLOAD PUSH2 0x132 SWAP5 SWAP4 SWAP3 SWAP2 SWAP1 PUSH2 0x1749 JUMP JUMPDEST PUSH1 0x40 MLOAD DUP1 SWAP2 SUB SWAP1 RETURN JUMPDEST PUSH2 0x155 PUSH1 0x4 DUP1 CALLDATASIZE SUB DUP2 ADD SWAP1 PUSH2 0x150 SWAP2 SWAP1 PUSH2 0x117B JUMP JUMPDEST PUSH2 0x30B JUMP JUMPDEST PUSH1 0x40 MLOAD PUSH2 0x162 SWAP2 SWAP1 PUSH2 0x172E JUMP JUMPDEST PUSH1 0x40 MLOAD DUP1 SWAP2 SUB SWAP1 RETURN JUMPDEST PUSH2 0x185 PUSH1 0x4 DUP1 CALLDATASIZE SUB DUP2 ADD SWAP1 PUSH2 0x180 SWAP2 SWAP1 PUSH2 0x117B JUMP JUMPDEST PUSH2 0x42A JUMP JUMPDEST STOP JUMPDEST PUSH2 0x1A1 PUSH1 0x4 DUP1 CALLDATASIZE SUB DUP2 ADD SWAP1 PUSH2 0x19C SWAP2 SWAP1 PUSH2 0x11E0 JUMP JUMPDEST PUSH2 0x697 JUMP JUMPDEST STOP JUMPDEST PUSH2 0x1AB PUSH2 0x883 JUMP JUMPDEST STOP JUMPDEST PUSH2 0x1C7 PUSH1 0x4 DUP1 CALLDATASIZE SUB DUP2 ADD SWAP1 PUSH2 0x1C2 SWAP2 SWAP1 PUSH2 0x11A4 JUMP JUMPDEST PUSH2 0x90B JUMP JUMPDEST STOP JUMPDEST PUSH2 0x1D1 PUSH2 0xC84 JUMP JUMPDEST PUSH1 0x40 MLOAD PUSH2 0x1DE SWAP2 SWAP1 PUSH2 0x1478 JUMP JUMPDEST PUSH1 0x40 MLOAD DUP1 SWAP2 SUB SWAP1 RETURN JUMPDEST PUSH2 0x201 PUSH1 0x4 DUP1 CALLDATASIZE SUB DUP2 ADD SWAP1 PUSH2 0x1FC SWAP2 SWAP1 PUSH2 0x117B JUMP JUMPDEST PUSH2 0xCAD JUMP JUMPDEST STOP JUMPDEST PUSH2 0x20B PUSH2 0xE43 JUMP JUMPDEST PUSH1 0x40 MLOAD PUSH2 0x218 SWAP2 SWAP1 PUSH2 0x1553 JUMP JUMPDEST PUSH1 0x40 MLOAD DUP1 SWAP2 SUB SWAP1 RETURN JUMPDEST PUSH2 0x23B PUSH1 0x4 DUP1 CALLDATASIZE SUB DUP2 ADD SWAP1 PUSH2 0x236 SWAP2 SWAP1 PUSH2 0x117B JUMP JUMPDEST PUSH2 0xE67 JUMP JUMPDEST PUSH1 0x40 MLOAD PUSH2 0x248 SWAP2 SWAP1 PUSH2 0x172E JUMP JUMPDEST PUSH1 0x40 MLOAD DUP1 SWAP2 SUB SWAP1 RETURN JUMPDEST PUSH2 0x26B PUSH1 0x4 DUP1 CALLDATASIZE SUB DUP2 ADD SWAP1 PUSH2 0x266 SWAP2 SWAP1 PUSH2 0x10ED JUMP JUMPDEST PUSH2 0xEA2 JUMP JUMPDEST STOP JUMPDEST PUSH2 0x275 PUSH2 0xF9A JUMP JUMPDEST PUSH1 0x40 MLOAD PUSH2 0x282 SWAP2 SWAP1 PUSH2 0x1538 JUMP JUMPDEST PUSH1 0x40 MLOAD DUP1 SWAP2 SUB SWAP1 RETURN JUMPDEST PUSH1 0x2 PUSH1 0x20 MSTORE DUP1 PUSH1 0x0 MSTORE PUSH1 0x40 PUSH1 0x0 KECCAK256 PUSH1 0x0 SWAP2 POP SWAP1 POP DUP1 PUSH1 0x0 ADD SLOAD SWAP1 DUP1 PUSH1 0x1 ADD SLOAD SWAP1 DUP1 PUSH1 0x2 ADD SLOAD SWAP1 DUP1 PUSH1 0x3 ADD SLOAD SWAP1 DUP1 PUSH1 0x4 ADD PUSH1 0x0 SWAP1 SLOAD SWAP1 PUSH2 0x100 EXP SWAP1 DIV PUSH1 0xFF AND SWAP1 POP DUP6 JUMP JUMPDEST PUSH1 0x3 PUSH1 0x20 MSTORE DUP2 PUSH1 0x0 MSTORE PUSH1 0x40 PUSH1 0x0 KECCAK256 PUSH1 0x20 MSTORE DUP1 PUSH1 0x0 MSTORE PUSH1 0x40 PUSH1 0x0 KECCAK256 PUSH1 0x0 SWAP2 POP SWAP2 POP POP DUP1 PUSH1 0x0 ADD SLOAD SWAP1 DUP1 PUSH1 0x1 ADD SLOAD SWAP1 DUP1 PUSH1 0x2 ADD SLOAD SWAP1 DUP1 PUSH1 0x3 ADD SLOAD SWAP1 POP DUP5 JUMP JUMPDEST PUSH1 0x0 DUP1 PUSH1 0x3 PUSH1 0x0 PUSH2 0x31A PUSH2 0xFBE JUMP JUMPDEST PUSH20 0xFFFFFFFFFFFFFFFFFFFFFFFFFFFFFFFFFFFFFFFF AND PUSH20 0xFFFFFFFFFFFFFFFFFFFFFFFFFFFFFFFFFFFFFFFF AND DUP2 MSTORE PUSH1 0x20 ADD SWAP1 DUP2 MSTORE PUSH1 0x20 ADD PUSH1 0x0 KECCAK256 PUSH1 0x0 DUP5 DUP2 MSTORE PUSH1 0x20 ADD SWAP1 DUP2 MSTORE PUSH1 0x20 ADD PUSH1 0x0 KECCAK256 PUSH1 0x40 MLOAD DUP1 PUSH1 0x80 ADD PUSH1 0x40 MSTORE SWAP1 DUP2 PUSH1 0x0 DUP3 ADD SLOAD DUP2 MSTORE PUSH1 0x20 ADD PUSH1 0x1 DUP3 ADD SLOAD DUP2 MSTORE PUSH1 0x20 ADD PUSH1 0x2 DUP3 ADD SLOAD DUP2 MSTORE PUSH1 0x20 ADD PUSH1 0x3 DUP3 ADD SLOAD DUP2 MSTORE POP POP SWAP1 POP PUSH1 0x0 DUP2 PUSH1 0x20 ADD MLOAD TIMESTAMP PUSH2 0x3AC SWAP2 SWAP1 PUSH2 0x1A44 JUMP JUMPDEST SWAP1 POP PUSH1 0x0 PUSH1 0x2 PUSH1 0x0 DUP7 DUP2 MSTORE PUSH1 0x20 ADD SWAP1 DUP2 MSTORE PUSH1 0x20 ADD PUSH1 0x0 KECCAK256 PUSH1 0x1 ADD SLOAD PUSH1 0xA PUSH2 0x3D3 SWAP2 SWAP1 PUSH2 0x18CC JUMP JUMPDEST PUSH1 0x2 PUSH1 0x0 DUP8 DUP2 MSTORE PUSH1 0x20 ADD SWAP1 DUP2 MSTORE PUSH1 0x20 ADD PUSH1 0x0 KECCAK256 PUSH1 0x0 ADD SLOAD DUP5 PUSH1 0x40 ADD MLOAD DUP5 PUSH2 0x3FA SWAP2 SWAP1 PUSH2 0x19EA JUMP JUMPDEST PUSH2 0x404 SWAP2 SWAP1 PUSH2 0x19EA JUMP JUMPDEST PUSH2 0x40E SWAP2 SWAP1 PUSH2 0x1848 JUMP JUMPDEST SWAP1 POP DUP1 DUP4 PUSH1 0x60 ADD MLOAD PUSH2 0x420 SWAP2 SWAP1 PUSH2 0x17F2 JUMP JUMPDEST SWAP4 POP POP POP POP SWAP2 SWAP1 POP JUMP JUMPDEST PUSH1 0x0 DUP2 GT PUSH2 0x46D JUMPI PUSH1 0x40 MLOAD PUSH32 0x8C379A000000000000000000000000000000000000000000000000000000000 DUP2 MSTORE PUSH1 0x4 ADD PUSH2 0x464 SWAP1 PUSH2 0x16EE JUMP JUMPDEST PUSH1 0x40 MLOAD DUP1 SWAP2 SUB SWAP1 REVERT JUMPDEST PUSH1 0x0 PUSH1 0x3 PUSH1 0x0 PUSH2 0x47B PUSH2 0xFBE JUMP JUMPDEST PUSH20 0xFFFFFFFFFFFFFFFFFFFFFFFFFFFFFFFFFFFFFFFF AND PUSH20 0xFFFFFFFFFFFFFFFFFFFFFFFFFFFFFFFFFFFFFFFF AND DUP2 MSTORE PUSH1 0x20 ADD SWAP1 DUP2 MSTORE PUSH1 0x20 ADD PUSH1 0x0 KECCAK256 PUSH1 0x0 DUP4 DUP2 MSTORE PUSH1 0x20 ADD SWAP1 DUP2 MSTORE PUSH1 0x20 ADD PUSH1 0x0 KECCAK256 SWAP1 POP PUSH1 0x0 DUP2 PUSH1 0x2 ADD SLOAD GT PUSH2 0x50F JUMPI PUSH1 0x40 MLOAD PUSH32 0x8C379A000000000000000000000000000000000000000000000000000000000 DUP2 MSTORE PUSH1 0x4 ADD PUSH2 0x506 SWAP1 PUSH2 0x15CE JUMP JUMPDEST PUSH1 0x40 MLOAD DUP1 SWAP2 SUB SWAP1 REVERT JUMPDEST PUSH1 0x2 PUSH1 0x0 DUP4 DUP2 MSTORE PUSH1 0x20 ADD SWAP1 DUP2 MSTORE PUSH1 0x20 ADD PUSH1 0x0 KECCAK256 PUSH1 0x3 ADD SLOAD DUP2 PUSH1 0x1 ADD SLOAD TIMESTAMP PUSH2 0x536 SWAP2 SWAP1 PUSH2 0x1A44 JUMP JUMPDEST LT ISZERO PUSH2 0x577 JUMPI PUSH1 0x40 MLOAD PUSH32 0x8C379A000000000000000000000000000000000000000000000000000000000 DUP2 MSTORE PUSH1 0x4 ADD PUSH2 0x56E SWAP1 PUSH2 0x162E JUMP JUMPDEST PUSH1 0x40 MLOAD DUP1 SWAP2 SUB SWAP1 REVERT JUMPDEST PUSH1 0x0 PUSH2 0x582 DUP4 PUSH2 0x30B JUMP JUMPDEST SWAP1 POP PUSH1 0x0 DUP3 PUSH1 0x2 ADD SLOAD SWAP1 POP PUSH1 0x0 DUP4 PUSH1 0x2 ADD DUP2 SWAP1 SSTORE POP PUSH1 0x0 DUP4 PUSH1 0x0 ADD DUP2 SWAP1 SSTORE POP PUSH1 0x0 DUP4 PUSH1 0x1 ADD DUP2 SWAP1 SSTORE POP PUSH1 0x0 DUP4 PUSH1 0x3 ADD DUP2 SWAP1 SSTORE POP PUSH32 0x0 PUSH20 0xFFFFFFFFFFFFFFFFFFFFFFFFFFFFFFFFFFFFFFFF AND PUSH4 0xB5E6F027 PUSH2 0x5F9 PUSH2 0xFBE JUMP JUMPDEST DUP4 DUP6 PUSH2 0x605 SWAP2 SWAP1 PUSH2 0x17F2 JUMP JUMPDEST PUSH1 0x40 MLOAD DUP4 PUSH4 0xFFFFFFFF AND PUSH1 0xE0 SHL DUP2 MSTORE PUSH1 0x4 ADD PUSH2 0x622 SWAP3 SWAP2 SWAP1 PUSH2 0x14CA JUMP JUMPDEST PUSH1 0x0 PUSH1 0x40 MLOAD DUP1 DUP4 SUB DUP2 PUSH1 0x0 DUP8 DUP1 EXTCODESIZE ISZERO DUP1 ISZERO PUSH2 0x63C JUMPI PUSH1 0x0 DUP1 REVERT JUMPDEST POP GAS CALL ISZERO DUP1 ISZERO PUSH2 0x650 JUMPI RETURNDATASIZE PUSH1 0x0 DUP1 RETURNDATACOPY RETURNDATASIZE PUSH1 0x0 REVERT JUMPDEST POP POP POP POP PUSH32 0xB44B08BC75983ED4393C66769CA15E60280C5D2C5E828DD1F282A3F0DD7E834B CALLER DUP6 DUP4 DUP6 PUSH1 0x40 MLOAD PUSH2 0x689 SWAP5 SWAP4 SWAP3 SWAP2 SWAP1 PUSH2 0x14F3 JUMP JUMPDEST PUSH1 0x40 MLOAD DUP1 SWAP2 SUB SWAP1 LOG1 POP POP POP POP JUMP JUMPDEST PUSH2 0x69F PUSH2 0xFBE JUMP JUMPDEST PUSH20 0xFFFFFFFFFFFFFFFFFFFFFFFFFFFFFFFFFFFFFFFF AND PUSH2 0x6BD PUSH2 0xC84 JUMP JUMPDEST PUSH20 0xFFFFFFFFFFFFFFFFFFFFFFFFFFFFFFFFFFFFFFFF AND EQ PUSH2 0x713 JUMPI PUSH1 0x40 MLOAD PUSH32 0x8C379A000000000000000000000000000000000000000000000000000000000 DUP2 MSTORE PUSH1 0x4 ADD PUSH2 0x70A SWAP1 PUSH2 0x164E JUMP JUMPDEST PUSH1 0x40 MLOAD DUP1 SWAP2 SUB SWAP1 REVERT JUMPDEST PUSH1 0x0 DUP5 GT PUSH2 0x756 JUMPI PUSH1 0x40 MLOAD PUSH32 0x8C379A000000000000000000000000000000000000000000000000000000000 DUP2 MSTORE PUSH1 0x4 ADD PUSH2 0x74D SWAP1 PUSH2 0x168E JUMP JUMPDEST PUSH1 0x40 MLOAD DUP1 SWAP2 SUB SWAP1 REVERT JUMPDEST PUSH1 0x0 DUP3 GT PUSH2 0x799 JUMPI PUSH1 0x40 MLOAD PUSH32 0x8C379A000000000000000000000000000000000000000000000000000000000 DUP2 MSTORE PUSH1 0x4 ADD PUSH2 0x790 SWAP1 PUSH2 0x16AE JUMP JUMPDEST PUSH1 0x40 MLOAD DUP1 SWAP2 SUB SWAP1 REVERT JUMPDEST PUSH1 0x0 DUP2 GT PUSH2 0x7DC JUMPI PUSH1 0x40 MLOAD PUSH32 0x8C379A000000000000000000000000000000000000000000000000000000000 DUP2 MSTORE PUSH1 0x4 ADD PUSH2 0x7D3 SWAP1 PUSH2 0x16CE JUMP JUMPDEST PUSH1 0x40 MLOAD DUP1 SWAP2 SUB SWAP1 REVERT JUMPDEST PUSH2 0x7E6 PUSH1 0x1 PUSH2 0xFC6 JUMP JUMPDEST PUSH1 0x0 PUSH2 0x7F2 PUSH1 0x1 PUSH2 0xFDC JUMP JUMPDEST SWAP1 POP PUSH1 0x40 MLOAD DUP1 PUSH1 0xA0 ADD PUSH1 0x40 MSTORE DUP1 DUP7 DUP2 MSTORE PUSH1 0x20 ADD DUP6 DUP2 MSTORE PUSH1 0x20 ADD DUP5 DUP2 MSTORE PUSH1 0x20 ADD DUP4 DUP2 MSTORE PUSH1 0x20 ADD PUSH1 0x0 ISZERO ISZERO DUP2 MSTORE POP PUSH1 0x2 PUSH1 0x0 DUP4 DUP2 MSTORE PUSH1 0x20 ADD SWAP1 DUP2 MSTORE PUSH1 0x20 ADD PUSH1 0x0 KECCAK256 PUSH1 0x0 DUP3 ADD MLOAD DUP2 PUSH1 0x0 ADD SSTORE PUSH1 0x20 DUP3 ADD MLOAD DUP2 PUSH1 0x1 ADD SSTORE PUSH1 0x40 DUP3 ADD MLOAD DUP2 PUSH1 0x2 ADD SSTORE PUSH1 0x60 DUP3 ADD MLOAD DUP2 PUSH1 0x3 ADD SSTORE PUSH1 0x80 DUP3 ADD MLOAD DUP2 PUSH1 0x4 ADD PUSH1 0x0 PUSH2 0x100 EXP DUP2 SLOAD DUP2 PUSH1 0xFF MUL NOT AND SWAP1 DUP4 ISZERO ISZERO MUL OR SWAP1 SSTORE POP SWAP1 POP POP POP POP POP POP POP JUMP JUMPDEST PUSH2 0x88B PUSH2 0xFBE JUMP JUMPDEST PUSH20 0xFFFFFFFFFFFFFFFFFFFFFFFFFFFFFFFFFFFFFFFF AND PUSH2 0x8A9 PUSH2 0xC84 JUMP JUMPDEST PUSH20 0xFFFFFFFFFFFFFFFFFFFFFFFFFFFFFFFFFFFFFFFF AND EQ PUSH2 0x8FF JUMPI PUSH1 0x40 MLOAD PUSH32 0x8C379A000000000000000000000000000000000000000000000000000000000 DUP2 MSTORE PUSH1 0x4 ADD PUSH2 0x8F6 SWAP1 PUSH2 0x164E JUMP JUMPDEST PUSH1 0x40 MLOAD DUP1 SWAP2 SUB SWAP1 REVERT JUMPDEST PUSH2 0x909 PUSH1 0x0 PUSH2 0xFEA JUMP JUMPDEST JUMP JUMPDEST PUSH1 0x0 DUP3 GT PUSH2 0x94E JUMPI PUSH1 0x40 MLOAD PUSH32 0x8C379A000000000000000000000000000000000000000000000000000000000 DUP2 MSTORE PUSH1 0x4 ADD PUSH2 0x945 SWAP1 PUSH2 0x15AE JUMP JUMPDEST PUSH1 0x40 MLOAD DUP1 SWAP2 SUB SWAP1 REVERT JUMPDEST PUSH1 0x0 DUP2 GT PUSH2 0x991 JUMPI PUSH1 0x40 MLOAD PUSH32 0x8C379A000000000000000000000000000000000000000000000000000000000 DUP2 MSTORE PUSH1 0x4 ADD PUSH2 0x988 SWAP1 PUSH2 0x16EE JUMP JUMPDEST PUSH1 0x40 MLOAD DUP1 SWAP2 SUB SWAP1 REVERT JUMPDEST PUSH1 0x0 PUSH1 0x2 PUSH1 0x0 DUP4 DUP2 MSTORE PUSH1 0x20 ADD SWAP1 DUP2 MSTORE PUSH1 0x20 ADD PUSH1 0x0 KECCAK256 SWAP1 POP PUSH1 0x0 DUP2 PUSH1 0x0 ADD SLOAD GT PUSH2 0x9EF JUMPI PUSH1 0x40 MLOAD PUSH32 0x8C379A000000000000000000000000000000000000000000000000000000000 DUP2 MSTORE PUSH1 0x4 ADD PUSH2 0x9E6 SWAP1 PUSH2 0x170E JUMP JUMPDEST PUSH1 0x40 MLOAD DUP1 SWAP2 SUB SWAP1 REVERT JUMPDEST PUSH1 0x0 ISZERO ISZERO DUP2 PUSH1 0x4 ADD PUSH1 0x0 SWAP1 SLOAD SWAP1 PUSH2 0x100 EXP SWAP1 DIV PUSH1 0xFF AND ISZERO ISZERO EQ PUSH2 0xA47 JUMPI PUSH1 0x40 MLOAD PUSH32 0x8C379A000000000000000000000000000000000000000000000000000000000 DUP2 MSTORE PUSH1 0x4 ADD PUSH2 0xA3E SWAP1 PUSH2 0x15EE JUMP JUMPDEST PUSH1 0x40 MLOAD DUP1 SWAP2 SUB SWAP1 REVERT JUMPDEST DUP1 PUSH1 0x2 ADD SLOAD DUP4 GT PUSH2 0xA8D JUMPI PUSH1 0x40 MLOAD PUSH32 0x8C379A000000000000000000000000000000000000000000000000000000000 DUP2 MSTORE PUSH1 0x4 ADD PUSH2 0xA84 SWAP1 PUSH2 0x156E JUMP JUMPDEST PUSH1 0x40 MLOAD DUP1 SWAP2 SUB SWAP1 REVERT JUMPDEST PUSH32 0x0 PUSH20 0xFFFFFFFFFFFFFFFFFFFFFFFFFFFFFFFFFFFFFFFF AND PUSH4 0x23B872DD PUSH2 0xAD1 PUSH2 0xFBE JUMP JUMPDEST PUSH32 0x0 DUP7 PUSH1 0x40 MLOAD DUP5 PUSH4 0xFFFFFFFF AND PUSH1 0xE0 SHL DUP2 MSTORE PUSH1 0x4 ADD PUSH2 0xB11 SWAP4 SWAP3 SWAP2 SWAP1 PUSH2 0x1493 JUMP JUMPDEST PUSH1 0x20 PUSH1 0x40 MLOAD DUP1 DUP4 SUB DUP2 PUSH1 0x0 DUP8 DUP1 EXTCODESIZE ISZERO DUP1 ISZERO PUSH2 0xB2B JUMPI PUSH1 0x0 DUP1 REVERT JUMPDEST POP GAS CALL ISZERO DUP1 ISZERO PUSH2 0xB3F JUMPI RETURNDATASIZE PUSH1 0x0 DUP1 RETURNDATACOPY RETURNDATASIZE PUSH1 0x0 REVERT JUMPDEST POP POP POP POP PUSH1 0x40 MLOAD RETURNDATASIZE PUSH1 0x1F NOT PUSH1 0x1F DUP3 ADD AND DUP3 ADD DUP1 PUSH1 0x40 MSTORE POP DUP2 ADD SWAP1 PUSH2 0xB63 SWAP2 SWAP1 PUSH2 0x1152 JUMP JUMPDEST POP PUSH1 0x0 PUSH1 0x3 PUSH1 0x0 PUSH2 0xB72 PUSH2 0xFBE JUMP JUMPDEST PUSH20 0xFFFFFFFFFFFFFFFFFFFFFFFFFFFFFFFFFFFFFFFF AND PUSH20 0xFFFFFFFFFFFFFFFFFFFFFFFFFFFFFFFFFFFFFFFF AND DUP2 MSTORE PUSH1 0x20 ADD SWAP1 DUP2 MSTORE PUSH1 0x20 ADD PUSH1 0x0 KECCAK256 PUSH1 0x0 DUP5 DUP2 MSTORE PUSH1 0x20 ADD SWAP1 DUP2 MSTORE PUSH1 0x20 ADD PUSH1 0x0 KECCAK256 SWAP1 POP PUSH1 0x0 DUP2 PUSH1 0x2 ADD SLOAD GT ISZERO PUSH2 0xC0C JUMPI PUSH1 0x0 PUSH2 0xBD7 DUP5 PUSH2 0x30B JUMP JUMPDEST SWAP1 POP DUP5 DUP3 PUSH1 0x2 ADD PUSH1 0x0 DUP3 DUP3 SLOAD PUSH2 0xBED SWAP2 SWAP1 PUSH2 0x17F2 JUMP JUMPDEST SWAP3 POP POP DUP2 SWAP1 SSTORE POP TIMESTAMP DUP3 PUSH1 0x1 ADD DUP2 SWAP1 SSTORE POP DUP1 DUP3 PUSH1 0x3 ADD DUP2 SWAP1 SSTORE POP POP PUSH2 0xC32 JUMP JUMPDEST DUP4 DUP2 PUSH1 0x2 ADD DUP2 SWAP1 SSTORE POP TIMESTAMP DUP2 PUSH1 0x0 ADD DUP2 SWAP1 SSTORE POP TIMESTAMP DUP2 PUSH1 0x1 ADD DUP2 SWAP1 SSTORE POP PUSH1 0x0 DUP2 PUSH1 0x3 ADD DUP2 SWAP1 SSTORE POP JUMPDEST PUSH32 0x6BD50B2ADBFD6455EA19DDE2D7225E43F70FAB44EDFBAC7ED0748D7D9C3F9059 PUSH2 0xC5B PUSH2 0xFBE JUMP JUMPDEST DUP5 DUP4 PUSH1 0x2 ADD SLOAD DUP5 PUSH1 0x3 ADD SLOAD PUSH1 0x40 MLOAD PUSH2 0xC76 SWAP5 SWAP4 SWAP3 SWAP2 SWAP1 PUSH2 0x14F3 JUMP JUMPDEST PUSH1 0x40 MLOAD DUP1 SWAP2 SUB SWAP1 LOG1 POP POP POP POP JUMP JUMPDEST PUSH1 0x0 DUP1 PUSH1 0x0 SWAP1 SLOAD SWAP1 PUSH2 0x100 EXP SWAP1 DIV PUSH20 0xFFFFFFFFFFFFFFFFFFFFFFFFFFFFFFFFFFFFFFFF AND SWAP1 POP SWAP1 JUMP JUMPDEST PUSH2 0xCB5 PUSH2 0xFBE JUMP JUMPDEST PUSH20 0xFFFFFFFFFFFFFFFFFFFFFFFFFFFFFFFFFFFFFFFF AND PUSH2 0xCD3 PUSH2 0xC84 JUMP JUMPDEST PUSH20 0xFFFFFFFFFFFFFFFFFFFFFFFFFFFFFFFFFFFFFFFF AND EQ PUSH2 0xD29 JUMPI PUSH1 0x40 MLOAD PUSH32 0x8C379A000000000000000000000000000000000000000000000000000000000 DUP2 MSTORE PUSH1 0x4 ADD PUSH2 0xD20 SWAP1 PUSH2 0x164E JUMP JUMPDEST PUSH1 0x40 MLOAD DUP1 SWAP2 SUB SWAP1 REVERT JUMPDEST PUSH1 0x0 DUP2 GT PUSH2 0xD6C JUMPI PUSH1 0x40 MLOAD PUSH32 0x8C379A000000000000000000000000000000000000000000000000000000000 DUP2 MSTORE PUSH1 0x4 ADD PUSH2 0xD63 SWAP1 PUSH2 0x16EE JUMP JUMPDEST PUSH1 0x40 MLOAD DUP1 SWAP2 SUB SWAP1 REVERT JUMPDEST PUSH1 0x0 PUSH1 0x2 PUSH1 0x0 DUP4 DUP2 MSTORE PUSH1 0x20 ADD SWAP1 DUP2 MSTORE PUSH1 0x20 ADD PUSH1 0x0 KECCAK256 SWAP1 POP PUSH1 0x0 DUP2 PUSH1 0x0 ADD SLOAD GT PUSH2 0xDCA JUMPI PUSH1 0x40 MLOAD PUSH32 0x8C379A000000000000000000000000000000000000000000000000000000000 DUP2 MSTORE PUSH1 0x4 ADD PUSH2 0xDC1 SWAP1 PUSH2 0x160E JUMP JUMPDEST PUSH1 0x40 MLOAD DUP1 SWAP2 SUB SWAP1 REVERT JUMPDEST PUSH1 0x0 ISZERO ISZERO DUP2 PUSH1 0x4 ADD PUSH1 0x0 SWAP1 SLOAD SWAP1 PUSH2 0x100 EXP SWAP1 DIV PUSH1 0xFF AND ISZERO ISZERO EQ PUSH2 0xE22 JUMPI PUSH1 0x40 MLOAD PUSH32 0x8C379A000000000000000000000000000000000000000000000000000000000 DUP2 MSTORE PUSH1 0x4 ADD PUSH2 0xE19 SWAP1 PUSH2 0x166E JUMP JUMPDEST PUSH1 0x40 MLOAD DUP1 SWAP2 SUB SWAP1 REVERT JUMPDEST PUSH1 0x1 DUP2 PUSH1 0x4 ADD PUSH1 0x0 PUSH2 0x100 EXP DUP2 SLOAD DUP2 PUSH1 0xFF MUL NOT AND SWAP1 DUP4 ISZERO ISZERO MUL OR SWAP1 SSTORE POP POP POP JUMP JUMPDEST PUSH32 0x0 DUP2 JUMP JUMPDEST PUSH1 0x0 PUSH3 0x15180 PUSH2 0x16D PUSH1 0x2 PUSH1 0x0 DUP6 DUP2 MSTORE PUSH1 0x20 ADD SWAP1 DUP2 MSTORE PUSH1 0x20 ADD PUSH1 0x0 KECCAK256 PUSH1 0x0 ADD SLOAD PUSH2 0xE91 SWAP2 SWAP1 PUSH2 0x19EA JUMP JUMPDEST PUSH2 0xE9B SWAP2 SWAP1 PUSH2 0x19EA JUMP JUMPDEST SWAP1 POP SWAP2 SWAP1 POP JUMP JUMPDEST PUSH2 0xEAA PUSH2 0xFBE JUMP JUMPDEST PUSH20 0xFFFFFFFFFFFFFFFFFFFFFFFFFFFFFFFFFFFFFFFF AND PUSH2 0xEC8 PUSH2 0xC84 JUMP JUMPDEST PUSH20 0xFFFFFFFFFFFFFFFFFFFFFFFFFFFFFFFFFFFFFFFF AND EQ PUSH2 0xF1E JUMPI PUSH1 0x40 MLOAD PUSH32 0x8C379A000000000000000000000000000000000000000000000000000000000 DUP2 MSTORE PUSH1 0x4 ADD PUSH2 0xF15 SWAP1 PUSH2 0x164E JUMP JUMPDEST PUSH1 0x40 MLOAD DUP1 SWAP2 SUB SWAP1 REVERT JUMPDEST PUSH1 0x0 PUSH20 0xFFFFFFFFFFFFFFFFFFFFFFFFFFFFFFFFFFFFFFFF AND DUP2 PUSH20 0xFFFFFFFFFFFFFFFFFFFFFFFFFFFFFFFFFFFFFFFF AND EQ ISZERO PUSH2 0xF8E JUMPI PUSH1 0x40 MLOAD PUSH32 0x8C379A000000000000000000000000000000000000000000000000000000000 DUP2 MSTORE PUSH1 0x4 ADD PUSH2 0xF85 SWAP1 PUSH2 0x158E JUMP JUMPDEST PUSH1 0x40 MLOAD DUP1 SWAP2 SUB SWAP1 REVERT JUMPDEST PUSH2 0xF97 DUP2 PUSH2 0xFEA JUMP JUMPDEST POP JUMP JUMPDEST PUSH32 0x0 DUP2 JUMP JUMPDEST PUSH1 0x0 CALLER SWAP1 POP SWAP1 JUMP JUMPDEST PUSH1 0x1 DUP2 PUSH1 0x0 ADD PUSH1 0x0 DUP3 DUP3 SLOAD ADD SWAP3 POP POP DUP2 SWAP1 SSTORE POP POP JUMP JUMPDEST PUSH1 0x0 DUP2 PUSH1 0x0 ADD SLOAD SWAP1 POP SWAP2 SWAP1 POP JUMP JUMPDEST PUSH1 0x0 DUP1 PUSH1 0x0 SWAP1 SLOAD SWAP1 PUSH2 0x100 EXP SWAP1 DIV PUSH20 0xFFFFFFFFFFFFFFFFFFFFFFFFFFFFFFFFFFFFFFFF AND SWAP1 POP DUP2 PUSH1 0x0 DUP1 PUSH2 0x100 EXP DUP2 SLOAD DUP2 PUSH20 0xFFFFFFFFFFFFFFFFFFFFFFFFFFFFFFFFFFFFFFFF MUL NOT AND SWAP1 DUP4 PUSH20 0xFFFFFFFFFFFFFFFFFFFFFFFFFFFFFFFFFFFFFFFF AND MUL OR SWAP1 SSTORE POP DUP2 PUSH20 0xFFFFFFFFFFFFFFFFFFFFFFFFFFFFFFFFFFFFFFFF AND DUP2 PUSH20 0xFFFFFFFFFFFFFFFFFFFFFFFFFFFFFFFFFFFFFFFF AND PUSH32 0x8BE0079C531659141344CD1FD0A4F28419497F9722A3DAAFE3B4186F6B6457E0 PUSH1 0x40 MLOAD PUSH1 0x40 MLOAD DUP1 SWAP2 SUB SWAP1 LOG3 POP POP JUMP JUMPDEST PUSH1 0x0 DUP2 CALLDATALOAD SWAP1 POP PUSH2 0x10BD DUP2 PUSH2 0x1F2D JUMP JUMPDEST SWAP3 SWAP2 POP POP JUMP JUMPDEST PUSH1 0x0 DUP2 MLOAD SWAP1 POP PUSH2 0x10D2 DUP2 PUSH2 0x1F44 JUMP JUMPDEST SWAP3 SWAP2 POP POP JUMP JUMPDEST PUSH1 0x0 DUP2 CALLDATALOAD SWAP1 POP PUSH2 0x10E7 DUP2 PUSH2 0x1F5B JUMP JUMPDEST SWAP3 SWAP2 POP POP JUMP JUMPDEST PUSH1 0x0 PUSH1 0x20 DUP3 DUP5 SUB SLT ISZERO PUSH2 0x10FF JUMPI PUSH1 0x0 DUP1 REVERT JUMPDEST PUSH1 0x0 PUSH2 0x110D DUP5 DUP3 DUP6 ADD PUSH2 0x10AE JUMP JUMPDEST SWAP2 POP POP SWAP3 SWAP2 POP POP JUMP JUMPDEST PUSH1 0x0 DUP1 PUSH1 0x40 DUP4 DUP6 SUB SLT ISZERO PUSH2 0x1129 JUMPI PUSH1 0x0 DUP1 REVERT JUMPDEST PUSH1 0x0 PUSH2 0x1137 DUP6 DUP3 DUP7 ADD PUSH2 0x10AE JUMP JUMPDEST SWAP3 POP POP PUSH1 0x20 PUSH2 0x1148 DUP6 DUP3 DUP7 ADD PUSH2 0x10D8 JUMP JUMPDEST SWAP2 POP POP SWAP3 POP SWAP3 SWAP1 POP JUMP JUMPDEST PUSH1 0x0 PUSH1 0x20 DUP3 DUP5 SUB SLT ISZERO PUSH2 0x1164 JUMPI PUSH1 0x0 DUP1 REVERT JUMPDEST PUSH1 0x0 PUSH2 0x1172 DUP5 DUP3 DUP6 ADD PUSH2 0x10C3 JUMP JUMPDEST SWAP2 POP POP SWAP3 SWAP2 POP POP JUMP JUMPDEST PUSH1 0x0 PUSH1 0x20 DUP3 DUP5 SUB SLT ISZERO PUSH2 0x118D JUMPI PUSH1 0x0 DUP1 REVERT JUMPDEST PUSH1 0x0 PUSH2 0x119B DUP5 DUP3 DUP6 ADD PUSH2 0x10D8 JUMP JUMPDEST SWAP2 POP POP SWAP3 SWAP2 POP POP JUMP JUMPDEST PUSH1 0x0 DUP1 PUSH1 0x40 DUP4 DUP6 SUB SLT ISZERO PUSH2 0x11B7 JUMPI PUSH1 0x0 DUP1 REVERT JUMPDEST PUSH1 0x0 PUSH2 0x11C5 DUP6 DUP3 DUP7 ADD PUSH2 0x10D8 JUMP JUMPDEST SWAP3 POP POP PUSH1 0x20 PUSH2 0x11D6 DUP6 DUP3 DUP7 ADD PUSH2 0x10D8 JUMP JUMPDEST SWAP2 POP POP SWAP3 POP SWAP3 SWAP1 POP JUMP JUMPDEST PUSH1 0x0 DUP1 PUSH1 0x0 DUP1 PUSH1 0x80 DUP6 DUP8 SUB SLT ISZERO PUSH2 0x11F6 JUMPI PUSH1 0x0 DUP1 REVERT JUMPDEST PUSH1 0x0 PUSH2 0x1204 DUP8 DUP3 DUP9 ADD PUSH2 0x10D8 JUMP JUMPDEST SWAP5 POP POP PUSH1 0x20 PUSH2 0x1215 DUP8 DUP3 DUP9 ADD PUSH2 0x10D8 JUMP JUMPDEST SWAP4 POP POP PUSH1 0x40 PUSH2 0x1226 DUP8 DUP3 DUP9 ADD PUSH2 0x10D8 JUMP JUMPDEST SWAP3 POP POP PUSH1 0x60 PUSH2 0x1237 DUP8 DUP3 DUP9 ADD PUSH2 0x10D8 JUMP JUMPDEST SWAP2 POP POP SWAP3 SWAP6 SWAP2 SWAP5 POP SWAP3 POP JUMP JUMPDEST PUSH2 0x124C DUP2 PUSH2 0x1A78 JUMP JUMPDEST DUP3 MSTORE POP POP JUMP JUMPDEST PUSH2 0x125B DUP2 PUSH2 0x1A8A JUMP JUMPDEST DUP3 MSTORE POP POP JUMP JUMPDEST PUSH2 0x126A DUP2 PUSH2 0x1AC0 JUMP JUMPDEST DUP3 MSTORE POP POP JUMP JUMPDEST PUSH2 0x1279 DUP2 PUSH2 0x1AE4 JUMP JUMPDEST DUP3 MSTORE POP POP JUMP JUMPDEST PUSH1 0x0 PUSH2 0x128C PUSH1 0x2F DUP4 PUSH2 0x17E1 JUMP JUMPDEST SWAP2 POP PUSH2 0x1297 DUP3 PUSH2 0x1B73 JUMP JUMPDEST PUSH1 0x40 DUP3 ADD SWAP1 POP SWAP2 SWAP1 POP JUMP JUMPDEST PUSH1 0x0 PUSH2 0x12AF PUSH1 0x26 DUP4 PUSH2 0x17E1 JUMP JUMPDEST SWAP2 POP PUSH2 0x12BA DUP3 PUSH2 0x1BC2 JUMP JUMPDEST PUSH1 0x40 DUP3 ADD SWAP1 POP SWAP2 SWAP1 POP JUMP JUMPDEST PUSH1 0x0 PUSH2 0x12D2 PUSH1 0x26 DUP4 PUSH2 0x17E1 JUMP JUMPDEST SWAP2 POP PUSH2 0x12DD DUP3 PUSH2 0x1C11 JUMP JUMPDEST PUSH1 0x40 DUP3 ADD SWAP1 POP SWAP2 SWAP1 POP JUMP JUMPDEST PUSH1 0x0 PUSH2 0x12F5 PUSH1 0x1A DUP4 PUSH2 0x17E1 JUMP JUMPDEST SWAP2 POP PUSH2 0x1300 DUP3 PUSH2 0x1C60 JUMP JUMPDEST PUSH1 0x20 DUP3 ADD SWAP1 POP SWAP2 SWAP1 POP JUMP JUMPDEST PUSH1 0x0 PUSH2 0x1318 PUSH1 0x24 DUP4 PUSH2 0x17E1 JUMP JUMPDEST SWAP2 POP PUSH2 0x1323 DUP3 PUSH2 0x1C89 JUMP JUMPDEST PUSH1 0x40 DUP3 ADD SWAP1 POP SWAP2 SWAP1 POP JUMP JUMPDEST PUSH1 0x0 PUSH2 0x133B PUSH1 0x22 DUP4 PUSH2 0x17E1 JUMP JUMPDEST SWAP2 POP PUSH2 0x1346 DUP3 PUSH2 0x1CD8 JUMP JUMPDEST PUSH1 0x40 DUP3 ADD SWAP1 POP SWAP2 SWAP1 POP JUMP JUMPDEST PUSH1 0x0 PUSH2 0x135E PUSH1 0x1C DUP4 PUSH2 0x17E1 JUMP JUMPDEST SWAP2 POP PUSH2 0x1369 DUP3 PUSH2 0x1D27 JUMP JUMPDEST PUSH1 0x20 DUP3 ADD SWAP1 POP SWAP2 SWAP1 POP JUMP JUMPDEST PUSH1 0x0 PUSH2 0x1381 PUSH1 0x20 DUP4 PUSH2 0x17E1 JUMP JUMPDEST SWAP2 POP PUSH2 0x138C DUP3 PUSH2 0x1D50 JUMP JUMPDEST PUSH1 0x20 DUP3 ADD SWAP1 POP SWAP2 SWAP1 POP JUMP JUMPDEST PUSH1 0x0 PUSH2 0x13A4 PUSH1 0x26 DUP4 PUSH2 0x17E1 JUMP JUMPDEST SWAP2 POP PUSH2 0x13AF DUP3 PUSH2 0x1D79 JUMP JUMPDEST PUSH1 0x40 DUP3 ADD SWAP1 POP SWAP2 SWAP1 POP JUMP JUMPDEST PUSH1 0x0 PUSH2 0x13C7 PUSH1 0x24 DUP4 PUSH2 0x17E1 JUMP JUMPDEST SWAP2 POP PUSH2 0x13D2 DUP3 PUSH2 0x1DC8 JUMP JUMPDEST PUSH1 0x40 DUP3 ADD SWAP1 POP SWAP2 SWAP1 POP JUMP JUMPDEST PUSH1 0x0 PUSH2 0x13EA PUSH1 0x2A DUP4 PUSH2 0x17E1 JUMP JUMPDEST SWAP2 POP PUSH2 0x13F5 DUP3 PUSH2 0x1E17 JUMP JUMPDEST PUSH1 0x40 DUP3 ADD SWAP1 POP SWAP2 SWAP1 POP JUMP JUMPDEST PUSH1 0x0 PUSH2 0x140D PUSH1 0x28 DUP4 PUSH2 0x17E1 JUMP JUMPDEST SWAP2 POP PUSH2 0x1418 DUP3 PUSH2 0x1E66 JUMP JUMPDEST PUSH1 0x40 DUP3 ADD SWAP1 POP SWAP2 SWAP1 POP JUMP JUMPDEST PUSH1 0x0 PUSH2 0x1430 PUSH1 0x29 DUP4 PUSH2 0x17E1 JUMP JUMPDEST SWAP2 POP PUSH2 0x143B DUP3 PUSH2 0x1EB5 JUMP JUMPDEST PUSH1 0x40 DUP3 ADD SWAP1 POP SWAP2 SWAP1 POP JUMP JUMPDEST PUSH1 0x0 PUSH2 0x1453 PUSH1 0x20 DUP4 PUSH2 0x17E1 JUMP JUMPDEST SWAP2 POP PUSH2 0x145E DUP3 PUSH2 0x1F04 JUMP JUMPDEST PUSH1 0x20 DUP3 ADD SWAP1 POP SWAP2 SWAP1 POP JUMP JUMPDEST PUSH2 0x1472 DUP2 PUSH2 0x1AB6 JUMP JUMPDEST DUP3 MSTORE POP POP JUMP JUMPDEST PUSH1 0x0 PUSH1 0x20 DUP3 ADD SWAP1 POP PUSH2 0x148D PUSH1 0x0 DUP4 ADD DUP5 PUSH2 0x1243 JUMP JUMPDEST SWAP3 SWAP2 POP POP JUMP JUMPDEST PUSH1 0x0 PUSH1 0x60 DUP3 ADD SWAP1 POP PUSH2 0x14A8 PUSH1 0x0 DUP4 ADD DUP7 PUSH2 0x1243 JUMP JUMPDEST PUSH2 0x14B5 PUSH1 0x20 DUP4 ADD DUP6 PUSH2 0x1243 JUMP JUMPDEST PUSH2 0x14C2 PUSH1 0x40 DUP4 ADD DUP5 PUSH2 0x1469 JUMP JUMPDEST SWAP5 SWAP4 POP POP POP POP JUMP JUMPDEST PUSH1 0x0 PUSH1 0x40 DUP3 ADD SWAP1 POP PUSH2 0x14DF PUSH1 0x0 DUP4 ADD DUP6 PUSH2 0x1243 JUMP JUMPDEST PUSH2 0x14EC PUSH1 0x20 DUP4 ADD DUP5 PUSH2 0x1469 JUMP JUMPDEST SWAP4 SWAP3 POP POP POP JUMP JUMPDEST PUSH1 0x0 PUSH1 0x80 DUP3 ADD SWAP1 POP PUSH2 0x1508 PUSH1 0x0 DUP4 ADD DUP8 PUSH2 0x1243 JUMP JUMPDEST PUSH2 0x1515 PUSH1 0x20 DUP4 ADD DUP7 PUSH2 0x1469 JUMP JUMPDEST PUSH2 0x1522 PUSH1 0x40 DUP4 ADD DUP6 PUSH2 0x1469 JUMP JUMPDEST PUSH2 0x152F PUSH1 0x60 DUP4 ADD DUP5 PUSH2 0x1469 JUMP JUMPDEST SWAP6 SWAP5 POP POP POP POP POP JUMP JUMPDEST PUSH1 0x0 PUSH1 0x20 DUP3 ADD SWAP1 POP PUSH2 0x154D PUSH1 0x0 DUP4 ADD DUP5 PUSH2 0x1261 JUMP JUMPDEST SWAP3 SWAP2 POP POP JUMP JUMPDEST PUSH1 0x0 PUSH1 0x20 DUP3 ADD SWAP1 POP PUSH2 0x1568 PUSH1 0x0 DUP4 ADD DUP5 PUSH2 0x1270 JUMP JUMPDEST SWAP3 SWAP2 POP POP JUMP JUMPDEST PUSH1 0x0 PUSH1 0x20 DUP3 ADD SWAP1 POP DUP2 DUP2 SUB PUSH1 0x0 DUP4 ADD MSTORE PUSH2 0x1587 DUP2 PUSH2 0x127F JUMP JUMPDEST SWAP1 POP SWAP2 SWAP1 POP JUMP JUMPDEST PUSH1 0x0 PUSH1 0x20 DUP3 ADD SWAP1 POP DUP2 DUP2 SUB PUSH1 0x0 DUP4 ADD MSTORE PUSH2 0x15A7 DUP2 PUSH2 0x12A2 JUMP JUMPDEST SWAP1 POP SWAP2 SWAP1 POP JUMP JUMPDEST PUSH1 0x0 PUSH1 0x20 DUP3 ADD SWAP1 POP DUP2 DUP2 SUB PUSH1 0x0 DUP4 ADD MSTORE PUSH2 0x15C7 DUP2 PUSH2 0x12C5 JUMP JUMPDEST SWAP1 POP SWAP2 SWAP1 POP JUMP JUMPDEST PUSH1 0x0 PUSH1 0x20 DUP3 ADD SWAP1 POP DUP2 DUP2 SUB PUSH1 0x0 DUP4 ADD MSTORE PUSH2 0x15E7 DUP2 PUSH2 0x12E8 JUMP JUMPDEST SWAP1 POP SWAP2 SWAP1 POP JUMP JUMPDEST PUSH1 0x0 PUSH1 0x20 DUP3 ADD SWAP1 POP DUP2 DUP2 SUB PUSH1 0x0 DUP4 ADD MSTORE PUSH2 0x1607 DUP2 PUSH2 0x130B JUMP JUMPDEST SWAP1 POP SWAP2 SWAP1 POP JUMP JUMPDEST PUSH1 0x0 PUSH1 0x20 DUP3 ADD SWAP1 POP DUP2 DUP2 SUB PUSH1 0x0 DUP4 ADD MSTORE PUSH2 0x1627 DUP2 PUSH2 0x132E JUMP JUMPDEST SWAP1 POP SWAP2 SWAP1 POP JUMP JUMPDEST PUSH1 0x0 PUSH1 0x20 DUP3 ADD SWAP1 POP DUP2 DUP2 SUB PUSH1 0x0 DUP4 ADD MSTORE PUSH2 0x1647 DUP2 PUSH2 0x1351 JUMP JUMPDEST SWAP1 POP SWAP2 SWAP1 POP JUMP JUMPDEST PUSH1 0x0 PUSH1 0x20 DUP3 ADD SWAP1 POP DUP2 DUP2 SUB PUSH1 0x0 DUP4 ADD MSTORE PUSH2 0x1667 DUP2 PUSH2 0x1374 JUMP JUMPDEST SWAP1 POP SWAP2 SWAP1 POP JUMP JUMPDEST PUSH1 0x0 PUSH1 0x20 DUP3 ADD SWAP1 POP DUP2 DUP2 SUB PUSH1 0x0 DUP4 ADD MSTORE PUSH2 0x1687 DUP2 PUSH2 0x1397 JUMP JUMPDEST SWAP1 POP SWAP2 SWAP1 POP JUMP JUMPDEST PUSH1 0x0 PUSH1 0x20 DUP3 ADD SWAP1 POP DUP2 DUP2 SUB PUSH1 0x0 DUP4 ADD MSTORE PUSH2 0x16A7 DUP2 PUSH2 0x13BA JUMP JUMPDEST SWAP1 POP SWAP2 SWAP1 POP JUMP JUMPDEST PUSH1 0x0 PUSH1 0x20 DUP3 ADD SWAP1 POP DUP2 DUP2 SUB PUSH1 0x0 DUP4 ADD MSTORE PUSH2 0x16C7 DUP2 PUSH2 0x13DD JUMP JUMPDEST SWAP1 POP SWAP2 SWAP1 POP JUMP JUMPDEST PUSH1 0x0 PUSH1 0x20 DUP3 ADD SWAP1 POP DUP2 DUP2 SUB PUSH1 0x0 DUP4 ADD MSTORE PUSH2 0x16E7 DUP2 PUSH2 0x1400 JUMP JUMPDEST SWAP1 POP SWAP2 SWAP1 POP JUMP JUMPDEST PUSH1 0x0 PUSH1 0x20 DUP3 ADD SWAP1 POP DUP2 DUP2 SUB PUSH1 0x0 DUP4 ADD MSTORE PUSH2 0x1707 DUP2 PUSH2 0x1423 JUMP JUMPDEST SWAP1 POP SWAP2 SWAP1 POP JUMP JUMPDEST PUSH1 0x0 PUSH1 0x20 DUP3 ADD SWAP1 POP DUP2 DUP2 SUB PUSH1 0x0 DUP4 ADD MSTORE PUSH2 0x1727 DUP2 PUSH2 0x1446 JUMP JUMPDEST SWAP1 POP SWAP2 SWAP1 POP JUMP JUMPDEST PUSH1 0x0 PUSH1 0x20 DUP3 ADD SWAP1 POP PUSH2 0x1743 PUSH1 0x0 DUP4 ADD DUP5 PUSH2 0x1469 JUMP JUMPDEST SWAP3 SWAP2 POP POP JUMP JUMPDEST PUSH1 0x0 PUSH1 0x80 DUP3 ADD SWAP1 POP PUSH2 0x175E PUSH1 0x0 DUP4 ADD DUP8 PUSH2 0x1469 JUMP JUMPDEST PUSH2 0x176B PUSH1 0x20 DUP4 ADD DUP7 PUSH2 0x1469 JUMP JUMPDEST PUSH2 0x1778 PUSH1 0x40 DUP4 ADD DUP6 PUSH2 0x1469 JUMP JUMPDEST PUSH2 0x1785 PUSH1 0x60 DUP4 ADD DUP5 PUSH2 0x1469 JUMP JUMPDEST SWAP6 SWAP5 POP POP POP POP POP JUMP JUMPDEST PUSH1 0x0 PUSH1 0xA0 DUP3 ADD SWAP1 POP PUSH2 0x17A3 PUSH1 0x0 DUP4 ADD DUP9 PUSH2 0x1469 JUMP JUMPDEST PUSH2 0x17B0 PUSH1 0x20 DUP4 ADD DUP8 PUSH2 0x1469 JUMP JUMPDEST PUSH2 0x17BD PUSH1 0x40 DUP4 ADD DUP7 PUSH2 0x1469 JUMP JUMPDEST PUSH2 0x17CA PUSH1 0x60 DUP4 ADD DUP6 PUSH2 0x1469 JUMP JUMPDEST PUSH2 0x17D7 PUSH1 0x80 DUP4 ADD DUP5 PUSH2 0x1252 JUMP JUMPDEST SWAP7 SWAP6 POP POP POP POP POP POP JUMP JUMPDEST PUSH1 0x0 DUP3 DUP3 MSTORE PUSH1 0x20 DUP3 ADD SWAP1 POP SWAP3 SWAP2 POP POP JUMP JUMPDEST PUSH1 0x0 PUSH2 0x17FD DUP3 PUSH2 0x1AB6 JUMP JUMPDEST SWAP2 POP PUSH2 0x1808 DUP4 PUSH2 0x1AB6 JUMP JUMPDEST SWAP3 POP DUP3 PUSH32 0xFFFFFFFFFFFFFFFFFFFFFFFFFFFFFFFFFFFFFFFFFFFFFFFFFFFFFFFFFFFFFFFF SUB DUP3 GT ISZERO PUSH2 0x183D JUMPI PUSH2 0x183C PUSH2 0x1B08 JUMP JUMPDEST JUMPDEST DUP3 DUP3 ADD SWAP1 POP SWAP3 SWAP2 POP POP JUMP JUMPDEST PUSH1 0x0 PUSH2 0x1853 DUP3 PUSH2 0x1AB6 JUMP JUMPDEST SWAP2 POP PUSH2 0x185E DUP4 PUSH2 0x1AB6 JUMP JUMPDEST SWAP3 POP DUP3 PUSH2 0x186E JUMPI PUSH2 0x186D PUSH2 0x1B37 JUMP JUMPDEST JUMPDEST DUP3 DUP3 DIV SWAP1 POP SWAP3 SWAP2 POP POP JUMP JUMPDEST PUSH1 0x0 DUP1 DUP3 SWAP2 POP DUP4 SWAP1 POP JUMPDEST PUSH1 0x1 DUP6 GT ISZERO PUSH2 0x18C3 JUMPI DUP1 DUP7 DIV DUP2 GT ISZERO PUSH2 0x189F JUMPI PUSH2 0x189E PUSH2 0x1B08 JUMP JUMPDEST JUMPDEST PUSH1 0x1 DUP6 AND ISZERO PUSH2 0x18AE JUMPI DUP1 DUP3 MUL SWAP2 POP JUMPDEST DUP1 DUP2 MUL SWAP1 POP PUSH2 0x18BC DUP6 PUSH2 0x1B66 JUMP JUMPDEST SWAP5 POP PUSH2 0x1883 JUMP JUMPDEST SWAP5 POP SWAP5 SWAP3 POP POP POP JUMP JUMPDEST PUSH1 0x0 PUSH2 0x18D7 DUP3 PUSH2 0x1AB6 JUMP JUMPDEST SWAP2 POP PUSH2 0x18E2 DUP4 PUSH2 0x1AB6 JUMP JUMPDEST SWAP3 POP PUSH2 0x190F PUSH32 0xFFFFFFFFFFFFFFFFFFFFFFFFFFFFFFFFFFFFFFFFFFFFFFFFFFFFFFFFFFFFFFFF DUP5 DUP5 PUSH2 0x1917 JUMP JUMPDEST SWAP1 POP SWAP3 SWAP2 POP POP JUMP JUMPDEST PUSH1 0x0 DUP3 PUSH2 0x1927 JUMPI PUSH1 0x1 SWAP1 POP PUSH2 0x19E3 JUMP JUMPDEST DUP2 PUSH2 0x1935 JUMPI PUSH1 0x0 SWAP1 POP PUSH2 0x19E3 JUMP JUMPDEST DUP2 PUSH1 0x1 DUP2 EQ PUSH2 0x194B JUMPI PUSH1 0x2 DUP2 EQ PUSH2 0x1955 JUMPI PUSH2 0x1984 JUMP JUMPDEST PUSH1 0x1 SWAP2 POP POP PUSH2 0x19E3 JUMP JUMPDEST PUSH1 0xFF DUP5 GT ISZERO PUSH2 0x1967 JUMPI PUSH2 0x1966 PUSH2 0x1B08 JUMP JUMPDEST JUMPDEST DUP4 PUSH1 0x2 EXP SWAP2 POP DUP5 DUP3 GT ISZERO PUSH2 0x197E JUMPI PUSH2 0x197D PUSH2 0x1B08 JUMP JUMPDEST JUMPDEST POP PUSH2 0x19E3 JUMP JUMPDEST POP PUSH1 0x20 DUP4 LT PUSH2 0x133 DUP4 LT AND PUSH1 0x4E DUP5 LT PUSH1 0xB DUP5 LT AND OR ISZERO PUSH2 0x19B9 JUMPI DUP3 DUP3 EXP SWAP1 POP DUP4 DUP2 GT ISZERO PUSH2 0x19B4 JUMPI PUSH2 0x19B3 PUSH2 0x1B08 JUMP JUMPDEST JUMPDEST PUSH2 0x19E3 JUMP JUMPDEST PUSH2 0x19C6 DUP5 DUP5 DUP5 PUSH1 0x1 PUSH2 0x1879 JUMP JUMPDEST SWAP3 POP SWAP1 POP DUP2 DUP5 DIV DUP2 GT ISZERO PUSH2 0x19DD JUMPI PUSH2 0x19DC PUSH2 0x1B08 JUMP JUMPDEST JUMPDEST DUP2 DUP2 MUL SWAP1 POP JUMPDEST SWAP4 SWAP3 POP POP POP JUMP JUMPDEST PUSH1 0x0 PUSH2 0x19F5 DUP3 PUSH2 0x1AB6 JUMP JUMPDEST SWAP2 POP PUSH2 0x1A00 DUP4 PUSH2 0x1AB6 JUMP JUMPDEST SWAP3 POP DUP2 PUSH32 0xFFFFFFFFFFFFFFFFFFFFFFFFFFFFFFFFFFFFFFFFFFFFFFFFFFFFFFFFFFFFFFFF DIV DUP4 GT DUP3 ISZERO ISZERO AND ISZERO PUSH2 0x1A39 JUMPI PUSH2 0x1A38 PUSH2 0x1B08 JUMP JUMPDEST JUMPDEST DUP3 DUP3 MUL SWAP1 POP SWAP3 SWAP2 POP POP JUMP JUMPDEST PUSH1 0x0 PUSH2 0x1A4F DUP3 PUSH2 0x1AB6 JUMP JUMPDEST SWAP2 POP PUSH2 0x1A5A DUP4 PUSH2 0x1AB6 JUMP JUMPDEST SWAP3 POP DUP3 DUP3 LT ISZERO PUSH2 0x1A6D JUMPI PUSH2 0x1A6C PUSH2 0x1B08 JUMP JUMPDEST JUMPDEST DUP3 DUP3 SUB SWAP1 POP SWAP3 SWAP2 POP POP JUMP JUMPDEST PUSH1 0x0 PUSH2 0x1A83 DUP3 PUSH2 0x1A96 JUMP JUMPDEST SWAP1 POP SWAP2 SWAP1 POP JUMP JUMPDEST PUSH1 0x0 DUP2 ISZERO ISZERO SWAP1 POP SWAP2 SWAP1 POP JUMP JUMPDEST PUSH1 0x0 PUSH20 0xFFFFFFFFFFFFFFFFFFFFFFFFFFFFFFFFFFFFFFFF DUP3 AND SWAP1 POP SWAP2 SWAP1 POP JUMP JUMPDEST PUSH1 0x0 DUP2 SWAP1 POP SWAP2 SWAP1 POP JUMP JUMPDEST PUSH1 0x0 PUSH2 0x1ACB DUP3 PUSH2 0x1AD2 JUMP JUMPDEST SWAP1 POP SWAP2 SWAP1 POP JUMP JUMPDEST PUSH1 0x0 PUSH2 0x1ADD DUP3 PUSH2 0x1A96 JUMP JUMPDEST SWAP1 POP SWAP2 SWAP1 POP JUMP JUMPDEST PUSH1 0x0 PUSH2 0x1AEF DUP3 PUSH2 0x1AF6 JUMP JUMPDEST SWAP1 POP SWAP2 SWAP1 POP JUMP JUMPDEST PUSH1 0x0 PUSH2 0x1B01 DUP3 PUSH2 0x1A96 JUMP JUMPDEST SWAP1 POP SWAP2 SWAP1 POP JUMP JUMPDEST PUSH32 0x4E487B7100000000000000000000000000000000000000000000000000000000 PUSH1 0x0 MSTORE PUSH1 0x11 PUSH1 0x4 MSTORE PUSH1 0x24 PUSH1 0x0 REVERT JUMPDEST PUSH32 0x4E487B7100000000000000000000000000000000000000000000000000000000 PUSH1 0x0 MSTORE PUSH1 0x12 PUSH1 0x4 MSTORE PUSH1 0x24 PUSH1 0x0 REVERT JUMPDEST PUSH1 0x0 DUP2 PUSH1 0x1 SHR SWAP1 POP SWAP2 SWAP1 POP JUMP JUMPDEST PUSH32 0x5374616B696E673A20616D6F756E745F206D757374206265206C616767657220 PUSH1 0x0 DUP3 ADD MSTORE PUSH32 0x7468616E206D696E5374616B696E670000000000000000000000000000000000 PUSH1 0x20 DUP3 ADD MSTORE POP JUMP JUMPDEST PUSH32 0x4F776E61626C653A206E6577206F776E657220697320746865207A65726F2061 PUSH1 0x0 DUP3 ADD MSTORE PUSH32 0x6464726573730000000000000000000000000000000000000000000000000000 PUSH1 0x20 DUP3 ADD MSTORE POP JUMP JUMPDEST PUSH32 0x5374616B696E673A20616D6F756E745F206D757374206265206C616767657220 PUSH1 0x0 DUP3 ADD MSTORE PUSH32 0x7468616E20300000000000000000000000000000000000000000000000000000 PUSH1 0x20 DUP3 ADD MSTORE POP JUMP JUMPDEST PUSH32 0x5374616B696E673A205374616B696E67206E6F7420666F756E64000000000000 PUSH1 0x0 DUP3 ADD MSTORE POP JUMP JUMPDEST PUSH32 0x5374616B696E673A207061636B61676549645F20686164206265656E2072656D PUSH1 0x0 DUP3 ADD MSTORE PUSH32 0x6F76656400000000000000000000000000000000000000000000000000000000 PUSH1 0x20 DUP3 ADD MSTORE POP JUMP JUMPDEST PUSH32 0x5374616B696E673A205374616B652070616B616765206973206E6F7420657869 PUSH1 0x0 DUP3 ADD MSTORE PUSH32 0x7473000000000000000000000000000000000000000000000000000000000000 PUSH1 0x20 DUP3 ADD MSTORE POP JUMP JUMPDEST PUSH32 0x5374616B696E673A204E6F74207265616368206C6F636B2074696D6500000000 PUSH1 0x0 DUP3 ADD MSTORE POP JUMP JUMPDEST PUSH32 0x4F776E61626C653A2063616C6C6572206973206E6F7420746865206F776E6572 PUSH1 0x0 DUP3 ADD MSTORE POP JUMP JUMPDEST PUSH32 0x5374616B696E673A205374616B652070616B61676520686164206265656E2072 PUSH1 0x0 DUP3 ADD MSTORE PUSH32 0x656D6F7665640000000000000000000000000000000000000000000000000000 PUSH1 0x20 DUP3 ADD MSTORE POP JUMP JUMPDEST PUSH32 0x5374616B696E673A20726174655F206D757374206265206C6167676572207468 PUSH1 0x0 DUP3 ADD MSTORE PUSH32 0x616E203000000000000000000000000000000000000000000000000000000000 PUSH1 0x20 DUP3 ADD MSTORE POP JUMP JUMPDEST PUSH32 0x5374616B696E673A206D696E5374616B696E675F206D757374206265206C6167 PUSH1 0x0 DUP3 ADD MSTORE PUSH32 0x676572207468616E203000000000000000000000000000000000000000000000 PUSH1 0x20 DUP3 ADD MSTORE POP JUMP JUMPDEST PUSH32 0x5374616B696E673A206C6F636B54696D655F206D757374206265206C61676765 PUSH1 0x0 DUP3 ADD MSTORE PUSH32 0x72207468616E2030000000000000000000000000000000000000000000000000 PUSH1 0x20 DUP3 ADD MSTORE POP JUMP JUMPDEST PUSH32 0x5374616B696E673A207061636B61676549645F206D757374206265206C616767 PUSH1 0x0 DUP3 ADD MSTORE PUSH32 0x6572207468616E20300000000000000000000000000000000000000000000000 PUSH1 0x20 DUP3 ADD MSTORE POP JUMP JUMPDEST PUSH32 0x5374616B696E673A207061636B61676549645F206973206E6F74206578697473 PUSH1 0x0 DUP3 ADD MSTORE POP JUMP JUMPDEST PUSH2 0x1F36 DUP2 PUSH2 0x1A78 JUMP JUMPDEST DUP2 EQ PUSH2 0x1F41 JUMPI PUSH1 0x0 DUP1 REVERT JUMPDEST POP JUMP JUMPDEST PUSH2 0x1F4D DUP2 PUSH2 0x1A8A JUMP JUMPDEST DUP2 EQ PUSH2 0x1F58 JUMPI PUSH1 0x0 DUP1 REVERT JUMPDEST POP JUMP JUMPDEST PUSH2 0x1F64 DUP2 PUSH2 0x1AB6 JUMP JUMPDEST DUP2 EQ PUSH2 0x1F6F JUMPI PUSH1 0x0 DUP1 REVERT JUMPDEST POP JUMP INVALID LOG2 PUSH5 0x6970667358 0x22 SLT KECCAK256 SDIV DUP16 0xFB 0x2E PUSH7 0xC6F8D05E1B17A1 STOP EXTCODECOPY PUSH31 0xB3AF442E9D9CF58D374924411945AFB84164736F6C63430008040033000000 "
        },
        "methodIdentifiers": {
          "addStakePackage(uint256,uint256,uint256,uint256)": "6861d530",
          "calculateProfit(uint256)": "5b21ba6f",
          "getAprOfPackage(uint256)": "ea2cb112",
          "gold()": "fbec6f21",
          "owner()": "8da5cb5b",
          "removeStakePackage(uint256)": "b4632b2f",
          "renounceOwnership()": "715018a6",
          "reserve()": "cd3293de",
          "stake(uint256,uint256)": "7b0472f0",
          "stakePackages(uint256)": "09e1f796",
          "stakes(address,uint256)": "584b62a1",
          "transferOwnership(address)": "f2fde38b",
          "unStake(uint256)": "5d3eea91"
        }
      }
    }
  }
}