{
  "_format": "hh-sol-artifact-1",
  "contractName": "Staking",
  "sourceName": "contracts/staking/Staking.sol",
  "abi": [
    {
      "inputs": [
        {
          "internalType": "address",
          "name": "tokenAddr_",
          "type": "address"
        },
        {
          "internalType": "address",
          "name": "reserveAddress_",
          "type": "address"
        }
      ],
      "stateMutability": "nonpayable",
      "type": "constructor"
    },
    {
      "anonymous": false,
      "inputs": [
        {
          "indexed": true,
          "internalType": "address",
          "name": "previousOwner",
          "type": "address"
        },
        {
          "indexed": true,
          "internalType": "address",
          "name": "newOwner",
          "type": "address"
        }
      ],
      "name": "OwnershipTransferred",
      "type": "event"
    },
    {
      "anonymous": false,
      "inputs": [
        {
          "indexed": false,
          "internalType": "address",
          "name": "account",
          "type": "address"
        },
        {
          "indexed": false,
          "internalType": "uint256",
          "name": "packageId",
          "type": "uint256"
        },
        {
          "indexed": false,
          "internalType": "uint256",
          "name": "amount",
          "type": "uint256"
        },
        {
          "indexed": false,
          "internalType": "uint256",
          "name": "totalProfit",
          "type": "uint256"
        }
      ],
      "name": "StakeReleased",
      "type": "event"
    },
    {
      "anonymous": false,
      "inputs": [
        {
          "indexed": false,
          "internalType": "address",
          "name": "account",
          "type": "address"
        },
        {
          "indexed": false,
          "internalType": "uint256",
          "name": "packageId",
          "type": "uint256"
        },
        {
          "indexed": false,
          "internalType": "uint256",
          "name": "amount",
          "type": "uint256"
        },
        {
          "indexed": false,
          "internalType": "uint256",
          "name": "totalProfit",
          "type": "uint256"
        }
      ],
      "name": "StakeUpdate",
      "type": "event"
    },
    {
      "inputs": [
        {
          "internalType": "uint256",
          "name": "rate_",
          "type": "uint256"
        },
        {
          "internalType": "uint256",
          "name": "decimal_",
          "type": "uint256"
        },
        {
          "internalType": "uint256",
          "name": "minStaking_",
          "type": "uint256"
        },
        {
          "internalType": "uint256",
          "name": "lockTime_",
          "type": "uint256"
        }
      ],
      "name": "addStakePackage",
      "outputs": [],
      "stateMutability": "nonpayable",
      "type": "function"
    },
    {
      "inputs": [
        {
          "internalType": "uint256",
          "name": "packageId_",
          "type": "uint256"
        }
      ],
      "name": "calculateProfit",
      "outputs": [
        {
          "internalType": "uint256",
          "name": "",
          "type": "uint256"
        }
      ],
      "stateMutability": "view",
      "type": "function"
    },
    {
      "inputs": [
        {
          "internalType": "uint256",
          "name": "packageId_",
          "type": "uint256"
        }
      ],
      "name": "getAprOfPackage",
      "outputs": [
        {
          "internalType": "uint256",
          "name": "",
          "type": "uint256"
        }
      ],
      "stateMutability": "view",
      "type": "function"
    },
    {
      "inputs": [],
      "name": "gold",
      "outputs": [
        {
          "internalType": "contract IERC20",
          "name": "",
          "type": "address"
        }
      ],
      "stateMutability": "view",
      "type": "function"
    },
    {
      "inputs": [],
      "name": "owner",
      "outputs": [
        {
          "internalType": "address",
          "name": "",
          "type": "address"
        }
      ],
      "stateMutability": "view",
      "type": "function"
    },
    {
      "inputs": [
        {
          "internalType": "uint256",
          "name": "packageId_",
          "type": "uint256"
        }
      ],
      "name": "removeStakePackage",
      "outputs": [],
      "stateMutability": "nonpayable",
      "type": "function"
    },
    {
      "inputs": [],
      "name": "renounceOwnership",
      "outputs": [],
      "stateMutability": "nonpayable",
      "type": "function"
    },
    {
      "inputs": [],
      "name": "reserve",
      "outputs": [
        {
          "internalType": "contract StakingReserve",
          "name": "",
          "type": "address"
        }
      ],
      "stateMutability": "view",
      "type": "function"
    },
    {
      "inputs": [
        {
          "internalType": "uint256",
          "name": "amount_",
          "type": "uint256"
        },
        {
          "internalType": "uint256",
          "name": "packageId_",
          "type": "uint256"
        }
      ],
      "name": "stake",
      "outputs": [],
      "stateMutability": "nonpayable",
      "type": "function"
    },
    {
      "inputs": [
        {
          "internalType": "uint256",
          "name": "",
          "type": "uint256"
        }
      ],
      "name": "stakePackages",
      "outputs": [
        {
          "internalType": "uint256",
          "name": "rate",
          "type": "uint256"
        },
        {
          "internalType": "uint256",
          "name": "decimal",
          "type": "uint256"
        },
        {
          "internalType": "uint256",
          "name": "minStaking",
          "type": "uint256"
        },
        {
          "internalType": "uint256",
          "name": "lockTime",
          "type": "uint256"
        },
        {
          "internalType": "bool",
          "name": "isOffline",
          "type": "bool"
        }
      ],
      "stateMutability": "view",
      "type": "function"
    },
    {
      "inputs": [
        {
          "internalType": "address",
          "name": "",
          "type": "address"
        },
        {
          "internalType": "uint256",
          "name": "",
          "type": "uint256"
        }
      ],
      "name": "stakes",
      "outputs": [
        {
          "internalType": "uint256",
          "name": "startTime",
          "type": "uint256"
        },
        {
          "internalType": "uint256",
          "name": "timePoint",
          "type": "uint256"
        },
        {
          "internalType": "uint256",
          "name": "amount",
          "type": "uint256"
        },
        {
          "internalType": "uint256",
          "name": "totalProfit",
          "type": "uint256"
        }
      ],
      "stateMutability": "view",
      "type": "function"
    },
    {
      "inputs": [
        {
          "internalType": "address",
          "name": "newOwner",
          "type": "address"
        }
      ],
      "name": "transferOwnership",
      "outputs": [],
      "stateMutability": "nonpayable",
      "type": "function"
    },
    {
      "inputs": [
        {
          "internalType": "uint256",
          "name": "packageId_",
          "type": "uint256"
        }
      ],
      "name": "unStake",
      "outputs": [],
      "stateMutability": "nonpayable",
      "type": "function"
    }
  ],
  "bytecode": "0x60c06040523480156200001157600080fd5b5060405162002228380380620022288339818101604052810190620000379190620001b0565b620000576200004b620000cd60201b60201c565b620000d560201b60201c565b8173ffffffffffffffffffffffffffffffffffffffff1660a08173ffffffffffffffffffffffffffffffffffffffff1660601b815250508073ffffffffffffffffffffffffffffffffffffffff1660808173ffffffffffffffffffffffffffffffffffffffff1660601b8152505050506200023f565b600033905090565b60008060009054906101000a900473ffffffffffffffffffffffffffffffffffffffff169050816000806101000a81548173ffffffffffffffffffffffffffffffffffffffff021916908373ffffffffffffffffffffffffffffffffffffffff1602179055508173ffffffffffffffffffffffffffffffffffffffff168173ffffffffffffffffffffffffffffffffffffffff167f8be0079c531659141344cd1fd0a4f28419497f9722a3daafe3b4186f6b6457e060405160405180910390a35050565b600081519050620001aa8162000225565b92915050565b60008060408385031215620001c457600080fd5b6000620001d48582860162000199565b9250506020620001e78582860162000199565b9150509250929050565b6000620001fe8262000205565b9050919050565b600073ffffffffffffffffffffffffffffffffffffffff82169050919050565b6200023081620001f1565b81146200023c57600080fd5b50565b60805160601c60a05160601c611fa86200028060003960008181610a8f0152610f9c0152600081816105b701528181610ad30152610e450152611fa86000f3fe608060405234801561001057600080fd5b50600436106100cf5760003560e01c80637b0472f01161008c578063cd3293de11610066578063cd3293de14610203578063ea2cb11214610221578063f2fde38b14610251578063fbec6f211461026d576100cf565b80637b0472f0146101ad5780638da5cb5b146101c9578063b4632b2f146101e7576100cf565b806309e1f796146100d4578063584b62a1146101085780635b21ba6f1461013b5780635d3eea911461016b5780636861d53014610187578063715018a6146101a3575b600080fd5b6100ee60048036038101906100e9919061117b565b61028b565b6040516100ff95949392919061178e565b60405180910390f35b610122600480360381019061011d9190611116565b6102ce565b6040516101329493929190611749565b60405180910390f35b6101556004803603810190610150919061117b565b61030b565b604051610162919061172e565b60405180910390f35b6101856004803603810190610180919061117b565b61042a565b005b6101a1600480360381019061019c91906111e0565b610697565b005b6101ab610883565b005b6101c760048036038101906101c291906111a4565b61090b565b005b6101d1610c84565b6040516101de9190611478565b60405180910390f35b61020160048036038101906101fc919061117b565b610cad565b005b61020b610e43565b6040516102189190611553565b60405180910390f35b61023b6004803603810190610236919061117b565b610e67565b604051610248919061172e565b60405180910390f35b61026b600480360381019061026691906110ed565b610ea2565b005b610275610f9a565b6040516102829190611538565b60405180910390f35b60026020528060005260406000206000915090508060000154908060010154908060020154908060030154908060040160009054906101000a900460ff16905085565b6003602052816000526040600020602052806000526040600020600091509150508060000154908060010154908060020154908060030154905084565b6000806003600061031a610fbe565b73ffffffffffffffffffffffffffffffffffffffff1673ffffffffffffffffffffffffffffffffffffffff1681526020019081526020016000206000848152602001908152602001600020604051806080016040529081600082015481526020016001820154815260200160028201548152602001600382015481525050905060008160200151426103ac9190611a44565b905060006002600086815260200190815260200160002060010154600a6103d391906118cc565b60026000878152602001908152602001600020600001548460400151846103fa91906119ea565b61040491906119ea565b61040e9190611848565b905080836060015161042091906117f2565b9350505050919050565b6000811161046d576040517f08c379a0000000000000000000000000000000000000000000000000000000008152600401610464906116ee565b60405180910390fd5b60006003600061047b610fbe565b73ffffffffffffffffffffffffffffffffffffffff1673ffffffffffffffffffffffffffffffffffffffff16815260200190815260200160002060008381526020019081526020016000209050600081600201541161050f576040517f08c379a0000000000000000000000000000000000000000000000000000000008152600401610506906115ce565b60405180910390fd5b60026000838152602001908152602001600020600301548160010154426105369190611a44565b1015610577576040517f08c379a000000000000000000000000000000000000000000000000000000000815260040161056e9061162e565b60405180910390fd5b60006105828361030b565b9050600082600201549050600083600201819055506000836000018190555060008360010181905550600083600301819055507f000000000000000000000000000000000000000000000000000000000000000073ffffffffffffffffffffffffffffffffffffffff1663b5e6f0276105f9610fbe565b838561060591906117f2565b6040518363ffffffff1660e01b81526004016106229291906114ca565b600060405180830381600087803b15801561063c57600080fd5b505af1158015610650573d6000803e3d6000fd5b505050507fb44b08bc75983ed4393c66769ca15e60280c5d2c5e828dd1f282a3f0dd7e834b3385838560405161068994939291906114f3565b60405180910390a150505050565b61069f610fbe565b73ffffffffffffffffffffffffffffffffffffffff166106bd610c84565b73ffffffffffffffffffffffffffffffffffffffff1614610713576040517f08c379a000000000000000000000000000000000000000000000000000000000815260040161070a9061164e565b60405180910390fd5b60008411610756576040517f08c379a000000000000000000000000000000000000000000000000000000000815260040161074d9061168e565b60405180910390fd5b60008211610799576040517f08c379a0000000000000000000000000000000000000000000000000000000008152600401610790906116ae565b60405180910390fd5b600081116107dc576040517f08c379a00000000000000000000000000000000000000000000000000000000081526004016107d3906116ce565b60405180910390fd5b6107e66001610fc6565b60006107f26001610fdc565b90506040518060a0016040528086815260200185815260200184815260200183815260200160001515815250600260008381526020019081526020016000206000820151816000015560208201518160010155604082015181600201556060820151816003015560808201518160040160006101000a81548160ff0219169083151502179055509050505050505050565b61088b610fbe565b73ffffffffffffffffffffffffffffffffffffffff166108a9610c84565b73ffffffffffffffffffffffffffffffffffffffff16146108ff576040517f08c379a00000000000000000000000000000000000000000000000000000000081526004016108f69061164e565b60405180910390fd5b6109096000610fea565b565b6000821161094e576040517f08c379a0000000000000000000000000000000000000000000000000000000008152600401610945906115ae565b60405180910390fd5b60008111610991576040517f08c379a0000000000000000000000000000000000000000000000000000000008152600401610988906116ee565b60405180910390fd5b600060026000838152602001908152602001600020905060008160000154116109ef576040517f08c379a00000000000000000000000000000000000000000000000000000000081526004016109e69061170e565b60405180910390fd5b600015158160040160009054906101000a900460ff16151514610a47576040517f08c379a0000000000000000000000000000000000000000000000000000000008152600401610a3e906115ee565b60405180910390fd5b80600201548311610a8d576040517f08c379a0000000000000000000000000000000000000000000000000000000008152600401610a849061156e565b60405180910390fd5b7f000000000000000000000000000000000000000000000000000000000000000073ffffffffffffffffffffffffffffffffffffffff166323b872dd610ad1610fbe565b7f0000000000000000000000000000000000000000000000000000000000000000866040518463ffffffff1660e01b8152600401610b1193929190611493565b602060405180830381600087803b158015610b2b57600080fd5b505af1158015610b3f573d6000803e3d6000fd5b505050506040513d601f19601f82011682018060405250810190610b639190611152565b50600060036000610b72610fbe565b73ffffffffffffffffffffffffffffffffffffffff1673ffffffffffffffffffffffffffffffffffffffff16815260200190815260200160002060008481526020019081526020016000209050600081600201541115610c0c576000610bd78461030b565b905084826002016000828254610bed91906117f2565b9250508190555042826001018190555080826003018190555050610c32565b838160020181905550428160000181905550428160010181905550600081600301819055505b7f6bd50b2adbfd6455ea19dde2d7225e43f70fab44edfbac7ed0748d7d9c3f9059610c5b610fbe565b8483600201548460030154604051610c7694939291906114f3565b60405180910390a150505050565b60008060009054906101000a900473ffffffffffffffffffffffffffffffffffffffff16905090565b610cb5610fbe565b73ffffffffffffffffffffffffffffffffffffffff16610cd3610c84565b73ffffffffffffffffffffffffffffffffffffffff1614610d29576040517f08c379a0000000000000000000000000000000000000000000000000000000008152600401610d209061164e565b60405180910390fd5b60008111610d6c576040517f08c379a0000000000000000000000000000000000000000000000000000000008152600401610d63906116ee565b60405180910390fd5b60006002600083815260200190815260200160002090506000816000015411610dca576040517f08c379a0000000000000000000000000000000000000000000000000000000008152600401610dc19061160e565b60405180910390fd5b600015158160040160009054906101000a900460ff16151514610e22576040517f08c379a0000000000000000000000000000000000000000000000000000000008152600401610e199061166e565b60405180910390fd5b60018160040160006101000a81548160ff0219169083151502179055505050565b7f000000000000000000000000000000000000000000000000000000000000000081565b60006201518061016d6002600085815260200190815260200160002060000154610e9191906119ea565b610e9b91906119ea565b9050919050565b610eaa610fbe565b73ffffffffffffffffffffffffffffffffffffffff16610ec8610c84565b73ffffffffffffffffffffffffffffffffffffffff1614610f1e576040517f08c379a0000000000000000000000000000000000000000000000000000000008152600401610f159061164e565b60405180910390fd5b600073ffffffffffffffffffffffffffffffffffffffff168173ffffffffffffffffffffffffffffffffffffffff161415610f8e576040517f08c379a0000000000000000000000000000000000000000000000000000000008152600401610f859061158e565b60405180910390fd5b610f9781610fea565b50565b7f000000000000000000000000000000000000000000000000000000000000000081565b600033905090565b6001816000016000828254019250508190555050565b600081600001549050919050565b60008060009054906101000a900473ffffffffffffffffffffffffffffffffffffffff169050816000806101000a81548173ffffffffffffffffffffffffffffffffffffffff021916908373ffffffffffffffffffffffffffffffffffffffff1602179055508173ffffffffffffffffffffffffffffffffffffffff168173ffffffffffffffffffffffffffffffffffffffff167f8be0079c531659141344cd1fd0a4f28419497f9722a3daafe3b4186f6b6457e060405160405180910390a35050565b6000813590506110bd81611f2d565b92915050565b6000815190506110d281611f44565b92915050565b6000813590506110e781611f5b565b92915050565b6000602082840312156110ff57600080fd5b600061110d848285016110ae565b91505092915050565b6000806040838503121561112957600080fd5b6000611137858286016110ae565b9250506020611148858286016110d8565b9150509250929050565b60006020828403121561116457600080fd5b6000611172848285016110c3565b91505092915050565b60006020828403121561118d57600080fd5b600061119b848285016110d8565b91505092915050565b600080604083850312156111b757600080fd5b60006111c5858286016110d8565b92505060206111d6858286016110d8565b9150509250929050565b600080600080608085870312156111f657600080fd5b6000611204878288016110d8565b9450506020611215878288016110d8565b9350506040611226878288016110d8565b9250506060611237878288016110d8565b91505092959194509250565b61124c81611a78565b82525050565b61125b81611a8a565b82525050565b61126a81611ac0565b82525050565b61127981611ae4565b82525050565b600061128c602f836117e1565b915061129782611b73565b604082019050919050565b60006112af6026836117e1565b91506112ba82611bc2565b604082019050919050565b60006112d26026836117e1565b91506112dd82611c11565b604082019050919050565b60006112f5601a836117e1565b915061130082611c60565b602082019050919050565b60006113186024836117e1565b915061132382611c89565b604082019050919050565b600061133b6022836117e1565b915061134682611cd8565b604082019050919050565b600061135e601c836117e1565b915061136982611d27565b602082019050919050565b60006113816020836117e1565b915061138c82611d50565b602082019050919050565b60006113a46026836117e1565b91506113af82611d79565b604082019050919050565b60006113c76024836117e1565b91506113d282611dc8565b604082019050919050565b60006113ea602a836117e1565b91506113f582611e17565b604082019050919050565b600061140d6028836117e1565b915061141882611e66565b604082019050919050565b60006114306029836117e1565b915061143b82611eb5565b604082019050919050565b60006114536020836117e1565b915061145e82611f04565b602082019050919050565b61147281611ab6565b82525050565b600060208201905061148d6000830184611243565b92915050565b60006060820190506114a86000830186611243565b6114b56020830185611243565b6114c26040830184611469565b949350505050565b60006040820190506114df6000830185611243565b6114ec6020830184611469565b9392505050565b60006080820190506115086000830187611243565b6115156020830186611469565b6115226040830185611469565b61152f6060830184611469565b95945050505050565b600060208201905061154d6000830184611261565b92915050565b60006020820190506115686000830184611270565b92915050565b600060208201905081810360008301526115878161127f565b9050919050565b600060208201905081810360008301526115a7816112a2565b9050919050565b600060208201905081810360008301526115c7816112c5565b9050919050565b600060208201905081810360008301526115e7816112e8565b9050919050565b600060208201905081810360008301526116078161130b565b9050919050565b600060208201905081810360008301526116278161132e565b9050919050565b6000602082019050818103600083015261164781611351565b9050919050565b6000602082019050818103600083015261166781611374565b9050919050565b6000602082019050818103600083015261168781611397565b9050919050565b600060208201905081810360008301526116a7816113ba565b9050919050565b600060208201905081810360008301526116c7816113dd565b9050919050565b600060208201905081810360008301526116e781611400565b9050919050565b6000602082019050818103600083015261170781611423565b9050919050565b6000602082019050818103600083015261172781611446565b9050919050565b60006020820190506117436000830184611469565b92915050565b600060808201905061175e6000830187611469565b61176b6020830186611469565b6117786040830185611469565b6117856060830184611469565b95945050505050565b600060a0820190506117a36000830188611469565b6117b06020830187611469565b6117bd6040830186611469565b6117ca6060830185611469565b6117d76080830184611252565b9695505050505050565b600082825260208201905092915050565b60006117fd82611ab6565b915061180883611ab6565b9250827fffffffffffffffffffffffffffffffffffffffffffffffffffffffffffffffff0382111561183d5761183c611b08565b5b828201905092915050565b600061185382611ab6565b915061185e83611ab6565b92508261186e5761186d611b37565b5b828204905092915050565b6000808291508390505b60018511156118c35780860481111561189f5761189e611b08565b5b60018516156118ae5780820291505b80810290506118bc85611b66565b9450611883565b94509492505050565b60006118d782611ab6565b91506118e283611ab6565b925061190f7fffffffffffffffffffffffffffffffffffffffffffffffffffffffffffffffff8484611917565b905092915050565b60008261192757600190506119e3565b8161193557600090506119e3565b816001811461194b576002811461195557611984565b60019150506119e3565b60ff84111561196757611966611b08565b5b8360020a91508482111561197e5761197d611b08565b5b506119e3565b5060208310610133831016604e8410600b84101617156119b95782820a9050838111156119b4576119b3611b08565b5b6119e3565b6119c68484846001611879565b925090508184048111156119dd576119dc611b08565b5b81810290505b9392505050565b60006119f582611ab6565b9150611a0083611ab6565b9250817fffffffffffffffffffffffffffffffffffffffffffffffffffffffffffffffff0483118215151615611a3957611a38611b08565b5b828202905092915050565b6000611a4f82611ab6565b9150611a5a83611ab6565b925082821015611a6d57611a6c611b08565b5b828203905092915050565b6000611a8382611a96565b9050919050565b60008115159050919050565b600073ffffffffffffffffffffffffffffffffffffffff82169050919050565b6000819050919050565b6000611acb82611ad2565b9050919050565b6000611add82611a96565b9050919050565b6000611aef82611af6565b9050919050565b6000611b0182611a96565b9050919050565b7f4e487b7100000000000000000000000000000000000000000000000000000000600052601160045260246000fd5b7f4e487b7100000000000000000000000000000000000000000000000000000000600052601260045260246000fd5b60008160011c9050919050565b7f5374616b696e673a20616d6f756e745f206d757374206265206c61676765722060008201527f7468616e206d696e5374616b696e670000000000000000000000000000000000602082015250565b7f4f776e61626c653a206e6577206f776e657220697320746865207a65726f206160008201527f6464726573730000000000000000000000000000000000000000000000000000602082015250565b7f5374616b696e673a20616d6f756e745f206d757374206265206c61676765722060008201527f7468616e20300000000000000000000000000000000000000000000000000000602082015250565b7f5374616b696e673a205374616b696e67206e6f7420666f756e64000000000000600082015250565b7f5374616b696e673a207061636b61676549645f20686164206265656e2072656d60008201527f6f76656400000000000000000000000000000000000000000000000000000000602082015250565b7f5374616b696e673a205374616b652070616b616765206973206e6f742065786960008201527f7473000000000000000000000000000000000000000000000000000000000000602082015250565b7f5374616b696e673a204e6f74207265616368206c6f636b2074696d6500000000600082015250565b7f4f776e61626c653a2063616c6c6572206973206e6f7420746865206f776e6572600082015250565b7f5374616b696e673a205374616b652070616b61676520686164206265656e207260008201527f656d6f7665640000000000000000000000000000000000000000000000000000602082015250565b7f5374616b696e673a20726174655f206d757374206265206c616767657220746860008201527f616e203000000000000000000000000000000000000000000000000000000000602082015250565b7f5374616b696e673a206d696e5374616b696e675f206d757374206265206c616760008201527f676572207468616e203000000000000000000000000000000000000000000000602082015250565b7f5374616b696e673a206c6f636b54696d655f206d757374206265206c6167676560008201527f72207468616e2030000000000000000000000000000000000000000000000000602082015250565b7f5374616b696e673a207061636b61676549645f206d757374206265206c61676760008201527f6572207468616e20300000000000000000000000000000000000000000000000602082015250565b7f5374616b696e673a207061636b61676549645f206973206e6f74206578697473600082015250565b611f3681611a78565b8114611f4157600080fd5b50565b611f4d81611a8a565b8114611f5857600080fd5b50565b611f6481611ab6565b8114611f6f57600080fd5b5056fea2646970667358221220058ffb2e66c6f8d05e1b17a1003c7eb3af442e9d9cf58d374924411945afb84164736f6c63430008040033",
  "linkReferences": {},
  "deployedLinkReferences": {}
}