{
  "_format": "hh-sol-artifact-1",
  "contractName": "StakingReserve",
  "sourceName": "contracts/staking/Reserve.sol",
  "abi": [
    {
      "inputs": [
        {
          "internalType": "address",
          "name": "_goldAdress",
          "type": "address"
        },
        {
          "internalType": "address",
          "name": "_stakeAddress",
          "type": "address"
        }
      ],
      "stateMutability": "nonpayable",
      "type": "constructor"
    },
    {
      "anonymous": false,
      "inputs": [
        {
          "indexed": true,
          "internalType": "address",
          "name": "previousOwner",
          "type": "address"
        },
        {
          "indexed": true,
          "internalType": "address",
          "name": "newOwner",
          "type": "address"
        }
      ],
      "name": "OwnershipTransferred",
      "type": "event"
    },
    {
      "inputs": [
        {
          "internalType": "address",
          "name": "_recipientAddress",
          "type": "address"
        },
        {
          "internalType": "uint256",
          "name": "_amount",
          "type": "uint256"
        }
      ],
      "name": "distributeGold",
      "outputs": [],
      "stateMutability": "nonpayable",
      "type": "function"
    },
    {
      "inputs": [],
      "name": "getBalanceOfReserve",
      "outputs": [
        {
          "internalType": "uint256",
          "name": "",
          "type": "uint256"
        }
      ],
      "stateMutability": "view",
      "type": "function"
    },
    {
      "inputs": [],
      "name": "gold",
      "outputs": [
        {
          "internalType": "contract IERC20",
          "name": "",
          "type": "address"
        }
      ],
      "stateMutability": "view",
      "type": "function"
    },
    {
      "inputs": [],
      "name": "owner",
      "outputs": [
        {
          "internalType": "address",
          "name": "",
          "type": "address"
        }
      ],
      "stateMutability": "view",
      "type": "function"
    },
    {
      "inputs": [],
      "name": "renounceOwnership",
      "outputs": [],
      "stateMutability": "nonpayable",
      "type": "function"
    },
    {
      "inputs": [],
      "name": "stakeAddress",
      "outputs": [
        {
          "internalType": "address",
          "name": "",
          "type": "address"
        }
      ],
      "stateMutability": "view",
      "type": "function"
    },
    {
      "inputs": [
        {
          "internalType": "address",
          "name": "newOwner",
          "type": "address"
        }
      ],
      "name": "transferOwnership",
      "outputs": [],
      "stateMutability": "nonpayable",
      "type": "function"
    }
  ],
  "bytecode": "0x608060405234801561001057600080fd5b50604051610bb1380380610bb1833981810160405281019061003291906101b8565b61004e6100436100d760201b60201c565b6100df60201b60201c565b81600160006101000a81548173ffffffffffffffffffffffffffffffffffffffff021916908373ffffffffffffffffffffffffffffffffffffffff16021790555080600260006101000a81548173ffffffffffffffffffffffffffffffffffffffff021916908373ffffffffffffffffffffffffffffffffffffffff160217905550505061023d565b600033905090565b60008060009054906101000a900473ffffffffffffffffffffffffffffffffffffffff169050816000806101000a81548173ffffffffffffffffffffffffffffffffffffffff021916908373ffffffffffffffffffffffffffffffffffffffff1602179055508173ffffffffffffffffffffffffffffffffffffffff168173ffffffffffffffffffffffffffffffffffffffff167f8be0079c531659141344cd1fd0a4f28419497f9722a3daafe3b4186f6b6457e060405160405180910390a35050565b6000815190506101b281610226565b92915050565b600080604083850312156101cb57600080fd5b60006101d9858286016101a3565b92505060206101ea858286016101a3565b9150509250929050565b60006101ff82610206565b9050919050565b600073ffffffffffffffffffffffffffffffffffffffff82169050919050565b61022f816101f4565b811461023a57600080fd5b50565b6109658061024c6000396000f3fe608060405234801561001057600080fd5b506004361061007d5760003560e01c80638da5cb5b1161005b5780638da5cb5b146100c8578063b5e6f027146100e6578063f2fde38b14610102578063fbec6f211461011e5761007d565b80632a0826c014610082578063715018a6146100a057806385107367146100aa575b600080fd5b61008a61013c565b60405161009791906107da565b60405180910390f35b6100a86101ee565b005b6100b2610276565b6040516100bf919061073b565b60405180910390f35b6100d061029c565b6040516100dd919061073b565b60405180910390f35b61010060048036038101906100fb919061063a565b6102c5565b005b61011c60048036038101906101179190610611565b6103d3565b005b6101266104cb565b604051610133919061077f565b60405180910390f35b6000600160009054906101000a900473ffffffffffffffffffffffffffffffffffffffff1673ffffffffffffffffffffffffffffffffffffffff166370a08231306040518263ffffffff1660e01b8152600401610199919061073b565b60206040518083038186803b1580156101b157600080fd5b505afa1580156101c5573d6000803e3d6000fd5b505050506040513d601f19601f820116820180604052508101906101e9919061069f565b905090565b6101f66104f1565b73ffffffffffffffffffffffffffffffffffffffff1661021461029c565b73ffffffffffffffffffffffffffffffffffffffff161461026a576040517f08c379a0000000000000000000000000000000000000000000000000000000008152600401610261906107ba565b60405180910390fd5b61027460006104f9565b565b600260009054906101000a900473ffffffffffffffffffffffffffffffffffffffff1681565b60008060009054906101000a900473ffffffffffffffffffffffffffffffffffffffff16905090565b600260009054906101000a900473ffffffffffffffffffffffffffffffffffffffff1673ffffffffffffffffffffffffffffffffffffffff163373ffffffffffffffffffffffffffffffffffffffff161461031f57600080fd5b600160009054906101000a900473ffffffffffffffffffffffffffffffffffffffff1673ffffffffffffffffffffffffffffffffffffffff1663a9059cbb83836040518363ffffffff1660e01b815260040161037c929190610756565b602060405180830381600087803b15801561039657600080fd5b505af11580156103aa573d6000803e3d6000fd5b505050506040513d601f19601f820116820180604052508101906103ce9190610676565b505050565b6103db6104f1565b73ffffffffffffffffffffffffffffffffffffffff166103f961029c565b73ffffffffffffffffffffffffffffffffffffffff161461044f576040517f08c379a0000000000000000000000000000000000000000000000000000000008152600401610446906107ba565b60405180910390fd5b600073ffffffffffffffffffffffffffffffffffffffff168173ffffffffffffffffffffffffffffffffffffffff1614156104bf576040517f08c379a00000000000000000000000000000000000000000000000000000000081526004016104b69061079a565b60405180910390fd5b6104c8816104f9565b50565b600160009054906101000a900473ffffffffffffffffffffffffffffffffffffffff1681565b600033905090565b60008060009054906101000a900473ffffffffffffffffffffffffffffffffffffffff169050816000806101000a81548173ffffffffffffffffffffffffffffffffffffffff021916908373ffffffffffffffffffffffffffffffffffffffff1602179055508173ffffffffffffffffffffffffffffffffffffffff168173ffffffffffffffffffffffffffffffffffffffff167f8be0079c531659141344cd1fd0a4f28419497f9722a3daafe3b4186f6b6457e060405160405180910390a35050565b6000813590506105cc816108ea565b92915050565b6000815190506105e181610901565b92915050565b6000813590506105f681610918565b92915050565b60008151905061060b81610918565b92915050565b60006020828403121561062357600080fd5b6000610631848285016105bd565b91505092915050565b6000806040838503121561064d57600080fd5b600061065b858286016105bd565b925050602061066c858286016105e7565b9150509250929050565b60006020828403121561068857600080fd5b6000610696848285016105d2565b91505092915050565b6000602082840312156106b157600080fd5b60006106bf848285016105fc565b91505092915050565b6106d181610806565b82525050565b6106e08161084e565b82525050565b60006106f36026836107f5565b91506106fe82610872565b604082019050919050565b60006107166020836107f5565b9150610721826108c1565b602082019050919050565b61073581610844565b82525050565b600060208201905061075060008301846106c8565b92915050565b600060408201905061076b60008301856106c8565b610778602083018461072c565b9392505050565b600060208201905061079460008301846106d7565b92915050565b600060208201905081810360008301526107b3816106e6565b9050919050565b600060208201905081810360008301526107d381610709565b9050919050565b60006020820190506107ef600083018461072c565b92915050565b600082825260208201905092915050565b600061081182610824565b9050919050565b60008115159050919050565b600073ffffffffffffffffffffffffffffffffffffffff82169050919050565b6000819050919050565b600061085982610860565b9050919050565b600061086b82610824565b9050919050565b7f4f776e61626c653a206e6577206f776e657220697320746865207a65726f206160008201527f6464726573730000000000000000000000000000000000000000000000000000602082015250565b7f4f776e61626c653a2063616c6c6572206973206e6f7420746865206f776e6572600082015250565b6108f381610806565b81146108fe57600080fd5b50565b61090a81610818565b811461091557600080fd5b50565b61092181610844565b811461092c57600080fd5b5056fea2646970667358221220239a84f39c10ac5c7d1dab58592391d2ee1d3621b3db95abf85ee538cb9168df64736f6c63430008040033",
  "linkReferences": {},
  "deployedLinkReferences": {}
}