{
  "_format": "hh-sol-artifact-1",
  "contractName": "Gold",
  "sourceName": "contracts/gold/Gold.sol",
  "abi": [
    {
      "inputs": [],
      "stateMutability": "nonpayable",
      "type": "constructor"
    },
    {
      "anonymous": false,
      "inputs": [
        {
          "indexed": true,
          "internalType": "address",
          "name": "owner",
          "type": "address"
        },
        {
          "indexed": true,
          "internalType": "address",
          "name": "spender",
          "type": "address"
        },
        {
          "indexed": false,
          "internalType": "uint256",
          "name": "value",
          "type": "uint256"
        }
      ],
      "name": "Approval",
      "type": "event"
    },
    {
      "anonymous": false,
      "inputs": [
        {
          "indexed": false,
          "internalType": "address",
          "name": "account",
          "type": "address"
        }
      ],
      "name": "BlackListAdded",
      "type": "event"
    },
    {
      "anonymous": false,
      "inputs": [
        {
          "indexed": false,
          "internalType": "address",
          "name": "account",
          "type": "address"
        }
      ],
      "name": "BlackListRemoved",
      "type": "event"
    },
    {
      "anonymous": false,
      "inputs": [
        {
          "indexed": false,
          "internalType": "address",
          "name": "account",
          "type": "address"
        }
      ],
      "name": "Paused",
      "type": "event"
    },
    {
      "anonymous": false,
      "inputs": [
        {
          "indexed": true,
          "internalType": "bytes32",
          "name": "role",
          "type": "bytes32"
        },
        {
          "indexed": true,
          "internalType": "bytes32",
          "name": "previousAdminRole",
          "type": "bytes32"
        },
        {
          "indexed": true,
          "internalType": "bytes32",
          "name": "newAdminRole",
          "type": "bytes32"
        }
      ],
      "name": "RoleAdminChanged",
      "type": "event"
    },
    {
      "anonymous": false,
      "inputs": [
        {
          "indexed": true,
          "internalType": "bytes32",
          "name": "role",
          "type": "bytes32"
        },
        {
          "indexed": true,
          "internalType": "address",
          "name": "account",
          "type": "address"
        },
        {
          "indexed": true,
          "internalType": "address",
          "name": "sender",
          "type": "address"
        }
      ],
      "name": "RoleGranted",
      "type": "event"
    },
    {
      "anonymous": false,
      "inputs": [
        {
          "indexed": true,
          "internalType": "bytes32",
          "name": "role",
          "type": "bytes32"
        },
        {
          "indexed": true,
          "internalType": "address",
          "name": "account",
          "type": "address"
        },
        {
          "indexed": true,
          "internalType": "address",
          "name": "sender",
          "type": "address"
        }
      ],
      "name": "RoleRevoked",
      "type": "event"
    },
    {
      "anonymous": false,
      "inputs": [
        {
          "indexed": true,
          "internalType": "address",
          "name": "from",
          "type": "address"
        },
        {
          "indexed": true,
          "internalType": "address",
          "name": "to",
          "type": "address"
        },
        {
          "indexed": false,
          "internalType": "uint256",
          "name": "value",
          "type": "uint256"
        }
      ],
      "name": "Transfer",
      "type": "event"
    },
    {
      "anonymous": false,
      "inputs": [
        {
          "indexed": false,
          "internalType": "address",
          "name": "account",
          "type": "address"
        }
      ],
      "name": "Unpaused",
      "type": "event"
    },
    {
      "inputs": [],
      "name": "DEFAULT_ADMIN_ROLE",
      "outputs": [
        {
          "internalType": "bytes32",
          "name": "",
          "type": "bytes32"
        }
      ],
      "stateMutability": "view",
      "type": "function"
    },
    {
      "inputs": [],
      "name": "PAUSER_ROLE",
      "outputs": [
        {
          "internalType": "bytes32",
          "name": "",
          "type": "bytes32"
        }
      ],
      "stateMutability": "view",
      "type": "function"
    },
    {
      "inputs": [
        {
          "internalType": "address",
          "name": "account",
          "type": "address"
        }
      ],
      "name": "addToBlackList",
      "outputs": [],
      "stateMutability": "nonpayable",
      "type": "function"
    },
    {
      "inputs": [
        {
          "internalType": "address",
          "name": "owner",
          "type": "address"
        },
        {
          "internalType": "address",
          "name": "spender",
          "type": "address"
        }
      ],
      "name": "allowance",
      "outputs": [
        {
          "internalType": "uint256",
          "name": "",
          "type": "uint256"
        }
      ],
      "stateMutability": "view",
      "type": "function"
    },
    {
      "inputs": [
        {
          "internalType": "address",
          "name": "spender",
          "type": "address"
        },
        {
          "internalType": "uint256",
          "name": "amount",
          "type": "uint256"
        }
      ],
      "name": "approve",
      "outputs": [
        {
          "internalType": "bool",
          "name": "",
          "type": "bool"
        }
      ],
      "stateMutability": "nonpayable",
      "type": "function"
    },
    {
      "inputs": [
        {
          "internalType": "address",
          "name": "account",
          "type": "address"
        }
      ],
      "name": "balanceOf",
      "outputs": [
        {
          "internalType": "uint256",
          "name": "",
          "type": "uint256"
        }
      ],
      "stateMutability": "view",
      "type": "function"
    },
    {
      "inputs": [],
      "name": "decimals",
      "outputs": [
        {
          "internalType": "uint8",
          "name": "",
          "type": "uint8"
        }
      ],
      "stateMutability": "view",
      "type": "function"
    },
    {
      "inputs": [
        {
          "internalType": "address",
          "name": "spender",
          "type": "address"
        },
        {
          "internalType": "uint256",
          "name": "subtractedValue",
          "type": "uint256"
        }
      ],
      "name": "decreaseAllowance",
      "outputs": [
        {
          "internalType": "bool",
          "name": "",
          "type": "bool"
        }
      ],
      "stateMutability": "nonpayable",
      "type": "function"
    },
    {
      "inputs": [
        {
          "internalType": "bytes32",
          "name": "role",
          "type": "bytes32"
        }
      ],
      "name": "getRoleAdmin",
      "outputs": [
        {
          "internalType": "bytes32",
          "name": "",
          "type": "bytes32"
        }
      ],
      "stateMutability": "view",
      "type": "function"
    },
    {
      "inputs": [
        {
          "internalType": "bytes32",
          "name": "role",
          "type": "bytes32"
        },
        {
          "internalType": "address",
          "name": "account",
          "type": "address"
        }
      ],
      "name": "grantRole",
      "outputs": [],
      "stateMutability": "nonpayable",
      "type": "function"
    },
    {
      "inputs": [
        {
          "internalType": "bytes32",
          "name": "role",
          "type": "bytes32"
        },
        {
          "internalType": "address",
          "name": "account",
          "type": "address"
        }
      ],
      "name": "hasRole",
      "outputs": [
        {
          "internalType": "bool",
          "name": "",
          "type": "bool"
        }
      ],
      "stateMutability": "view",
      "type": "function"
    },
    {
      "inputs": [
        {
          "internalType": "address",
          "name": "spender",
          "type": "address"
        },
        {
          "internalType": "uint256",
          "name": "addedValue",
          "type": "uint256"
        }
      ],
      "name": "increaseAllowance",
      "outputs": [
        {
          "internalType": "bool",
          "name": "",
          "type": "bool"
        }
      ],
      "stateMutability": "nonpayable",
      "type": "function"
    },
    {
      "inputs": [],
      "name": "name",
      "outputs": [
        {
          "internalType": "string",
          "name": "",
          "type": "string"
        }
      ],
      "stateMutability": "view",
      "type": "function"
    },
    {
      "inputs": [],
      "name": "pause",
      "outputs": [],
      "stateMutability": "nonpayable",
      "type": "function"
    },
    {
      "inputs": [],
      "name": "paused",
      "outputs": [
        {
          "internalType": "bool",
          "name": "",
          "type": "bool"
        }
      ],
      "stateMutability": "view",
      "type": "function"
    },
    {
      "inputs": [
        {
          "internalType": "address",
          "name": "account",
          "type": "address"
        }
      ],
      "name": "removeFromBlackList",
      "outputs": [],
      "stateMutability": "nonpayable",
      "type": "function"
    },
    {
      "inputs": [
        {
          "internalType": "bytes32",
          "name": "role",
          "type": "bytes32"
        },
        {
          "internalType": "address",
          "name": "account",
          "type": "address"
        }
      ],
      "name": "renounceRole",
      "outputs": [],
      "stateMutability": "nonpayable",
      "type": "function"
    },
    {
      "inputs": [
        {
          "internalType": "bytes32",
          "name": "role",
          "type": "bytes32"
        },
        {
          "internalType": "address",
          "name": "account",
          "type": "address"
        }
      ],
      "name": "revokeRole",
      "outputs": [],
      "stateMutability": "nonpayable",
      "type": "function"
    },
    {
      "inputs": [
        {
          "internalType": "bytes4",
          "name": "interfaceId",
          "type": "bytes4"
        }
      ],
      "name": "supportsInterface",
      "outputs": [
        {
          "internalType": "bool",
          "name": "",
          "type": "bool"
        }
      ],
      "stateMutability": "view",
      "type": "function"
    },
    {
      "inputs": [],
      "name": "symbol",
      "outputs": [
        {
          "internalType": "string",
          "name": "",
          "type": "string"
        }
      ],
      "stateMutability": "view",
      "type": "function"
    },
    {
      "inputs": [],
      "name": "totalSupply",
      "outputs": [
        {
          "internalType": "uint256",
          "name": "",
          "type": "uint256"
        }
      ],
      "stateMutability": "view",
      "type": "function"
    },
    {
      "inputs": [
        {
          "internalType": "address",
          "name": "to",
          "type": "address"
        },
        {
          "internalType": "uint256",
          "name": "amount",
          "type": "uint256"
        }
      ],
      "name": "transfer",
      "outputs": [
        {
          "internalType": "bool",
          "name": "",
          "type": "bool"
        }
      ],
      "stateMutability": "nonpayable",
      "type": "function"
    },
    {
      "inputs": [
        {
          "internalType": "address",
          "name": "from",
          "type": "address"
        },
        {
          "internalType": "address",
          "name": "to",
          "type": "address"
        },
        {
          "internalType": "uint256",
          "name": "amount",
          "type": "uint256"
        }
      ],
      "name": "transferFrom",
      "outputs": [
        {
          "internalType": "bool",
          "name": "",
          "type": "bool"
        }
      ],
      "stateMutability": "nonpayable",
      "type": "function"
    },
    {
      "inputs": [],
      "name": "unpause",
      "outputs": [],
      "stateMutability": "nonpayable",
      "type": "function"
    }
  ],
  "bytecode": "0x60806040523480156200001157600080fd5b506040518060400160405280600481526020017f474f4c44000000000000000000000000000000000000000000000000000000008152506040518060400160405280600381526020017f474c44000000000000000000000000000000000000000000000000000000000081525081600390805190602001906200009692919062000613565b508060049080519060200190620000af92919062000613565b5050506000600560006101000a81548160ff021916908315150217905550620000e26000801b336200015960201b60201c565b620001147f65d7a28e3265b37a6474929f336521b332c1681b933f6cb9f3376673440d862a336200015960201b60201c565b6200015333620001296200016f60201b60201c565b600a620001379190620008de565b620f424062000147919062000a1b565b6200017860201b60201c565b62000c24565b6200016b8282620002f160201b60201c565b5050565b60006012905090565b600073ffffffffffffffffffffffffffffffffffffffff168273ffffffffffffffffffffffffffffffffffffffff161415620001eb576040517f08c379a0000000000000000000000000000000000000000000000000000000008152600401620001e290620007d6565b60405180910390fd5b620001ff60008383620003e360201b60201c565b806002600082825462000213919062000826565b92505081905550806000808473ffffffffffffffffffffffffffffffffffffffff1673ffffffffffffffffffffffffffffffffffffffff16815260200190815260200160002060008282546200026a919062000826565b925050819055508173ffffffffffffffffffffffffffffffffffffffff16600073ffffffffffffffffffffffffffffffffffffffff167fddf252ad1be2c89b69c2b068fc378daa952ba7f163c4a11628f55a4df523b3ef83604051620002d19190620007f8565b60405180910390a3620002ed600083836200057f60201b60201c565b5050565b6200030382826200058460201b60201c565b620003df5760016006600084815260200190815260200160002060000160008373ffffffffffffffffffffffffffffffffffffffff1673ffffffffffffffffffffffffffffffffffffffff16815260200190815260200160002060006101000a81548160ff02191690831515021790555062000384620005ef60201b60201c565b73ffffffffffffffffffffffffffffffffffffffff168173ffffffffffffffffffffffffffffffffffffffff16837f2f8788117e7eff1d82e926ec794901d17c78024a50270940304540a733656f0d60405160405180910390a45b5050565b620003f3620005f760201b60201c565b1562000436576040517f08c379a00000000000000000000000000000000000000000000000000000000081526004016200042d90620007b4565b60405180910390fd5b60001515600760008573ffffffffffffffffffffffffffffffffffffffff1673ffffffffffffffffffffffffffffffffffffffff16815260200190815260200160002060009054906101000a900460ff16151514620004cc576040517f08c379a0000000000000000000000000000000000000000000000000000000008152600401620004c39062000770565b60405180910390fd5b60001515600760008473ffffffffffffffffffffffffffffffffffffffff1673ffffffffffffffffffffffffffffffffffffffff16815260200190815260200160002060009054906101000a900460ff1615151462000562576040517f08c379a0000000000000000000000000000000000000000000000000000000008152600401620005599062000792565b60405180910390fd5b6200057a8383836200060e60201b62000d241760201c565b505050565b505050565b60006006600084815260200190815260200160002060000160008373ffffffffffffffffffffffffffffffffffffffff1673ffffffffffffffffffffffffffffffffffffffff16815260200190815260200160002060009054906101000a900460ff16905092915050565b600033905090565b6000600560009054906101000a900460ff16905090565b505050565b828054620006219062000a93565b90600052602060002090601f01602090048101928262000645576000855562000691565b82601f106200066057805160ff191683800117855562000691565b8280016001018555821562000691579182015b828111156200069057825182559160200191906001019062000673565b5b509050620006a09190620006a4565b5090565b5b80821115620006bf576000816000905550600101620006a5565b5090565b6000620006d260258362000815565b9150620006df8262000b34565b604082019050919050565b6000620006f960288362000815565b9150620007068262000b83565b604082019050919050565b60006200072060108362000815565b91506200072d8262000bd2565b602082019050919050565b600062000747601f8362000815565b9150620007548262000bfb565b602082019050919050565b6200076a8162000a7c565b82525050565b600060208201905081810360008301526200078b81620006c3565b9050919050565b60006020820190508181036000830152620007ad81620006ea565b9050919050565b60006020820190508181036000830152620007cf8162000711565b9050919050565b60006020820190508181036000830152620007f18162000738565b9050919050565b60006020820190506200080f60008301846200075f565b92915050565b600082825260208201905092915050565b6000620008338262000a7c565b9150620008408362000a7c565b9250827fffffffffffffffffffffffffffffffffffffffffffffffffffffffffffffffff0382111562000878576200087762000ac9565b5b828201905092915050565b6000808291508390505b6001851115620008d557808604811115620008ad57620008ac62000ac9565b5b6001851615620008bd5780820291505b8081029050620008cd8562000b27565b94506200088d565b94509492505050565b6000620008eb8262000a7c565b9150620008f88362000a86565b9250620009277fffffffffffffffffffffffffffffffffffffffffffffffffffffffffffffffff84846200092f565b905092915050565b60008262000941576001905062000a14565b8162000951576000905062000a14565b81600181146200096a57600281146200097557620009ab565b600191505062000a14565b60ff8411156200098a576200098962000ac9565b5b8360020a915084821115620009a457620009a362000ac9565b5b5062000a14565b5060208310610133831016604e8410600b8410161715620009e55782820a905083811115620009df57620009de62000ac9565b5b62000a14565b620009f4848484600162000883565b9250905081840481111562000a0e5762000a0d62000ac9565b5b81810290505b9392505050565b600062000a288262000a7c565b915062000a358362000a7c565b9250817fffffffffffffffffffffffffffffffffffffffffffffffffffffffffffffffff048311821515161562000a715762000a7062000ac9565b5b828202905092915050565b6000819050919050565b600060ff82169050919050565b6000600282049050600182168062000aac57607f821691505b6020821081141562000ac35762000ac262000af8565b5b50919050565b7f4e487b7100000000000000000000000000000000000000000000000000000000600052601160045260246000fd5b7f4e487b7100000000000000000000000000000000000000000000000000000000600052602260045260246000fd5b60008160011c9050919050565b7f476f6c643a206163636f756e742073656e64657220776173206f6e20626c616360008201527f6b6c697374000000000000000000000000000000000000000000000000000000602082015250565b7f476f6c643a206163636f756e7420726563697069656e7420776173206f6e206260008201527f6c61636b6c697374000000000000000000000000000000000000000000000000602082015250565b7f5061757361626c653a2070617573656400000000000000000000000000000000600082015250565b7f45524332303a206d696e7420746f20746865207a65726f206164647265737300600082015250565b6129ff8062000c346000396000f3fe608060405234801561001057600080fd5b50600436106101585760003560e01c80634a49ac4c116100c3578063a217fddf1161007c578063a217fddf146103c7578063a457c2d7146103e5578063a9059cbb14610415578063d547741f14610445578063dd62ed3e14610461578063e63ab1e91461049157610158565b80634a49ac4c146103055780635c975abb1461032157806370a082311461033f5780638456cb591461036f57806391d148541461037957806395d89b41146103a957610158565b80632f2ff15d116101155780632f2ff15d14610259578063313ce5671461027557806336568abe1461029357806339509351146102af5780633f4ba83a146102df578063417c73a7146102e957610158565b806301ffc9a71461015d57806306fdde031461018d578063095ea7b3146101ab57806318160ddd146101db57806323b872dd146101f9578063248a9ca314610229575b600080fd5b61017760048036038101906101729190611c52565b6104af565b6040516101849190611ffb565b60405180910390f35b610195610529565b6040516101a29190612031565b60405180910390f35b6101c560048036038101906101c09190611bb1565b6105bb565b6040516101d29190611ffb565b60405180910390f35b6101e36105de565b6040516101f09190612253565b60405180910390f35b610213600480360381019061020e9190611b62565b6105e8565b6040516102209190611ffb565b60405180910390f35b610243600480360381019061023e9190611bed565b610617565b6040516102509190612016565b60405180910390f35b610273600480360381019061026e9190611c16565b610637565b005b61027d610658565b60405161028a919061226e565b60405180910390f35b6102ad60048036038101906102a89190611c16565b610661565b005b6102c960048036038101906102c49190611bb1565b6106e4565b6040516102d69190611ffb565b60405180910390f35b6102e761071b565b005b61030360048036038101906102fe9190611afd565b610750565b005b61031f600480360381019061031a9190611afd565b6108f3565b005b610329610a26565b6040516103369190611ffb565b60405180910390f35b61035960048036038101906103549190611afd565b610a3d565b6040516103669190612253565b60405180910390f35b610377610a85565b005b610393600480360381019061038e9190611c16565b610aba565b6040516103a09190611ffb565b60405180910390f35b6103b1610b25565b6040516103be9190612031565b60405180910390f35b6103cf610bb7565b6040516103dc9190612016565b60405180910390f35b6103ff60048036038101906103fa9190611bb1565b610bbe565b60405161040c9190611ffb565b60405180910390f35b61042f600480360381019061042a9190611bb1565b610c35565b60405161043c9190611ffb565b60405180910390f35b61045f600480360381019061045a9190611c16565b610c58565b005b61047b60048036038101906104769190611b26565b610c79565b6040516104889190612253565b60405180910390f35b610499610d00565b6040516104a69190612016565b60405180910390f35b60007f7965db0b000000000000000000000000000000000000000000000000000000007bffffffffffffffffffffffffffffffffffffffffffffffffffffffff1916827bffffffffffffffffffffffffffffffffffffffffffffffffffffffff19161480610522575061052182610d29565b5b9050919050565b60606003805461053890612448565b80601f016020809104026020016040519081016040528092919081815260200182805461056490612448565b80156105b15780601f10610586576101008083540402835291602001916105b1565b820191906000526020600020905b81548152906001019060200180831161059457829003601f168201915b5050505050905090565b6000806105c6610d93565b90506105d3818585610d9b565b600191505092915050565b6000600254905090565b6000806105f3610d93565b9050610600858285610f66565b61060b858585610ff2565b60019150509392505050565b600060066000838152602001908152602001600020600101549050919050565b61064082610617565b61064981611273565b6106538383611287565b505050565b60006012905090565b610669610d93565b73ffffffffffffffffffffffffffffffffffffffff168173ffffffffffffffffffffffffffffffffffffffff16146106d6576040517f08c379a00000000000000000000000000000000000000000000000000000000081526004016106cd90612233565b60405180910390fd5b6106e08282611368565b5050565b6000806106ef610d93565b90506107108185856107018589610c79565b61070b91906122b0565b610d9b565b600191505092915050565b7f65d7a28e3265b37a6474929f336521b332c1681b933f6cb9f3376673440d862a61074581611273565b61074d61144a565b50565b6000801b61075d81611273565b3373ffffffffffffffffffffffffffffffffffffffff168273ffffffffffffffffffffffffffffffffffffffff1614156107cc576040517f08c379a00000000000000000000000000000000000000000000000000000000081526004016107c390612113565b60405180910390fd5b60011515600760008473ffffffffffffffffffffffffffffffffffffffff1673ffffffffffffffffffffffffffffffffffffffff16815260200190815260200160002060009054906101000a900460ff1615151415610860576040517f08c379a000000000000000000000000000000000000000000000000000000000815260040161085790612053565b60405180910390fd5b6001600760008473ffffffffffffffffffffffffffffffffffffffff1673ffffffffffffffffffffffffffffffffffffffff16815260200190815260200160002060006101000a81548160ff0219169083151502179055507ff4b7ec55a49ac1da7e692ab86df6fbd4f88d5106cb8fec0e074dc795e4f628df826040516108e79190611fe0565b60405180910390a15050565b6000801b61090081611273565b60011515600760008473ffffffffffffffffffffffffffffffffffffffff1673ffffffffffffffffffffffffffffffffffffffff16815260200190815260200160002060009054906101000a900460ff16151514610993576040517f08c379a000000000000000000000000000000000000000000000000000000000815260040161098a906121b3565b60405180910390fd5b6000600760008473ffffffffffffffffffffffffffffffffffffffff1673ffffffffffffffffffffffffffffffffffffffff16815260200190815260200160002060006101000a81548160ff0219169083151502179055507f2b7660b9783fc5217982251aa2052ee8b0ffb8b409bd74b84b2a08e8a92316e082604051610a1a9190611fe0565b60405180910390a15050565b6000600560009054906101000a900460ff16905090565b60008060008373ffffffffffffffffffffffffffffffffffffffff1673ffffffffffffffffffffffffffffffffffffffff168152602001908152602001600020549050919050565b7f65d7a28e3265b37a6474929f336521b332c1681b933f6cb9f3376673440d862a610aaf81611273565b610ab76114ec565b50565b60006006600084815260200190815260200160002060000160008373ffffffffffffffffffffffffffffffffffffffff1673ffffffffffffffffffffffffffffffffffffffff16815260200190815260200160002060009054906101000a900460ff16905092915050565b606060048054610b3490612448565b80601f0160208091040260200160405190810160405280929190818152602001828054610b6090612448565b8015610bad5780601f10610b8257610100808354040283529160200191610bad565b820191906000526020600020905b815481529060010190602001808311610b9057829003601f168201915b5050505050905090565b6000801b81565b600080610bc9610d93565b90506000610bd78286610c79565b905083811015610c1c576040517f08c379a0000000000000000000000000000000000000000000000000000000008152600401610c1390612213565b60405180910390fd5b610c298286868403610d9b565b60019250505092915050565b600080610c40610d93565b9050610c4d818585610ff2565b600191505092915050565b610c6182610617565b610c6a81611273565b610c748383611368565b505050565b6000600160008473ffffffffffffffffffffffffffffffffffffffff1673ffffffffffffffffffffffffffffffffffffffff16815260200190815260200160002060008373ffffffffffffffffffffffffffffffffffffffff1673ffffffffffffffffffffffffffffffffffffffff16815260200190815260200160002054905092915050565b7f65d7a28e3265b37a6474929f336521b332c1681b933f6cb9f3376673440d862a81565b505050565b60007f01ffc9a7000000000000000000000000000000000000000000000000000000007bffffffffffffffffffffffffffffffffffffffffffffffffffffffff1916827bffffffffffffffffffffffffffffffffffffffffffffffffffffffff1916149050919050565b600033905090565b600073ffffffffffffffffffffffffffffffffffffffff168373ffffffffffffffffffffffffffffffffffffffff161415610e0b576040517f08c379a0000000000000000000000000000000000000000000000000000000008152600401610e02906121f3565b60405180910390fd5b600073ffffffffffffffffffffffffffffffffffffffff168273ffffffffffffffffffffffffffffffffffffffff161415610e7b576040517f08c379a0000000000000000000000000000000000000000000000000000000008152600401610e72906120f3565b60405180910390fd5b80600160008573ffffffffffffffffffffffffffffffffffffffff1673ffffffffffffffffffffffffffffffffffffffff16815260200190815260200160002060008473ffffffffffffffffffffffffffffffffffffffff1673ffffffffffffffffffffffffffffffffffffffff168152602001908152602001600020819055508173ffffffffffffffffffffffffffffffffffffffff168373ffffffffffffffffffffffffffffffffffffffff167f8c5be1e5ebec7d5bd14f71427d1e84f3dd0314c0f7b2291e5b200ac8c7c3b92583604051610f599190612253565b60405180910390a3505050565b6000610f728484610c79565b90507fffffffffffffffffffffffffffffffffffffffffffffffffffffffffffffffff8114610fec5781811015610fde576040517f08c379a0000000000000000000000000000000000000000000000000000000008152600401610fd590612133565b60405180910390fd5b610feb8484848403610d9b565b5b50505050565b600073ffffffffffffffffffffffffffffffffffffffff168373ffffffffffffffffffffffffffffffffffffffff161415611062576040517f08c379a0000000000000000000000000000000000000000000000000000000008152600401611059906121d3565b60405180910390fd5b600073ffffffffffffffffffffffffffffffffffffffff168273ffffffffffffffffffffffffffffffffffffffff1614156110d2576040517f08c379a00000000000000000000000000000000000000000000000000000000081526004016110c9906120b3565b60405180910390fd5b6110dd83838361158f565b60008060008573ffffffffffffffffffffffffffffffffffffffff1673ffffffffffffffffffffffffffffffffffffffff16815260200190815260200160002054905081811015611163576040517f08c379a000000000000000000000000000000000000000000000000000000000815260040161115a90612153565b60405180910390fd5b8181036000808673ffffffffffffffffffffffffffffffffffffffff1673ffffffffffffffffffffffffffffffffffffffff16815260200190815260200160002081905550816000808573ffffffffffffffffffffffffffffffffffffffff1673ffffffffffffffffffffffffffffffffffffffff16815260200190815260200160002060008282546111f691906122b0565b925050819055508273ffffffffffffffffffffffffffffffffffffffff168473ffffffffffffffffffffffffffffffffffffffff167fddf252ad1be2c89b69c2b068fc378daa952ba7f163c4a11628f55a4df523b3ef8460405161125a9190612253565b60405180910390a361126d84848461170d565b50505050565b6112848161127f610d93565b611712565b50565b6112918282610aba565b6113645760016006600084815260200190815260200160002060000160008373ffffffffffffffffffffffffffffffffffffffff1673ffffffffffffffffffffffffffffffffffffffff16815260200190815260200160002060006101000a81548160ff021916908315150217905550611309610d93565b73ffffffffffffffffffffffffffffffffffffffff168173ffffffffffffffffffffffffffffffffffffffff16837f2f8788117e7eff1d82e926ec794901d17c78024a50270940304540a733656f0d60405160405180910390a45b5050565b6113728282610aba565b156114465760006006600084815260200190815260200160002060000160008373ffffffffffffffffffffffffffffffffffffffff1673ffffffffffffffffffffffffffffffffffffffff16815260200190815260200160002060006101000a81548160ff0219169083151502179055506113eb610d93565b73ffffffffffffffffffffffffffffffffffffffff168173ffffffffffffffffffffffffffffffffffffffff16837ff6391f5c32d9c69d2a47ea670b442974b53935d1edc7fd64eb21e047a839171b60405160405180910390a45b5050565b611452610a26565b611491576040517f08c379a0000000000000000000000000000000000000000000000000000000008152600401611488906120d3565b60405180910390fd5b6000600560006101000a81548160ff0219169083151502179055507f5db9ee0a495bf2e6ff9c91a7834c1ba4fdd244a5e8aa4e537bd38aeae4b073aa6114d5610d93565b6040516114e29190611fe0565b60405180910390a1565b6114f4610a26565b15611534576040517f08c379a000000000000000000000000000000000000000000000000000000000815260040161152b90612193565b60405180910390fd5b6001600560006101000a81548160ff0219169083151502179055507f62e78cea01bee320cd4e420270b5ea74000d11b0c9f74754ebdbfc544b05a258611578610d93565b6040516115859190611fe0565b60405180910390a1565b611597610a26565b156115d7576040517f08c379a00000000000000000000000000000000000000000000000000000000081526004016115ce90612193565b60405180910390fd5b60001515600760008573ffffffffffffffffffffffffffffffffffffffff1673ffffffffffffffffffffffffffffffffffffffff16815260200190815260200160002060009054906101000a900460ff1615151461166a576040517f08c379a000000000000000000000000000000000000000000000000000000000815260040161166190612073565b60405180910390fd5b60001515600760008473ffffffffffffffffffffffffffffffffffffffff1673ffffffffffffffffffffffffffffffffffffffff16815260200190815260200160002060009054906101000a900460ff161515146116fd576040517f08c379a00000000000000000000000000000000000000000000000000000000081526004016116f490612173565b60405180910390fd5b611708838383610d24565b505050565b505050565b61171c8282610aba565b6117ab576117418173ffffffffffffffffffffffffffffffffffffffff1660146117af565b61174f8360001c60206117af565b604051602001611760929190611fa6565b6040516020818303038152906040526040517f08c379a00000000000000000000000000000000000000000000000000000000081526004016117a29190612031565b60405180910390fd5b5050565b6060600060028360026117c29190612306565b6117cc91906122b0565b67ffffffffffffffff81111561180b577f4e487b7100000000000000000000000000000000000000000000000000000000600052604160045260246000fd5b6040519080825280601f01601f19166020018201604052801561183d5781602001600182028036833780820191505090505b5090507f30000000000000000000000000000000000000000000000000000000000000008160008151811061189b577f4e487b7100000000000000000000000000000000000000000000000000000000600052603260045260246000fd5b60200101907effffffffffffffffffffffffffffffffffffffffffffffffffffffffffffff1916908160001a9053507f780000000000000000000000000000000000000000000000000000000000000081600181518110611925577f4e487b7100000000000000000000000000000000000000000000000000000000600052603260045260246000fd5b60200101907effffffffffffffffffffffffffffffffffffffffffffffffffffffffffffff1916908160001a905350600060018460026119659190612306565b61196f91906122b0565b90505b6001811115611a5b577f3031323334353637383961626364656600000000000000000000000000000000600f8616601081106119d7577f4e487b7100000000000000000000000000000000000000000000000000000000600052603260045260246000fd5b1a60f81b828281518110611a14577f4e487b7100000000000000000000000000000000000000000000000000000000600052603260045260246000fd5b60200101907effffffffffffffffffffffffffffffffffffffffffffffffffffffffffffff1916908160001a905350600485901c945080611a549061241e565b9050611972565b5060008414611a9f576040517f08c379a0000000000000000000000000000000000000000000000000000000008152600401611a9690612093565b60405180910390fd5b8091505092915050565b600081359050611ab88161296d565b92915050565b600081359050611acd81612984565b92915050565b600081359050611ae28161299b565b92915050565b600081359050611af7816129b2565b92915050565b600060208284031215611b0f57600080fd5b6000611b1d84828501611aa9565b91505092915050565b60008060408385031215611b3957600080fd5b6000611b4785828601611aa9565b9250506020611b5885828601611aa9565b9150509250929050565b600080600060608486031215611b7757600080fd5b6000611b8586828701611aa9565b9350506020611b9686828701611aa9565b9250506040611ba786828701611ae8565b9150509250925092565b60008060408385031215611bc457600080fd5b6000611bd285828601611aa9565b9250506020611be385828601611ae8565b9150509250929050565b600060208284031215611bff57600080fd5b6000611c0d84828501611abe565b91505092915050565b60008060408385031215611c2957600080fd5b6000611c3785828601611abe565b9250506020611c4885828601611aa9565b9150509250929050565b600060208284031215611c6457600080fd5b6000611c7284828501611ad3565b91505092915050565b611c8481612360565b82525050565b611c9381612372565b82525050565b611ca28161237e565b82525050565b6000611cb382612289565b611cbd8185612294565b9350611ccd8185602086016123eb565b611cd6816124d8565b840191505092915050565b6000611cec82612289565b611cf681856122a5565b9350611d068185602086016123eb565b80840191505092915050565b6000611d1f601e83612294565b9150611d2a826124e9565b602082019050919050565b6000611d42602583612294565b9150611d4d82612512565b604082019050919050565b6000611d65602083612294565b9150611d7082612561565b602082019050919050565b6000611d88602383612294565b9150611d938261258a565b604082019050919050565b6000611dab601483612294565b9150611db6826125d9565b602082019050919050565b6000611dce602283612294565b9150611dd982612602565b604082019050919050565b6000611df1602683612294565b9150611dfc82612651565b604082019050919050565b6000611e14601d83612294565b9150611e1f826126a0565b602082019050919050565b6000611e37602683612294565b9150611e42826126c9565b604082019050919050565b6000611e5a602883612294565b9150611e6582612718565b604082019050919050565b6000611e7d601083612294565b9150611e8882612767565b602082019050919050565b6000611ea0602283612294565b9150611eab82612790565b604082019050919050565b6000611ec3602583612294565b9150611ece826127df565b604082019050919050565b6000611ee6602483612294565b9150611ef18261282e565b604082019050919050565b6000611f096017836122a5565b9150611f148261287d565b601782019050919050565b6000611f2c602583612294565b9150611f37826128a6565b604082019050919050565b6000611f4f6011836122a5565b9150611f5a826128f5565b601182019050919050565b6000611f72602f83612294565b9150611f7d8261291e565b604082019050919050565b611f91816123d4565b82525050565b611fa0816123de565b82525050565b6000611fb182611efc565b9150611fbd8285611ce1565b9150611fc882611f42565b9150611fd48284611ce1565b91508190509392505050565b6000602082019050611ff56000830184611c7b565b92915050565b60006020820190506120106000830184611c8a565b92915050565b600060208201905061202b6000830184611c99565b92915050565b6000602082019050818103600083015261204b8184611ca8565b905092915050565b6000602082019050818103600083015261206c81611d12565b9050919050565b6000602082019050818103600083015261208c81611d35565b9050919050565b600060208201905081810360008301526120ac81611d58565b9050919050565b600060208201905081810360008301526120cc81611d7b565b9050919050565b600060208201905081810360008301526120ec81611d9e565b9050919050565b6000602082019050818103600083015261210c81611dc1565b9050919050565b6000602082019050818103600083015261212c81611de4565b9050919050565b6000602082019050818103600083015261214c81611e07565b9050919050565b6000602082019050818103600083015261216c81611e2a565b9050919050565b6000602082019050818103600083015261218c81611e4d565b9050919050565b600060208201905081810360008301526121ac81611e70565b9050919050565b600060208201905081810360008301526121cc81611e93565b9050919050565b600060208201905081810360008301526121ec81611eb6565b9050919050565b6000602082019050818103600083015261220c81611ed9565b9050919050565b6000602082019050818103600083015261222c81611f1f565b9050919050565b6000602082019050818103600083015261224c81611f65565b9050919050565b60006020820190506122686000830184611f88565b92915050565b60006020820190506122836000830184611f97565b92915050565b600081519050919050565b600082825260208201905092915050565b600081905092915050565b60006122bb826123d4565b91506122c6836123d4565b9250827fffffffffffffffffffffffffffffffffffffffffffffffffffffffffffffffff038211156122fb576122fa61247a565b5b828201905092915050565b6000612311826123d4565b915061231c836123d4565b9250817fffffffffffffffffffffffffffffffffffffffffffffffffffffffffffffffff04831182151516156123555761235461247a565b5b828202905092915050565b600061236b826123b4565b9050919050565b60008115159050919050565b6000819050919050565b60007fffffffff0000000000000000000000000000000000000000000000000000000082169050919050565b600073ffffffffffffffffffffffffffffffffffffffff82169050919050565b6000819050919050565b600060ff82169050919050565b60005b838110156124095780820151818401526020810190506123ee565b83811115612418576000848401525b50505050565b6000612429826123d4565b9150600082141561243d5761243c61247a565b5b600182039050919050565b6000600282049050600182168061246057607f821691505b60208210811415612474576124736124a9565b5b50919050565b7f4e487b7100000000000000000000000000000000000000000000000000000000600052601160045260246000fd5b7f4e487b7100000000000000000000000000000000000000000000000000000000600052602260045260246000fd5b6000601f19601f8301169050919050565b7f476f6c643a206163636f756e7420776173206f6e20626c61636b6c6973740000600082015250565b7f476f6c643a206163636f756e742073656e64657220776173206f6e20626c616360008201527f6b6c697374000000000000000000000000000000000000000000000000000000602082015250565b7f537472696e67733a20686578206c656e67746820696e73756666696369656e74600082015250565b7f45524332303a207472616e7366657220746f20746865207a65726f206164647260008201527f6573730000000000000000000000000000000000000000000000000000000000602082015250565b7f5061757361626c653a206e6f7420706175736564000000000000000000000000600082015250565b7f45524332303a20617070726f766520746f20746865207a65726f20616464726560008201527f7373000000000000000000000000000000000000000000000000000000000000602082015250565b7f476f6c643a206d757374206e6f74206164642073656e64657220746f20626c6160008201527f636b6c6973740000000000000000000000000000000000000000000000000000602082015250565b7f45524332303a20696e73756666696369656e7420616c6c6f77616e6365000000600082015250565b7f45524332303a207472616e7366657220616d6f756e742065786365656473206260008201527f616c616e63650000000000000000000000000000000000000000000000000000602082015250565b7f476f6c643a206163636f756e7420726563697069656e7420776173206f6e206260008201527f6c61636b6c697374000000000000000000000000000000000000000000000000602082015250565b7f5061757361626c653a2070617573656400000000000000000000000000000000600082015250565b7f476f6c643a206163636f756e7420776173206e6f74206f6e20626c61636b6c6960008201527f7374000000000000000000000000000000000000000000000000000000000000602082015250565b7f45524332303a207472616e736665722066726f6d20746865207a65726f20616460008201527f6472657373000000000000000000000000000000000000000000000000000000602082015250565b7f45524332303a20617070726f76652066726f6d20746865207a65726f2061646460008201527f7265737300000000000000000000000000000000000000000000000000000000602082015250565b7f416363657373436f6e74726f6c3a206163636f756e7420000000000000000000600082015250565b7f45524332303a2064656372656173656420616c6c6f77616e63652062656c6f7760008201527f207a65726f000000000000000000000000000000000000000000000000000000602082015250565b7f206973206d697373696e6720726f6c6520000000000000000000000000000000600082015250565b7f416363657373436f6e74726f6c3a2063616e206f6e6c792072656e6f756e636560008201527f20726f6c657320666f722073656c660000000000000000000000000000000000602082015250565b61297681612360565b811461298157600080fd5b50565b61298d8161237e565b811461299857600080fd5b50565b6129a481612388565b81146129af57600080fd5b50565b6129bb816123d4565b81146129c657600080fd5b5056fea2646970667358221220ba5eacf5a55569fad944028ffcebe61e60ec84d855c87b257aff71fc5ab702ed64736f6c63430008040033",
  "linkReferences": {},
  "deployedLinkReferences": {}
}