{
  "_format": "hh-sol-artifact-1",
  "contractName": "Petty",
  "sourceName": "contracts/nft/Petty.sol",
  "abi": [
    {
      "inputs": [],
      "stateMutability": "nonpayable",
      "type": "constructor"
    },
    {
      "anonymous": false,
      "inputs": [
        {
          "indexed": true,
          "internalType": "address",
          "name": "owner",
          "type": "address"
        },
        {
          "indexed": true,
          "internalType": "address",
          "name": "approved",
          "type": "address"
        },
        {
          "indexed": true,
          "internalType": "uint256",
          "name": "tokenId",
          "type": "uint256"
        }
      ],
      "name": "Approval",
      "type": "event"
    },
    {
      "anonymous": false,
      "inputs": [
        {
          "indexed": true,
          "internalType": "address",
          "name": "owner",
          "type": "address"
        },
        {
          "indexed": true,
          "internalType": "address",
          "name": "operator",
          "type": "address"
        },
        {
          "indexed": false,
          "internalType": "bool",
          "name": "approved",
          "type": "bool"
        }
      ],
      "name": "ApprovalForAll",
      "type": "event"
    },
    {
      "anonymous": false,
      "inputs": [
        {
          "indexed": true,
          "internalType": "address",
          "name": "previousOwner",
          "type": "address"
        },
        {
          "indexed": true,
          "internalType": "address",
          "name": "newOwner",
          "type": "address"
        }
      ],
      "name": "OwnershipTransferred",
      "type": "event"
    },
    {
      "anonymous": false,
      "inputs": [
        {
          "indexed": true,
          "internalType": "address",
          "name": "from",
          "type": "address"
        },
        {
          "indexed": true,
          "internalType": "address",
          "name": "to",
          "type": "address"
        },
        {
          "indexed": true,
          "internalType": "uint256",
          "name": "tokenId",
          "type": "uint256"
        }
      ],
      "name": "Transfer",
      "type": "event"
    },
    {
      "inputs": [
        {
          "internalType": "address",
          "name": "to",
          "type": "address"
        },
        {
          "internalType": "uint256",
          "name": "tokenId",
          "type": "uint256"
        }
      ],
      "name": "approve",
      "outputs": [],
      "stateMutability": "nonpayable",
      "type": "function"
    },
    {
      "inputs": [
        {
          "internalType": "address",
          "name": "owner",
          "type": "address"
        }
      ],
      "name": "balanceOf",
      "outputs": [
        {
          "internalType": "uint256",
          "name": "",
          "type": "uint256"
        }
      ],
      "stateMutability": "view",
      "type": "function"
    },
    {
      "inputs": [
        {
          "internalType": "uint256",
          "name": "tokenId",
          "type": "uint256"
        }
      ],
      "name": "getApproved",
      "outputs": [
        {
          "internalType": "address",
          "name": "",
          "type": "address"
        }
      ],
      "stateMutability": "view",
      "type": "function"
    },
    {
      "inputs": [],
      "name": "getBaseTokenURI",
      "outputs": [
        {
          "internalType": "string",
          "name": "",
          "type": "string"
        }
      ],
      "stateMutability": "view",
      "type": "function"
    },
    {
      "inputs": [
        {
          "internalType": "address",
          "name": "owner",
          "type": "address"
        },
        {
          "internalType": "address",
          "name": "operator",
          "type": "address"
        }
      ],
      "name": "isApprovedForAll",
      "outputs": [
        {
          "internalType": "bool",
          "name": "",
          "type": "bool"
        }
      ],
      "stateMutability": "view",
      "type": "function"
    },
    {
      "inputs": [
        {
          "internalType": "address",
          "name": "to_",
          "type": "address"
        }
      ],
      "name": "mint",
      "outputs": [
        {
          "internalType": "uint256",
          "name": "",
          "type": "uint256"
        }
      ],
      "stateMutability": "nonpayable",
      "type": "function"
    },
    {
      "inputs": [],
      "name": "name",
      "outputs": [
        {
          "internalType": "string",
          "name": "",
          "type": "string"
        }
      ],
      "stateMutability": "view",
      "type": "function"
    },
    {
      "inputs": [],
      "name": "owner",
      "outputs": [
        {
          "internalType": "address",
          "name": "",
          "type": "address"
        }
      ],
      "stateMutability": "view",
      "type": "function"
    },
    {
      "inputs": [
        {
          "internalType": "uint256",
          "name": "tokenId",
          "type": "uint256"
        }
      ],
      "name": "ownerOf",
      "outputs": [
        {
          "internalType": "address",
          "name": "",
          "type": "address"
        }
      ],
      "stateMutability": "view",
      "type": "function"
    },
    {
      "inputs": [],
      "name": "renounceOwnership",
      "outputs": [],
      "stateMutability": "nonpayable",
      "type": "function"
    },
    {
      "inputs": [
        {
          "internalType": "address",
          "name": "from",
          "type": "address"
        },
        {
          "internalType": "address",
          "name": "to",
          "type": "address"
        },
        {
          "internalType": "uint256",
          "name": "tokenId",
          "type": "uint256"
        }
      ],
      "name": "safeTransferFrom",
      "outputs": [],
      "stateMutability": "nonpayable",
      "type": "function"
    },
    {
      "inputs": [
        {
          "internalType": "address",
          "name": "from",
          "type": "address"
        },
        {
          "internalType": "address",
          "name": "to",
          "type": "address"
        },
        {
          "internalType": "uint256",
          "name": "tokenId",
          "type": "uint256"
        },
        {
          "internalType": "bytes",
          "name": "_data",
          "type": "bytes"
        }
      ],
      "name": "safeTransferFrom",
      "outputs": [],
      "stateMutability": "nonpayable",
      "type": "function"
    },
    {
      "inputs": [
        {
          "internalType": "address",
          "name": "operator",
          "type": "address"
        },
        {
          "internalType": "bool",
          "name": "approved",
          "type": "bool"
        }
      ],
      "name": "setApprovalForAll",
      "outputs": [],
      "stateMutability": "nonpayable",
      "type": "function"
    },
    {
      "inputs": [
        {
          "internalType": "bytes4",
          "name": "interfaceId",
          "type": "bytes4"
        }
      ],
      "name": "supportsInterface",
      "outputs": [
        {
          "internalType": "bool",
          "name": "",
          "type": "bool"
        }
      ],
      "stateMutability": "view",
      "type": "function"
    },
    {
      "inputs": [],
      "name": "symbol",
      "outputs": [
        {
          "internalType": "string",
          "name": "",
          "type": "string"
        }
      ],
      "stateMutability": "view",
      "type": "function"
    },
    {
      "inputs": [
        {
          "internalType": "uint256",
          "name": "tokenId",
          "type": "uint256"
        }
      ],
      "name": "tokenURI",
      "outputs": [
        {
          "internalType": "string",
          "name": "",
          "type": "string"
        }
      ],
      "stateMutability": "view",
      "type": "function"
    },
    {
      "inputs": [
        {
          "internalType": "address",
          "name": "from",
          "type": "address"
        },
        {
          "internalType": "address",
          "name": "to",
          "type": "address"
        },
        {
          "internalType": "uint256",
          "name": "tokenId",
          "type": "uint256"
        }
      ],
      "name": "transferFrom",
      "outputs": [],
      "stateMutability": "nonpayable",
      "type": "function"
    },
    {
      "inputs": [
        {
          "internalType": "address",
          "name": "newOwner",
          "type": "address"
        }
      ],
      "name": "transferOwnership",
      "outputs": [],
      "stateMutability": "nonpayable",
      "type": "function"
    },
    {
      "inputs": [
        {
          "internalType": "string",
          "name": "baseTokenURI_",
          "type": "string"
        }
      ],
      "name": "updateBaseTokenURI",
      "outputs": [],
      "stateMutability": "nonpayable",
      "type": "function"
    }
  ],
  "bytecode": "0x60806040523480156200001157600080fd5b506040518060400160405280600581526020017f50657474790000000000000000000000000000000000000000000000000000008152506040518060400160405280600381526020017f5045540000000000000000000000000000000000000000000000000000000000815250816000908051906020019062000096929190620001a6565b508060019080519060200190620000af929190620001a6565b505050620000d2620000c6620000d860201b60201c565b620000e060201b60201c565b620002bb565b600033905090565b6000600660009054906101000a900473ffffffffffffffffffffffffffffffffffffffff16905081600660006101000a81548173ffffffffffffffffffffffffffffffffffffffff021916908373ffffffffffffffffffffffffffffffffffffffff1602179055508173ffffffffffffffffffffffffffffffffffffffff168173ffffffffffffffffffffffffffffffffffffffff167f8be0079c531659141344cd1fd0a4f28419497f9722a3daafe3b4186f6b6457e060405160405180910390a35050565b828054620001b49062000256565b90600052602060002090601f016020900481019282620001d8576000855562000224565b82601f10620001f357805160ff191683800117855562000224565b8280016001018555821562000224579182015b828111156200022357825182559160200191906001019062000206565b5b50905062000233919062000237565b5090565b5b808211156200025257600081600090555060010162000238565b5090565b600060028204905060018216806200026f57607f821691505b602082108114156200028657620002856200028c565b5b50919050565b7f4e487b7100000000000000000000000000000000000000000000000000000000600052602260045260246000fd5b612e5180620002cb6000396000f3fe608060405234801561001057600080fd5b50600436106101215760003560e01c806370a08231116100ad578063b88d4fde11610071578063b88d4fde14610306578063bdc32be014610322578063c87b56dd14610340578063e985e9c514610370578063f2fde38b146103a057610121565b806370a0823114610274578063715018a6146102a45780638da5cb5b146102ae57806395d89b41146102cc578063a22cb465146102ea57610121565b806323b872dd116100f457806323b872dd146101c057806342842e0e146101dc5780636352211e146101f8578063655391c9146102285780636a6278421461024457610121565b806301ffc9a71461012657806306fdde0314610156578063081812fc14610174578063095ea7b3146101a4575b600080fd5b610140600480360381019061013b9190611ee3565b6103bc565b60405161014d919061232a565b60405180910390f35b61015e61049e565b60405161016b9190612345565b60405180910390f35b61018e60048036038101906101899190611f76565b610530565b60405161019b91906122c3565b60405180910390f35b6101be60048036038101906101b99190611ea7565b6105b5565b005b6101da60048036038101906101d59190611da1565b6106cd565b005b6101f660048036038101906101f19190611da1565b61072d565b005b610212600480360381019061020d9190611f76565b61074d565b60405161021f91906122c3565b60405180910390f35b610242600480360381019061023d9190611f35565b6107ff565b005b61025e60048036038101906102599190611d3c565b610895565b60405161026b9190612567565b60405180910390f35b61028e60048036038101906102899190611d3c565b61093e565b60405161029b9190612567565b60405180910390f35b6102ac6109f6565b005b6102b6610a7e565b6040516102c391906122c3565b60405180910390f35b6102d4610aa8565b6040516102e19190612345565b60405180910390f35b61030460048036038101906102ff9190611e6b565b610b3a565b005b610320600480360381019061031b9190611df0565b610b50565b005b61032a610bb2565b6040516103379190612345565b60405180910390f35b61035a60048036038101906103559190611f76565b610bc1565b6040516103679190612345565b60405180910390f35b61038a60048036038101906103859190611d65565b610c68565b604051610397919061232a565b60405180910390f35b6103ba60048036038101906103b59190611d3c565b610cfc565b005b60007f80ac58cd000000000000000000000000000000000000000000000000000000007bffffffffffffffffffffffffffffffffffffffffffffffffffffffff1916827bffffffffffffffffffffffffffffffffffffffffffffffffffffffff1916148061048757507f5b5e139f000000000000000000000000000000000000000000000000000000007bffffffffffffffffffffffffffffffffffffffffffffffffffffffff1916827bffffffffffffffffffffffffffffffffffffffffffffffffffffffff1916145b80610497575061049682610df4565b5b9050919050565b6060600080546104ad906127bd565b80601f01602080910402602001604051908101604052809291908181526020018280546104d9906127bd565b80156105265780601f106104fb57610100808354040283529160200191610526565b820191906000526020600020905b81548152906001019060200180831161050957829003601f168201915b5050505050905090565b600061053b82610e5e565b61057a576040517f08c379a0000000000000000000000000000000000000000000000000000000008152600401610571906124c7565b60405180910390fd5b6004600083815260200190815260200160002060009054906101000a900473ffffffffffffffffffffffffffffffffffffffff169050919050565b60006105c08261074d565b90508073ffffffffffffffffffffffffffffffffffffffff168373ffffffffffffffffffffffffffffffffffffffff161415610631576040517f08c379a000000000000000000000000000000000000000000000000000000000815260040161062890612527565b60405180910390fd5b8073ffffffffffffffffffffffffffffffffffffffff16610650610eca565b73ffffffffffffffffffffffffffffffffffffffff16148061067f575061067e81610679610eca565b610c68565b5b6106be576040517f08c379a00000000000000000000000000000000000000000000000000000000081526004016106b590612447565b60405180910390fd5b6106c88383610ed2565b505050565b6106de6106d8610eca565b82610f8b565b61071d576040517f08c379a000000000000000000000000000000000000000000000000000000000815260040161071490612547565b60405180910390fd5b610728838383611069565b505050565b61074883838360405180602001604052806000815250610b50565b505050565b6000806002600084815260200190815260200160002060009054906101000a900473ffffffffffffffffffffffffffffffffffffffff169050600073ffffffffffffffffffffffffffffffffffffffff168173ffffffffffffffffffffffffffffffffffffffff1614156107f6576040517f08c379a00000000000000000000000000000000000000000000000000000000081526004016107ed90612487565b60405180910390fd5b80915050919050565b610807610eca565b73ffffffffffffffffffffffffffffffffffffffff16610825610a7e565b73ffffffffffffffffffffffffffffffffffffffff161461087b576040517f08c379a0000000000000000000000000000000000000000000000000000000008152600401610872906124e7565b60405180910390fd5b8060089080519060200190610891929190611b60565b5050565b600061089f610eca565b73ffffffffffffffffffffffffffffffffffffffff166108bd610a7e565b73ffffffffffffffffffffffffffffffffffffffff1614610913576040517f08c379a000000000000000000000000000000000000000000000000000000000815260040161090a906124e7565b60405180910390fd5b61091d60076112d0565b600061092960076112e6565b905061093583826112f4565b80915050919050565b60008073ffffffffffffffffffffffffffffffffffffffff168273ffffffffffffffffffffffffffffffffffffffff1614156109af576040517f08c379a00000000000000000000000000000000000000000000000000000000081526004016109a690612467565b60405180910390fd5b600360008373ffffffffffffffffffffffffffffffffffffffff1673ffffffffffffffffffffffffffffffffffffffff168152602001908152602001600020549050919050565b6109fe610eca565b73ffffffffffffffffffffffffffffffffffffffff16610a1c610a7e565b73ffffffffffffffffffffffffffffffffffffffff1614610a72576040517f08c379a0000000000000000000000000000000000000000000000000000000008152600401610a69906124e7565b60405180910390fd5b610a7c60006114ce565b565b6000600660009054906101000a900473ffffffffffffffffffffffffffffffffffffffff16905090565b606060018054610ab7906127bd565b80601f0160208091040260200160405190810160405280929190818152602001828054610ae3906127bd565b8015610b305780601f10610b0557610100808354040283529160200191610b30565b820191906000526020600020905b815481529060010190602001808311610b1357829003601f168201915b5050505050905090565b610b4c610b45610eca565b8383611594565b5050565b610b61610b5b610eca565b83610f8b565b610ba0576040517f08c379a0000000000000000000000000000000000000000000000000000000008152600401610b9790612547565b60405180910390fd5b610bac84848484611701565b50505050565b6060610bbc61175d565b905090565b6060610bcc82610e5e565b610c0b576040517f08c379a0000000000000000000000000000000000000000000000000000000008152600401610c0290612507565b60405180910390fd5b6000610c1561175d565b90506000815111610c355760405180602001604052806000815250610c60565b80610c3f846117ef565b604051602001610c5092919061229f565b6040516020818303038152906040525b915050919050565b6000600560008473ffffffffffffffffffffffffffffffffffffffff1673ffffffffffffffffffffffffffffffffffffffff16815260200190815260200160002060008373ffffffffffffffffffffffffffffffffffffffff1673ffffffffffffffffffffffffffffffffffffffff16815260200190815260200160002060009054906101000a900460ff16905092915050565b610d04610eca565b73ffffffffffffffffffffffffffffffffffffffff16610d22610a7e565b73ffffffffffffffffffffffffffffffffffffffff1614610d78576040517f08c379a0000000000000000000000000000000000000000000000000000000008152600401610d6f906124e7565b60405180910390fd5b600073ffffffffffffffffffffffffffffffffffffffff168173ffffffffffffffffffffffffffffffffffffffff161415610de8576040517f08c379a0000000000000000000000000000000000000000000000000000000008152600401610ddf90612387565b60405180910390fd5b610df1816114ce565b50565b60007f01ffc9a7000000000000000000000000000000000000000000000000000000007bffffffffffffffffffffffffffffffffffffffffffffffffffffffff1916827bffffffffffffffffffffffffffffffffffffffffffffffffffffffff1916149050919050565b60008073ffffffffffffffffffffffffffffffffffffffff166002600084815260200190815260200160002060009054906101000a900473ffffffffffffffffffffffffffffffffffffffff1673ffffffffffffffffffffffffffffffffffffffff1614159050919050565b600033905090565b816004600083815260200190815260200160002060006101000a81548173ffffffffffffffffffffffffffffffffffffffff021916908373ffffffffffffffffffffffffffffffffffffffff160217905550808273ffffffffffffffffffffffffffffffffffffffff16610f458361074d565b73ffffffffffffffffffffffffffffffffffffffff167f8c5be1e5ebec7d5bd14f71427d1e84f3dd0314c0f7b2291e5b200ac8c7c3b92560405160405180910390a45050565b6000610f9682610e5e565b610fd5576040517f08c379a0000000000000000000000000000000000000000000000000000000008152600401610fcc90612427565b60405180910390fd5b6000610fe08361074d565b90508073ffffffffffffffffffffffffffffffffffffffff168473ffffffffffffffffffffffffffffffffffffffff16148061102257506110218185610c68565b5b8061106057508373ffffffffffffffffffffffffffffffffffffffff1661104884610530565b73ffffffffffffffffffffffffffffffffffffffff16145b91505092915050565b8273ffffffffffffffffffffffffffffffffffffffff166110898261074d565b73ffffffffffffffffffffffffffffffffffffffff16146110df576040517f08c379a00000000000000000000000000000000000000000000000000000000081526004016110d6906123a7565b60405180910390fd5b600073ffffffffffffffffffffffffffffffffffffffff168273ffffffffffffffffffffffffffffffffffffffff16141561114f576040517f08c379a0000000000000000000000000000000000000000000000000000000008152600401611146906123e7565b60405180910390fd5b61115a83838361199c565b611165600082610ed2565b6001600360008573ffffffffffffffffffffffffffffffffffffffff1673ffffffffffffffffffffffffffffffffffffffff16815260200190815260200160002060008282546111b591906126d3565b925050819055506001600360008473ffffffffffffffffffffffffffffffffffffffff1673ffffffffffffffffffffffffffffffffffffffff168152602001908152602001600020600082825461120c919061264c565b92505081905550816002600083815260200190815260200160002060006101000a81548173ffffffffffffffffffffffffffffffffffffffff021916908373ffffffffffffffffffffffffffffffffffffffff160217905550808273ffffffffffffffffffffffffffffffffffffffff168473ffffffffffffffffffffffffffffffffffffffff167fddf252ad1be2c89b69c2b068fc378daa952ba7f163c4a11628f55a4df523b3ef60405160405180910390a46112cb8383836119a1565b505050565b6001816000016000828254019250508190555050565b600081600001549050919050565b600073ffffffffffffffffffffffffffffffffffffffff168273ffffffffffffffffffffffffffffffffffffffff161415611364576040517f08c379a000000000000000000000000000000000000000000000000000000000815260040161135b906124a7565b60405180910390fd5b61136d81610e5e565b156113ad576040517f08c379a00000000000000000000000000000000000000000000000000000000081526004016113a4906123c7565b60405180910390fd5b6113b96000838361199c565b6001600360008473ffffffffffffffffffffffffffffffffffffffff1673ffffffffffffffffffffffffffffffffffffffff1681526020019081526020016000206000828254611409919061264c565b92505081905550816002600083815260200190815260200160002060006101000a81548173ffffffffffffffffffffffffffffffffffffffff021916908373ffffffffffffffffffffffffffffffffffffffff160217905550808273ffffffffffffffffffffffffffffffffffffffff16600073ffffffffffffffffffffffffffffffffffffffff167fddf252ad1be2c89b69c2b068fc378daa952ba7f163c4a11628f55a4df523b3ef60405160405180910390a46114ca600083836119a1565b5050565b6000600660009054906101000a900473ffffffffffffffffffffffffffffffffffffffff16905081600660006101000a81548173ffffffffffffffffffffffffffffffffffffffff021916908373ffffffffffffffffffffffffffffffffffffffff1602179055508173ffffffffffffffffffffffffffffffffffffffff168173ffffffffffffffffffffffffffffffffffffffff167f8be0079c531659141344cd1fd0a4f28419497f9722a3daafe3b4186f6b6457e060405160405180910390a35050565b8173ffffffffffffffffffffffffffffffffffffffff168373ffffffffffffffffffffffffffffffffffffffff161415611603576040517f08c379a00000000000000000000000000000000000000000000000000000000081526004016115fa90612407565b60405180910390fd5b80600560008573ffffffffffffffffffffffffffffffffffffffff1673ffffffffffffffffffffffffffffffffffffffff16815260200190815260200160002060008473ffffffffffffffffffffffffffffffffffffffff1673ffffffffffffffffffffffffffffffffffffffff16815260200190815260200160002060006101000a81548160ff0219169083151502179055508173ffffffffffffffffffffffffffffffffffffffff168373ffffffffffffffffffffffffffffffffffffffff167f17307eab39ab6107e8899845ad3d59bd9653f200f220920489ca2b5937696c31836040516116f4919061232a565b60405180910390a3505050565b61170c848484611069565b611718848484846119a6565b611757576040517f08c379a000000000000000000000000000000000000000000000000000000000815260040161174e90612367565b60405180910390fd5b50505050565b60606008805461176c906127bd565b80601f0160208091040260200160405190810160405280929190818152602001828054611798906127bd565b80156117e55780601f106117ba576101008083540402835291602001916117e5565b820191906000526020600020905b8154815290600101906020018083116117c857829003601f168201915b5050505050905090565b60606000821415611837576040518060400160405280600181526020017f30000000000000000000000000000000000000000000000000000000000000008152509050611997565b600082905060005b6000821461186957808061185290612820565b915050600a8261186291906126a2565b915061183f565b60008167ffffffffffffffff8111156118ab577f4e487b7100000000000000000000000000000000000000000000000000000000600052604160045260246000fd5b6040519080825280601f01601f1916602001820160405280156118dd5781602001600182028036833780820191505090505b5090505b60008514611990576001826118f691906126d3565b9150600a856119059190612869565b6030611911919061264c565b60f81b81838151811061194d577f4e487b7100000000000000000000000000000000000000000000000000000000600052603260045260246000fd5b60200101907effffffffffffffffffffffffffffffffffffffffffffffffffffffffffffff1916908160001a905350600a8561198991906126a2565b94506118e1565b8093505050505b919050565b505050565b505050565b60006119c78473ffffffffffffffffffffffffffffffffffffffff16611b3d565b15611b30578373ffffffffffffffffffffffffffffffffffffffff1663150b7a026119f0610eca565b8786866040518563ffffffff1660e01b8152600401611a1294939291906122de565b602060405180830381600087803b158015611a2c57600080fd5b505af1925050508015611a5d57506040513d601f19601f82011682018060405250810190611a5a9190611f0c565b60015b611ae0573d8060008114611a8d576040519150601f19603f3d011682016040523d82523d6000602084013e611a92565b606091505b50600081511415611ad8576040517f08c379a0000000000000000000000000000000000000000000000000000000008152600401611acf90612367565b60405180910390fd5b805181602001fd5b63150b7a0260e01b7bffffffffffffffffffffffffffffffffffffffffffffffffffffffff1916817bffffffffffffffffffffffffffffffffffffffffffffffffffffffff191614915050611b35565b600190505b949350505050565b6000808273ffffffffffffffffffffffffffffffffffffffff163b119050919050565b828054611b6c906127bd565b90600052602060002090601f016020900481019282611b8e5760008555611bd5565b82601f10611ba757805160ff1916838001178555611bd5565b82800160010185558215611bd5579182015b82811115611bd4578251825591602001919060010190611bb9565b5b509050611be29190611be6565b5090565b5b80821115611bff576000816000905550600101611be7565b5090565b6000611c16611c11846125a7565b612582565b905082815260208101848484011115611c2e57600080fd5b611c3984828561277b565b509392505050565b6000611c54611c4f846125d8565b612582565b905082815260208101848484011115611c6c57600080fd5b611c7784828561277b565b509392505050565b600081359050611c8e81612dbf565b92915050565b600081359050611ca381612dd6565b92915050565b600081359050611cb881612ded565b92915050565b600081519050611ccd81612ded565b92915050565b600082601f830112611ce457600080fd5b8135611cf4848260208601611c03565b91505092915050565b600082601f830112611d0e57600080fd5b8135611d1e848260208601611c41565b91505092915050565b600081359050611d3681612e04565b92915050565b600060208284031215611d4e57600080fd5b6000611d5c84828501611c7f565b91505092915050565b60008060408385031215611d7857600080fd5b6000611d8685828601611c7f565b9250506020611d9785828601611c7f565b9150509250929050565b600080600060608486031215611db657600080fd5b6000611dc486828701611c7f565b9350506020611dd586828701611c7f565b9250506040611de686828701611d27565b9150509250925092565b60008060008060808587031215611e0657600080fd5b6000611e1487828801611c7f565b9450506020611e2587828801611c7f565b9350506040611e3687828801611d27565b925050606085013567ffffffffffffffff811115611e5357600080fd5b611e5f87828801611cd3565b91505092959194509250565b60008060408385031215611e7e57600080fd5b6000611e8c85828601611c7f565b9250506020611e9d85828601611c94565b9150509250929050565b60008060408385031215611eba57600080fd5b6000611ec885828601611c7f565b9250506020611ed985828601611d27565b9150509250929050565b600060208284031215611ef557600080fd5b6000611f0384828501611ca9565b91505092915050565b600060208284031215611f1e57600080fd5b6000611f2c84828501611cbe565b91505092915050565b600060208284031215611f4757600080fd5b600082013567ffffffffffffffff811115611f6157600080fd5b611f6d84828501611cfd565b91505092915050565b600060208284031215611f8857600080fd5b6000611f9684828501611d27565b91505092915050565b611fa881612707565b82525050565b611fb781612719565b82525050565b6000611fc882612609565b611fd2818561261f565b9350611fe281856020860161278a565b611feb81612956565b840191505092915050565b600061200182612614565b61200b8185612630565b935061201b81856020860161278a565b61202481612956565b840191505092915050565b600061203a82612614565b6120448185612641565b935061205481856020860161278a565b80840191505092915050565b600061206d603283612630565b915061207882612967565b604082019050919050565b6000612090602683612630565b915061209b826129b6565b604082019050919050565b60006120b3602583612630565b91506120be82612a05565b604082019050919050565b60006120d6601c83612630565b91506120e182612a54565b602082019050919050565b60006120f9602483612630565b915061210482612a7d565b604082019050919050565b600061211c601983612630565b915061212782612acc565b602082019050919050565b600061213f602c83612630565b915061214a82612af5565b604082019050919050565b6000612162603883612630565b915061216d82612b44565b604082019050919050565b6000612185602a83612630565b915061219082612b93565b604082019050919050565b60006121a8602983612630565b91506121b382612be2565b604082019050919050565b60006121cb602083612630565b91506121d682612c31565b602082019050919050565b60006121ee602c83612630565b91506121f982612c5a565b604082019050919050565b6000612211602083612630565b915061221c82612ca9565b602082019050919050565b6000612234602f83612630565b915061223f82612cd2565b604082019050919050565b6000612257602183612630565b915061226282612d21565b604082019050919050565b600061227a603183612630565b915061228582612d70565b604082019050919050565b61229981612771565b82525050565b60006122ab828561202f565b91506122b7828461202f565b91508190509392505050565b60006020820190506122d86000830184611f9f565b92915050565b60006080820190506122f36000830187611f9f565b6123006020830186611f9f565b61230d6040830185612290565b818103606083015261231f8184611fbd565b905095945050505050565b600060208201905061233f6000830184611fae565b92915050565b6000602082019050818103600083015261235f8184611ff6565b905092915050565b6000602082019050818103600083015261238081612060565b9050919050565b600060208201905081810360008301526123a081612083565b9050919050565b600060208201905081810360008301526123c0816120a6565b9050919050565b600060208201905081810360008301526123e0816120c9565b9050919050565b60006020820190508181036000830152612400816120ec565b9050919050565b600060208201905081810360008301526124208161210f565b9050919050565b6000602082019050818103600083015261244081612132565b9050919050565b6000602082019050818103600083015261246081612155565b9050919050565b6000602082019050818103600083015261248081612178565b9050919050565b600060208201905081810360008301526124a08161219b565b9050919050565b600060208201905081810360008301526124c0816121be565b9050919050565b600060208201905081810360008301526124e0816121e1565b9050919050565b6000602082019050818103600083015261250081612204565b9050919050565b6000602082019050818103600083015261252081612227565b9050919050565b600060208201905081810360008301526125408161224a565b9050919050565b600060208201905081810360008301526125608161226d565b9050919050565b600060208201905061257c6000830184612290565b92915050565b600061258c61259d565b905061259882826127ef565b919050565b6000604051905090565b600067ffffffffffffffff8211156125c2576125c1612927565b5b6125cb82612956565b9050602081019050919050565b600067ffffffffffffffff8211156125f3576125f2612927565b5b6125fc82612956565b9050602081019050919050565b600081519050919050565b600081519050919050565b600082825260208201905092915050565b600082825260208201905092915050565b600081905092915050565b600061265782612771565b915061266283612771565b9250827fffffffffffffffffffffffffffffffffffffffffffffffffffffffffffffffff038211156126975761269661289a565b5b828201905092915050565b60006126ad82612771565b91506126b883612771565b9250826126c8576126c76128c9565b5b828204905092915050565b60006126de82612771565b91506126e983612771565b9250828210156126fc576126fb61289a565b5b828203905092915050565b600061271282612751565b9050919050565b60008115159050919050565b60007fffffffff0000000000000000000000000000000000000000000000000000000082169050919050565b600073ffffffffffffffffffffffffffffffffffffffff82169050919050565b6000819050919050565b82818337600083830152505050565b60005b838110156127a857808201518184015260208101905061278d565b838111156127b7576000848401525b50505050565b600060028204905060018216806127d557607f821691505b602082108114156127e9576127e86128f8565b5b50919050565b6127f882612956565b810181811067ffffffffffffffff8211171561281757612816612927565b5b80604052505050565b600061282b82612771565b91507fffffffffffffffffffffffffffffffffffffffffffffffffffffffffffffffff82141561285e5761285d61289a565b5b600182019050919050565b600061287482612771565b915061287f83612771565b92508261288f5761288e6128c9565b5b828206905092915050565b7f4e487b7100000000000000000000000000000000000000000000000000000000600052601160045260246000fd5b7f4e487b7100000000000000000000000000000000000000000000000000000000600052601260045260246000fd5b7f4e487b7100000000000000000000000000000000000000000000000000000000600052602260045260246000fd5b7f4e487b7100000000000000000000000000000000000000000000000000000000600052604160045260246000fd5b6000601f19601f8301169050919050565b7f4552433732313a207472616e7366657220746f206e6f6e20455243373231526560008201527f63656976657220696d706c656d656e7465720000000000000000000000000000602082015250565b7f4f776e61626c653a206e6577206f776e657220697320746865207a65726f206160008201527f6464726573730000000000000000000000000000000000000000000000000000602082015250565b7f4552433732313a207472616e736665722066726f6d20696e636f72726563742060008201527f6f776e6572000000000000000000000000000000000000000000000000000000602082015250565b7f4552433732313a20746f6b656e20616c7265616479206d696e74656400000000600082015250565b7f4552433732313a207472616e7366657220746f20746865207a65726f2061646460008201527f7265737300000000000000000000000000000000000000000000000000000000602082015250565b7f4552433732313a20617070726f766520746f2063616c6c657200000000000000600082015250565b7f4552433732313a206f70657261746f7220717565727920666f72206e6f6e657860008201527f697374656e7420746f6b656e0000000000000000000000000000000000000000602082015250565b7f4552433732313a20617070726f76652063616c6c6572206973206e6f74206f7760008201527f6e6572206e6f7220617070726f76656420666f7220616c6c0000000000000000602082015250565b7f4552433732313a2062616c616e636520717565727920666f7220746865207a6560008201527f726f206164647265737300000000000000000000000000000000000000000000602082015250565b7f4552433732313a206f776e657220717565727920666f72206e6f6e657869737460008201527f656e7420746f6b656e0000000000000000000000000000000000000000000000602082015250565b7f4552433732313a206d696e7420746f20746865207a65726f2061646472657373600082015250565b7f4552433732313a20617070726f76656420717565727920666f72206e6f6e657860008201527f697374656e7420746f6b656e0000000000000000000000000000000000000000602082015250565b7f4f776e61626c653a2063616c6c6572206973206e6f7420746865206f776e6572600082015250565b7f4552433732314d657461646174613a2055524920717565727920666f72206e6f60008201527f6e6578697374656e7420746f6b656e0000000000000000000000000000000000602082015250565b7f4552433732313a20617070726f76616c20746f2063757272656e74206f776e6560008201527f7200000000000000000000000000000000000000000000000000000000000000602082015250565b7f4552433732313a207472616e736665722063616c6c6572206973206e6f74206f60008201527f776e6572206e6f7220617070726f766564000000000000000000000000000000602082015250565b612dc881612707565b8114612dd357600080fd5b50565b612ddf81612719565b8114612dea57600080fd5b50565b612df681612725565b8114612e0157600080fd5b50565b612e0d81612771565b8114612e1857600080fd5b5056fea264697066735822122023b35449011f75aa068a8a8f05cf29842d598d69206bd2bfce6b668bc7827ec164736f6c63430008040033",
  "linkReferences": {},
  "deployedLinkReferences": {}
}